{
  "abi": [
    {
      "inputs": [],
      "stateMutability": "nonpayable",
      "type": "constructor"
    },
    {
      "anonymous": false,
      "inputs": [
        {
          "indexed": true,
          "internalType": "address",
          "name": "owner",
          "type": "address"
        },
        {
          "indexed": true,
          "internalType": "address",
          "name": "approved",
          "type": "address"
        },
        {
          "indexed": true,
          "internalType": "uint256",
          "name": "tokenId",
          "type": "uint256"
        }
      ],
      "name": "Approval",
      "type": "event"
    },
    {
      "anonymous": false,
      "inputs": [
        {
          "indexed": true,
          "internalType": "address",
          "name": "owner",
          "type": "address"
        },
        {
          "indexed": true,
          "internalType": "address",
          "name": "operator",
          "type": "address"
        },
        {
          "indexed": false,
          "internalType": "bool",
          "name": "approved",
          "type": "bool"
        }
      ],
      "name": "ApprovalForAll",
      "type": "event"
    },
    {
      "anonymous": false,
      "inputs": [
        {
          "indexed": true,
          "internalType": "address",
          "name": "from",
          "type": "address"
        },
        {
          "indexed": true,
          "internalType": "address",
          "name": "to",
          "type": "address"
        },
        {
          "indexed": true,
          "internalType": "uint256",
          "name": "tokenId",
          "type": "uint256"
        }
      ],
      "name": "Transfer",
      "type": "event"
    },
    {
      "inputs": [
        {
          "internalType": "address",
          "name": "to",
          "type": "address"
        },
        {
          "internalType": "uint256",
          "name": "tokenId",
          "type": "uint256"
        }
      ],
      "name": "approve",
      "outputs": [],
      "stateMutability": "nonpayable",
      "type": "function"
    },
    {
      "inputs": [
        {
          "internalType": "address",
          "name": "owner",
          "type": "address"
        }
      ],
      "name": "balanceOf",
      "outputs": [
        {
          "internalType": "uint256",
          "name": "",
          "type": "uint256"
        }
      ],
      "stateMutability": "view",
      "type": "function"
    },
    {
      "inputs": [],
      "name": "factory",
      "outputs": [
        {
          "internalType": "address",
          "name": "",
          "type": "address"
        }
      ],
      "stateMutability": "view",
      "type": "function"
    },
    {
      "inputs": [
        {
          "internalType": "uint256",
          "name": "tokenId",
          "type": "uint256"
        }
      ],
      "name": "getApproved",
      "outputs": [
        {
          "internalType": "address",
          "name": "",
          "type": "address"
        }
      ],
      "stateMutability": "view",
      "type": "function"
    },
    {
      "inputs": [
        {
          "internalType": "address",
          "name": "owner",
          "type": "address"
        },
        {
          "internalType": "address",
          "name": "operator",
          "type": "address"
        }
      ],
      "name": "isApprovedForAll",
      "outputs": [
        {
          "internalType": "bool",
          "name": "",
          "type": "bool"
        }
      ],
      "stateMutability": "view",
      "type": "function"
    },
    {
      "inputs": [
        {
          "internalType": "address",
          "name": "_to",
          "type": "address"
        }
      ],
      "name": "mintDBXENFT",
      "outputs": [
        {
          "internalType": "uint256",
          "name": "tokenId",
          "type": "uint256"
        }
      ],
      "stateMutability": "nonpayable",
      "type": "function"
    },
    {
      "inputs": [],
      "name": "name",
      "outputs": [
        {
          "internalType": "string",
          "name": "",
          "type": "string"
        }
      ],
      "stateMutability": "view",
      "type": "function"
    },
    {
      "inputs": [
        {
          "internalType": "uint256",
          "name": "tokenId",
          "type": "uint256"
        }
      ],
      "name": "ownerOf",
      "outputs": [
        {
          "internalType": "address",
          "name": "",
          "type": "address"
        }
      ],
      "stateMutability": "view",
      "type": "function"
    },
    {
      "inputs": [
        {
          "internalType": "address",
          "name": "from",
          "type": "address"
        },
        {
          "internalType": "address",
          "name": "to",
          "type": "address"
        },
        {
          "internalType": "uint256",
          "name": "tokenId",
          "type": "uint256"
        }
      ],
      "name": "safeTransferFrom",
      "outputs": [],
      "stateMutability": "nonpayable",
      "type": "function"
    },
    {
      "inputs": [
        {
          "internalType": "address",
          "name": "from",
          "type": "address"
        },
        {
          "internalType": "address",
          "name": "to",
          "type": "address"
        },
        {
          "internalType": "uint256",
          "name": "tokenId",
          "type": "uint256"
        },
        {
          "internalType": "bytes",
          "name": "data",
          "type": "bytes"
        }
      ],
      "name": "safeTransferFrom",
      "outputs": [],
      "stateMutability": "nonpayable",
      "type": "function"
    },
    {
      "inputs": [
        {
          "internalType": "address",
          "name": "operator",
          "type": "address"
        },
        {
          "internalType": "bool",
          "name": "approved",
          "type": "bool"
        }
      ],
      "name": "setApprovalForAll",
      "outputs": [],
      "stateMutability": "nonpayable",
      "type": "function"
    },
    {
      "inputs": [
        {
          "internalType": "bytes4",
          "name": "interfaceId",
          "type": "bytes4"
        }
      ],
      "name": "supportsInterface",
      "outputs": [
        {
          "internalType": "bool",
          "name": "",
          "type": "bool"
        }
      ],
      "stateMutability": "view",
      "type": "function"
    },
    {
      "inputs": [],
      "name": "symbol",
      "outputs": [
        {
          "internalType": "string",
          "name": "",
          "type": "string"
        }
      ],
      "stateMutability": "view",
      "type": "function"
    },
    {
      "inputs": [
        {
          "internalType": "uint256",
          "name": "tokenId",
          "type": "uint256"
        }
      ],
      "name": "tokenURI",
      "outputs": [
        {
          "internalType": "string",
          "name": "",
          "type": "string"
        }
      ],
      "stateMutability": "view",
      "type": "function"
    },
    {
      "inputs": [
        {
          "internalType": "address",
          "name": "from",
          "type": "address"
        },
        {
          "internalType": "address",
          "name": "to",
          "type": "address"
        },
        {
          "internalType": "uint256",
          "name": "tokenId",
          "type": "uint256"
        }
      ],
      "name": "transferFrom",
      "outputs": [],
      "stateMutability": "nonpayable",
      "type": "function"
    }
  ],
  "bytecode": {
    "object": "0x60a06040523480156200001157600080fd5b506040518060400160405280600981526020016811109611538813919560ba1b815250604051806040016040528060078152602001661110961153919560ca1b815250816000908162000065919062000126565b50600162000074828262000126565b50503360805250620001f2565b634e487b7160e01b600052604160045260246000fd5b600181811c90821680620000ac57607f821691505b602082108103620000cd57634e487b7160e01b600052602260045260246000fd5b50919050565b601f8211156200012157600081815260208120601f850160051c81016020861015620000fc5750805b601f850160051c820191505b818110156200011d5782815560010162000108565b5050505b505050565b81516001600160401b0381111562000142576200014262000081565b6200015a8162000153845462000097565b84620000d3565b602080601f831160018114620001925760008415620001795750858301515b600019600386901b1c1916600185901b1785556200011d565b600085815260208120601f198616915b82811015620001c357888601518255948401946001909101908401620001a2565b5085821015620001e25787850151600019600388901b60f8161c191681555b5050505050600190811b01905550565b6080516113ed620002156000396000818161021701526104eb01526113ed6000f3fe608060405234801561001057600080fd5b50600436106100f55760003560e01c80636352211e11610097578063b88d4fde11610066578063b88d4fde146101ff578063c45a015514610212578063c87b56dd14610239578063e985e9c51461024c57600080fd5b80636352211e146101be57806370a08231146101d157806395d89b41146101e4578063a22cb465146101ec57600080fd5b8063095ea7b3116100d3578063095ea7b31461016257806323b872dd14610177578063319669481461018a57806342842e0e146101ab57600080fd5b806301ffc9a7146100fa57806306fdde0314610122578063081812fc14610137575b600080fd5b61010d610108366004610f52565b610288565b60405190151581526020015b60405180910390f35b61012a6102da565b6040516101199190610fbf565b61014a610145366004610fd2565b61036c565b6040516001600160a01b039091168152602001610119565b610175610170366004611007565b610393565b005b610175610185366004611031565b6104ad565b61019d61019836600461106d565b6104de565b604051908152602001610119565b6101756101b9366004611031565b610579565b61014a6101cc366004610fd2565b610594565b61019d6101df36600461106d565b6105f4565b61012a61067a565b6101756101fa366004611088565b610689565b61017561020d3660046110da565b610698565b61014a7f000000000000000000000000000000000000000000000000000000000000000081565b61012a610247366004610fd2565b6106d0565b61010d61025a3660046111b6565b6001600160a01b03918216600090815260056020908152604080832093909416825291909152205460ff1690565b60006001600160e01b031982166380ac58cd60e01b14806102b957506001600160e01b03198216635b5e139f60e01b145b806102d457506301ffc9a760e01b6001600160e01b03198316145b92915050565b6060600080546102e9906111e9565b80601f0160208091040260200160405190810160405280929190818152602001828054610315906111e9565b80156103625780601f1061033757610100808354040283529160200191610362565b820191906000526020600020905b81548152906001019060200180831161034557829003601f168201915b5050505050905090565b600061037782610744565b506000908152600460205260409020546001600160a01b031690565b600061039e82610594565b9050806001600160a01b0316836001600160a01b0316036104105760405162461bcd60e51b815260206004820152602160248201527f4552433732313a20617070726f76616c20746f2063757272656e74206f776e656044820152603960f91b60648201526084015b60405180910390fd5b336001600160a01b038216148061042c575061042c813361025a565b61049e5760405162461bcd60e51b815260206004820152603d60248201527f4552433732313a20617070726f76652063616c6c6572206973206e6f7420746f60448201527f6b656e206f776e6572206f7220617070726f76656420666f7220616c6c0000006064820152608401610407565b6104a883836107a6565b505050565b6104b73382610814565b6104d35760405162461bcd60e51b815260040161040790611223565b6104a8838383610893565b6000336001600160a01b037f000000000000000000000000000000000000000000000000000000000000000016146105505760405162461bcd60e51b815260206004820152601560248201527413db9b1e48199858dd1bdc9e4818d85b881b5a5b9d605a1b6044820152606401610407565b61055c826006546109f7565b5060068054908190600061056f83611270565b9190505550919050565b6104a883838360405180602001604052806000815250610698565b6000818152600260205260408120546001600160a01b0316806102d45760405162461bcd60e51b8152602060048201526018602482015277115490cdcc8c4e881a5b9d985b1a59081d1bdad95b88125160421b6044820152606401610407565b60006001600160a01b03821661065e5760405162461bcd60e51b815260206004820152602960248201527f4552433732313a2061646472657373207a65726f206973206e6f7420612076616044820152683634b21037bbb732b960b91b6064820152608401610407565b506001600160a01b031660009081526003602052604090205490565b6060600180546102e9906111e9565b610694338383610a11565b5050565b6106a23383610814565b6106be5760405162461bcd60e51b815260040161040790611223565b6106ca84848484610adf565b50505050565b60606106db82610744565b60006106f260408051602081019091526000815290565b90506000815111610712576040518060200160405280600081525061073d565b8061071c84610b12565b60405160200161072d929190611297565b6040516020818303038152906040525b9392505050565b6000818152600260205260409020546001600160a01b03166107a35760405162461bcd60e51b8152602060048201526018602482015277115490cdcc8c4e881a5b9d985b1a59081d1bdad95b88125160421b6044820152606401610407565b50565b600081815260046020526040902080546001600160a01b0319166001600160a01b03841690811790915581906107db82610594565b6001600160a01b03167f8c5be1e5ebec7d5bd14f71427d1e84f3dd0314c0f7b2291e5b200ac8c7c3b92560405160405180910390a45050565b60008061082083610594565b9050806001600160a01b0316846001600160a01b0316148061086757506001600160a01b0380821660009081526005602090815260408083209388168352929052205460ff165b8061088b5750836001600160a01b03166108808461036c565b6001600160a01b0316145b949350505050565b826001600160a01b03166108a682610594565b6001600160a01b0316146108cc5760405162461bcd60e51b8152600401610407906112c6565b6001600160a01b03821661092e5760405162461bcd60e51b8152602060048201526024808201527f4552433732313a207472616e7366657220746f20746865207a65726f206164646044820152637265737360e01b6064820152608401610407565b826001600160a01b031661094182610594565b6001600160a01b0316146109675760405162461bcd60e51b8152600401610407906112c6565b600081815260046020908152604080832080546001600160a01b03199081169091556001600160a01b0387811680865260038552838620805460001901905590871680865283862080546001019055868652600290945282852080549092168417909155905184937fddf252ad1be2c89b69c2b068fc378daa952ba7f163c4a11628f55a4df523b3ef91a4505050565b610694828260405180602001604052806000815250610ba5565b816001600160a01b0316836001600160a01b031603610a725760405162461bcd60e51b815260206004820152601960248201527f4552433732313a20617070726f766520746f2063616c6c6572000000000000006044820152606401610407565b6001600160a01b03838116600081815260056020908152604080832094871680845294825291829020805460ff191686151590811790915591519182527f17307eab39ab6107e8899845ad3d59bd9653f200f220920489ca2b5937696c31910160405180910390a3505050565b610aea848484610893565b610af684848484610bd8565b6106ca5760405162461bcd60e51b81526004016104079061130b565b60606000610b1f83610cd9565b600101905060008167ffffffffffffffff811115610b3f57610b3f6110c4565b6040519080825280601f01601f191660200182016040528015610b69576020820181803683370190505b5090508181016020015b600019016f181899199a1a9b1b9c1cb0b131b232b360811b600a86061a8153600a8504945084610b7357509392505050565b610baf8383610db1565b610bbc6000848484610bd8565b6104a85760405162461bcd60e51b81526004016104079061130b565b60006001600160a01b0384163b15610cce57604051630a85bd0160e11b81526001600160a01b0385169063150b7a0290610c1c90339089908890889060040161135d565b6020604051808303816000875af1925050508015610c57575060408051601f3d908101601f19168201909252610c549181019061139a565b60015b610cb4573d808015610c85576040519150601f19603f3d011682016040523d82523d6000602084013e610c8a565b606091505b508051600003610cac5760405162461bcd60e51b81526004016104079061130b565b805181602001fd5b6001600160e01b031916630a85bd0160e11b14905061088b565b506001949350505050565b60008072184f03e93ff9f4daa797ed6e38ed64bf6a1f0160401b8310610d185772184f03e93ff9f4daa797ed6e38ed64bf6a1f0160401b830492506040015b6d04ee2d6d415b85acef81000000008310610d44576d04ee2d6d415b85acef8100000000830492506020015b662386f26fc100008310610d6257662386f26fc10000830492506010015b6305f5e1008310610d7a576305f5e100830492506008015b6127108310610d8e57612710830492506004015b60648310610da0576064830492506002015b600a83106102d45760010192915050565b6001600160a01b038216610e075760405162461bcd60e51b815260206004820181905260248201527f4552433732313a206d696e7420746f20746865207a65726f20616464726573736044820152606401610407565b6000818152600260205260409020546001600160a01b031615610e6c5760405162461bcd60e51b815260206004820152601c60248201527f4552433732313a20746f6b656e20616c7265616479206d696e746564000000006044820152606401610407565b6000818152600260205260409020546001600160a01b031615610ed15760405162461bcd60e51b815260206004820152601c60248201527f4552433732313a20746f6b656e20616c7265616479206d696e746564000000006044820152606401610407565b6001600160a01b038216600081815260036020908152604080832080546001019055848352600290915280822080546001600160a01b0319168417905551839291907fddf252ad1be2c89b69c2b068fc378daa952ba7f163c4a11628f55a4df523b3ef908290a45050565b6001600160e01b0319811681146107a357600080fd5b600060208284031215610f6457600080fd5b813561073d81610f3c565b60005b83811015610f8a578181015183820152602001610f72565b50506000910152565b60008151808452610fab816020860160208601610f6f565b601f01601f19169290920160200192915050565b60208152600061073d6020830184610f93565b600060208284031215610fe457600080fd5b5035919050565b80356001600160a01b038116811461100257600080fd5b919050565b6000806040838503121561101a57600080fd5b61102383610feb565b946020939093013593505050565b60008060006060848603121561104657600080fd5b61104f84610feb565b925061105d60208501610feb565b9150604084013590509250925092565b60006020828403121561107f57600080fd5b61073d82610feb565b6000806040838503121561109b57600080fd5b6110a483610feb565b9150602083013580151581146110b957600080fd5b809150509250929050565b634e487b7160e01b600052604160045260246000fd5b600080600080608085870312156110f057600080fd5b6110f985610feb565b935061110760208601610feb565b925060408501359150606085013567ffffffffffffffff8082111561112b57600080fd5b818701915087601f83011261113f57600080fd5b813581811115611151576111516110c4565b604051601f8201601f19908116603f01168101908382118183101715611179576111796110c4565b816040528281528a602084870101111561119257600080fd5b82602086016020830137600060208483010152809550505050505092959194509250565b600080604083850312156111c957600080fd5b6111d283610feb565b91506111e060208401610feb565b90509250929050565b600181811c908216806111fd57607f821691505b60208210810361121d57634e487b7160e01b600052602260045260246000fd5b50919050565b6020808252602d908201527f4552433732313a2063616c6c6572206973206e6f7420746f6b656e206f776e6560408201526c1c881bdc88185c1c1c9bdd9959609a1b606082015260800190565b60006001820161129057634e487b7160e01b600052601160045260246000fd5b5060010190565b600083516112a9818460208801610f6f565b8351908301906112bd818360208801610f6f565b01949350505050565b60208082526025908201527f4552433732313a207472616e736665722066726f6d20696e636f72726563742060408201526437bbb732b960d91b606082015260800190565b60208082526032908201527f4552433732313a207472616e7366657220746f206e6f6e20455243373231526560408201527131b2b4bb32b91034b6b83632b6b2b73a32b960711b606082015260800190565b6001600160a01b038581168252841660208201526040810183905260806060820181905260009061139090830184610f93565b9695505050505050565b6000602082840312156113ac57600080fd5b815161073d81610f3c56fea2646970667358221220792ef1ef1c0107493a279451758162dfeded32f4d9907d44e49803f6f8ca021264736f6c63430008150033",
    "linkReferences": {}
  },
  "methodIdentifiers": {
    "approve(address,uint256)": "095ea7b3",
    "balanceOf(address)": "70a08231",
    "factory()": "c45a0155",
    "getApproved(uint256)": "081812fc",
    "isApprovedForAll(address,address)": "e985e9c5",
    "mintDBXENFT(address)": "31966948",
    "name()": "06fdde03",
    "ownerOf(uint256)": "6352211e",
    "safeTransferFrom(address,address,uint256)": "42842e0e",
    "safeTransferFrom(address,address,uint256,bytes)": "b88d4fde",
    "setApprovalForAll(address,bool)": "a22cb465",
    "supportsInterface(bytes4)": "01ffc9a7",
    "symbol()": "95d89b41",
    "tokenURI(uint256)": "c87b56dd",
    "transferFrom(address,address,uint256)": "23b872dd"
  },
  "id": 0
}