{
  "abi": [
    {
      "inputs": [
        {
          "internalType": "address",
          "name": "xenCrypto_",
          "type": "address"
        },
        {
          "internalType": "uint256[]",
          "name": "burnRates_",
          "type": "uint256[]"
        },
        {
          "internalType": "uint256[]",
          "name": "tokenLimits_",
          "type": "uint256[]"
        },
        {
          "internalType": "uint256",
          "name": "startBlockNumber_",
          "type": "uint256"
        },
        {
          "internalType": "address",
          "name": "forwarder_",
          "type": "address"
        },
        {
          "internalType": "address",
          "name": "royaltyReceiver_",
          "type": "address"
        }
      ],
      "stateMutability": "nonpayable",
      "type": "constructor"
    },
    {
      "inputs": [
        {
          "internalType": "address",
          "name": "operator",
          "type": "address"
        }
      ],
      "name": "OperatorNotAllowed",
      "type": "error"
    },
    {
      "anonymous": false,
      "inputs": [
        {
          "indexed": true,
          "internalType": "address",
          "name": "owner",
          "type": "address"
        },
        {
          "indexed": true,
          "internalType": "address",
          "name": "approved",
          "type": "address"
        },
        {
          "indexed": true,
          "internalType": "uint256",
          "name": "tokenId",
          "type": "uint256"
        }
      ],
      "name": "Approval",
      "type": "event"
    },
    {
      "anonymous": false,
      "inputs": [
        {
          "indexed": true,
          "internalType": "address",
          "name": "owner",
          "type": "address"
        },
        {
          "indexed": true,
          "internalType": "address",
          "name": "operator",
          "type": "address"
        },
        {
          "indexed": false,
          "internalType": "bool",
          "name": "approved",
          "type": "bool"
        }
      ],
      "name": "ApprovalForAll",
      "type": "event"
    },
    {
      "anonymous": false,
      "inputs": [
        {
          "indexed": true,
          "internalType": "address",
          "name": "user",
          "type": "address"
        },
        {
          "indexed": false,
          "internalType": "uint256",
          "name": "tokenId",
          "type": "uint256"
        },
        {
          "indexed": false,
          "internalType": "address",
          "name": "to",
          "type": "address"
        }
      ],
      "name": "EndTorrent",
      "type": "event"
    },
    {
      "anonymous": false,
      "inputs": [
        {
          "indexed": true,
          "internalType": "address",
          "name": "user",
          "type": "address"
        },
        {
          "indexed": true,
          "internalType": "address",
          "name": "xenContract",
          "type": "address"
        },
        {
          "indexed": true,
          "internalType": "address",
          "name": "tokenContract",
          "type": "address"
        },
        {
          "indexed": false,
          "internalType": "uint256",
          "name": "xenAmount",
          "type": "uint256"
        },
        {
          "indexed": false,
          "internalType": "uint256",
          "name": "tokenAmount",
          "type": "uint256"
        }
      ],
      "name": "Redeemed",
      "type": "event"
    },
    {
      "anonymous": false,
      "inputs": [
        {
          "indexed": true,
          "internalType": "address",
          "name": "user",
          "type": "address"
        },
        {
          "indexed": false,
          "internalType": "uint256",
          "name": "count",
          "type": "uint256"
        },
        {
          "indexed": false,
          "internalType": "uint256",
          "name": "term",
          "type": "uint256"
        }
      ],
      "name": "StartTorrent",
      "type": "event"
    },
    {
      "anonymous": false,
      "inputs": [
        {
          "indexed": true,
          "internalType": "address",
          "name": "from",
          "type": "address"
        },
        {
          "indexed": true,
          "internalType": "address",
          "name": "to",
          "type": "address"
        },
        {
          "indexed": true,
          "internalType": "uint256",
          "name": "tokenId",
          "type": "uint256"
        }
      ],
      "name": "Transfer",
      "type": "event"
    },
    {
      "inputs": [],
      "name": "AUTHORS",
      "outputs": [
        {
          "internalType": "string",
          "name": "",
          "type": "string"
        }
      ],
      "stateMutability": "view",
      "type": "function"
    },
    {
      "inputs": [],
      "name": "BLACKOUT_TERM",
      "outputs": [
        {
          "internalType": "uint256",
          "name": "",
          "type": "uint256"
        }
      ],
      "stateMutability": "view",
      "type": "function"
    },
    {
      "inputs": [],
      "name": "COMMON_CATEGORY_COUNTER",
      "outputs": [
        {
          "internalType": "uint256",
          "name": "",
          "type": "uint256"
        }
      ],
      "stateMutability": "view",
      "type": "function"
    },
    {
      "inputs": [],
      "name": "LIMITED_CATEGORY_TIME_THRESHOLD",
      "outputs": [
        {
          "internalType": "uint256",
          "name": "",
          "type": "uint256"
        }
      ],
      "stateMutability": "view",
      "type": "function"
    },
    {
      "inputs": [],
      "name": "OPERATOR_FILTER_REGISTRY",
      "outputs": [
        {
          "internalType": "contract IOperatorFilterRegistry",
          "name": "",
          "type": "address"
        }
      ],
      "stateMutability": "view",
      "type": "function"
    },
    {
      "inputs": [],
      "name": "POWER_GROUP_SIZE",
      "outputs": [
        {
          "internalType": "uint256",
          "name": "",
          "type": "uint256"
        }
      ],
      "stateMutability": "view",
      "type": "function"
    },
    {
      "inputs": [],
      "name": "ROYALTY_BP",
      "outputs": [
        {
          "internalType": "uint256",
          "name": "",
          "type": "uint256"
        }
      ],
      "stateMutability": "view",
      "type": "function"
    },
    {
      "inputs": [],
      "name": "SPECIAL_CATEGORIES_VMU_THRESHOLD",
      "outputs": [
        {
          "internalType": "uint256",
          "name": "",
          "type": "uint256"
        }
      ],
      "stateMutability": "view",
      "type": "function"
    },
    {
      "inputs": [
        {
          "internalType": "address",
          "name": "trustedForwarder",
          "type": "address"
        }
      ],
      "name": "addForwarder",
      "outputs": [],
      "stateMutability": "nonpayable",
      "type": "function"
    },
    {
      "inputs": [
        {
          "internalType": "address",
          "name": "operator",
          "type": "address"
        },
        {
          "internalType": "uint256",
          "name": "tokenId",
          "type": "uint256"
        }
      ],
      "name": "approve",
      "outputs": [],
      "stateMutability": "nonpayable",
      "type": "function"
    },
    {
      "inputs": [
        {
          "internalType": "address",
          "name": "owner",
          "type": "address"
        }
      ],
      "name": "balanceOf",
      "outputs": [
        {
          "internalType": "uint256",
          "name": "",
          "type": "uint256"
        }
      ],
      "stateMutability": "view",
      "type": "function"
    },
    {
      "inputs": [
        {
          "internalType": "uint256",
          "name": "tokenId",
          "type": "uint256"
        },
        {
          "internalType": "address",
          "name": "to",
          "type": "address"
        }
      ],
      "name": "bulkClaimMintReward",
      "outputs": [],
      "stateMutability": "nonpayable",
      "type": "function"
    },
    {
      "inputs": [
        {
          "internalType": "uint256",
          "name": "count",
          "type": "uint256"
        },
        {
          "internalType": "uint256",
          "name": "term",
          "type": "uint256"
        }
      ],
      "name": "bulkClaimRank",
      "outputs": [
        {
          "internalType": "uint256",
          "name": "tokenId",
          "type": "uint256"
        }
      ],
      "stateMutability": "nonpayable",
      "type": "function"
    },
    {
      "inputs": [
        {
          "internalType": "uint256",
          "name": "count",
          "type": "uint256"
        },
        {
          "internalType": "uint256",
          "name": "term",
          "type": "uint256"
        },
        {
          "internalType": "uint256",
          "name": "burning",
          "type": "uint256"
        }
      ],
      "name": "bulkClaimRankLimited",
      "outputs": [
        {
          "internalType": "uint256",
          "name": "",
          "type": "uint256"
        }
      ],
      "stateMutability": "nonpayable",
      "type": "function"
    },
    {
      "inputs": [
        {
          "internalType": "address",
          "name": "user",
          "type": "address"
        },
        {
          "internalType": "uint256",
          "name": "tokenId",
          "type": "uint256"
        }
      ],
      "name": "burn",
      "outputs": [],
      "stateMutability": "nonpayable",
      "type": "function"
    },
    {
      "inputs": [
        {
          "internalType": "address",
          "name": "to",
          "type": "address"
        }
      ],
      "name": "callClaimMintReward",
      "outputs": [],
      "stateMutability": "nonpayable",
      "type": "function"
    },
    {
      "inputs": [
        {
          "internalType": "uint256",
          "name": "term",
          "type": "uint256"
        }
      ],
      "name": "callClaimRank",
      "outputs": [],
      "stateMutability": "nonpayable",
      "type": "function"
    },
    {
      "inputs": [],
      "name": "genesisTs",
      "outputs": [
        {
          "internalType": "uint256",
          "name": "",
          "type": "uint256"
        }
      ],
      "stateMutability": "view",
      "type": "function"
    },
    {
      "inputs": [
        {
          "internalType": "uint256",
          "name": "tokenId",
          "type": "uint256"
        }
      ],
      "name": "getApproved",
      "outputs": [
        {
          "internalType": "address",
          "name": "",
          "type": "address"
        }
      ],
      "stateMutability": "view",
      "type": "function"
    },
    {
      "inputs": [
        {
          "internalType": "uint256",
          "name": "tokenId",
          "type": "uint256"
        }
      ],
      "name": "isApex",
      "outputs": [
        {
          "internalType": "bool",
          "name": "apex",
          "type": "bool"
        }
      ],
      "stateMutability": "pure",
      "type": "function"
    },
    {
      "inputs": [
        {
          "internalType": "address",
          "name": "owner",
          "type": "address"
        },
        {
          "internalType": "address",
          "name": "operator",
          "type": "address"
        }
      ],
      "name": "isApprovedForAll",
      "outputs": [
        {
          "internalType": "bool",
          "name": "",
          "type": "bool"
        }
      ],
      "stateMutability": "view",
      "type": "function"
    },
    {
      "inputs": [
        {
          "internalType": "address",
          "name": "forwarder",
          "type": "address"
        }
      ],
      "name": "isTrustedForwarder",
      "outputs": [
        {
          "internalType": "bool",
          "name": "",
          "type": "bool"
        }
      ],
      "stateMutability": "view",
      "type": "function"
    },
    {
      "inputs": [
        {
          "internalType": "uint256",
          "name": "",
          "type": "uint256"
        }
      ],
      "name": "mintInfo",
      "outputs": [
        {
          "internalType": "uint256",
          "name": "",
          "type": "uint256"
        }
      ],
      "stateMutability": "view",
      "type": "function"
    },
    {
      "inputs": [],
      "name": "name",
      "outputs": [
        {
          "internalType": "string",
          "name": "",
          "type": "string"
        }
      ],
      "stateMutability": "view",
      "type": "function"
    },
    {
      "inputs": [
        {
          "internalType": "address",
          "name": "user",
          "type": "address"
        },
        {
          "internalType": "uint256",
          "name": "burned",
          "type": "uint256"
        }
      ],
      "name": "onTokenBurned",
      "outputs": [],
      "stateMutability": "nonpayable",
      "type": "function"
    },
    {
      "inputs": [],
      "name": "ownedTokens",
      "outputs": [
        {
          "internalType": "uint256[]",
          "name": "",
          "type": "uint256[]"
        }
      ],
      "stateMutability": "view",
      "type": "function"
    },
    {
      "inputs": [],
      "name": "owner",
      "outputs": [
        {
          "internalType": "address",
          "name": "",
          "type": "address"
        }
      ],
      "stateMutability": "view",
      "type": "function"
    },
    {
      "inputs": [
        {
          "internalType": "uint256",
          "name": "tokenId",
          "type": "uint256"
        }
      ],
      "name": "ownerOf",
      "outputs": [
        {
          "internalType": "address",
          "name": "",
          "type": "address"
        }
      ],
      "stateMutability": "view",
      "type": "function"
    },
    {
      "inputs": [],
      "name": "powerDown",
      "outputs": [],
      "stateMutability": "nonpayable",
      "type": "function"
    },
    {
      "inputs": [
        {
          "internalType": "uint256",
          "name": "",
          "type": "uint256"
        },
        {
          "internalType": "uint256",
          "name": "salePrice",
          "type": "uint256"
        }
      ],
      "name": "royaltyInfo",
      "outputs": [
        {
          "internalType": "address",
          "name": "receiver",
          "type": "address"
        },
        {
          "internalType": "uint256",
          "name": "royaltyAmount",
          "type": "uint256"
        }
      ],
      "stateMutability": "view",
      "type": "function"
    },
    {
      "inputs": [
        {
          "internalType": "address",
          "name": "from",
          "type": "address"
        },
        {
          "internalType": "address",
          "name": "to",
          "type": "address"
        },
        {
          "internalType": "uint256",
          "name": "tokenId",
          "type": "uint256"
        }
      ],
      "name": "safeTransferFrom",
      "outputs": [],
      "stateMutability": "nonpayable",
      "type": "function"
    },
    {
      "inputs": [
        {
          "internalType": "address",
          "name": "from",
          "type": "address"
        },
        {
          "internalType": "address",
          "name": "to",
          "type": "address"
        },
        {
          "internalType": "uint256",
          "name": "tokenId",
          "type": "uint256"
        },
        {
          "internalType": "bytes",
          "name": "data",
          "type": "bytes"
        }
      ],
      "name": "safeTransferFrom",
      "outputs": [],
      "stateMutability": "nonpayable",
      "type": "function"
    },
    {
      "inputs": [
        {
          "internalType": "address",
          "name": "operator",
          "type": "address"
        },
        {
          "internalType": "bool",
          "name": "approved",
          "type": "bool"
        }
      ],
      "name": "setApprovalForAll",
      "outputs": [],
      "stateMutability": "nonpayable",
      "type": "function"
    },
    {
      "inputs": [
        {
          "internalType": "uint256",
          "name": "",
          "type": "uint256"
        }
      ],
      "name": "specialClassesBurnRates",
      "outputs": [
        {
          "internalType": "uint256",
          "name": "",
          "type": "uint256"
        }
      ],
      "stateMutability": "view",
      "type": "function"
    },
    {
      "inputs": [
        {
          "internalType": "uint256",
          "name": "",
          "type": "uint256"
        }
      ],
      "name": "specialClassesCounters",
      "outputs": [
        {
          "internalType": "uint256",
          "name": "",
          "type": "uint256"
        }
      ],
      "stateMutability": "view",
      "type": "function"
    },
    {
      "inputs": [
        {
          "internalType": "uint256",
          "name": "",
          "type": "uint256"
        }
      ],
      "name": "specialClassesTokenLimits",
      "outputs": [
        {
          "internalType": "uint256",
          "name": "",
          "type": "uint256"
        }
      ],
      "stateMutability": "view",
      "type": "function"
    },
    {
      "inputs": [],
      "name": "startBlockNumber",
      "outputs": [
        {
          "internalType": "uint256",
          "name": "",
          "type": "uint256"
        }
      ],
      "stateMutability": "view",
      "type": "function"
    },
    {
      "inputs": [
        {
          "internalType": "bytes4",
          "name": "interfaceId",
          "type": "bytes4"
        }
      ],
      "name": "supportsInterface",
      "outputs": [
        {
          "internalType": "bool",
          "name": "",
          "type": "bool"
        }
      ],
      "stateMutability": "view",
      "type": "function"
    },
    {
      "inputs": [],
      "name": "symbol",
      "outputs": [
        {
          "internalType": "string",
          "name": "",
          "type": "string"
        }
      ],
      "stateMutability": "view",
      "type": "function"
    },
    {
      "inputs": [],
      "name": "tokenIdCounter",
      "outputs": [
        {
          "internalType": "uint256",
          "name": "",
          "type": "uint256"
        }
      ],
      "stateMutability": "view",
      "type": "function"
    },
    {
      "inputs": [
        {
          "internalType": "uint256",
          "name": "tokenId",
          "type": "uint256"
        }
      ],
      "name": "tokenURI",
      "outputs": [
        {
          "internalType": "string",
          "name": "",
          "type": "string"
        }
      ],
      "stateMutability": "view",
      "type": "function"
    },
    {
      "inputs": [
        {
          "internalType": "address",
          "name": "from",
          "type": "address"
        },
        {
          "internalType": "address",
          "name": "to",
          "type": "address"
        },
        {
          "internalType": "uint256",
          "name": "tokenId",
          "type": "uint256"
        }
      ],
      "name": "transferFrom",
      "outputs": [],
      "stateMutability": "nonpayable",
      "type": "function"
    },
    {
      "inputs": [
        {
          "internalType": "uint256",
          "name": "",
          "type": "uint256"
        }
      ],
      "name": "vmuCount",
      "outputs": [
        {
          "internalType": "uint256",
          "name": "",
          "type": "uint256"
        }
      ],
      "stateMutability": "view",
      "type": "function"
    },
    {
      "inputs": [
        {
          "internalType": "uint256",
          "name": "",
          "type": "uint256"
        }
      ],
      "name": "xenBurned",
      "outputs": [
        {
          "internalType": "uint256",
          "name": "",
          "type": "uint256"
        }
      ],
      "stateMutability": "view",
      "type": "function"
    },
    {
      "inputs": [],
      "name": "xenCrypto",
      "outputs": [
        {
          "internalType": "contract XENCrypto",
          "name": "",
          "type": "address"
        }
      ],
      "stateMutability": "view",
      "type": "function"
    }
  ],
  "bytecode": {
    "object": "0x6101406040526127116007553480156200001857600080fd5b50604051620047fc380380620047fc8339810160408190526200003b9162000594565b604080518082018252600b81526a16115388151bdc9c995b9d60aa1b602080830191909152825180840190935260048352631611539560e21b908301529083733cc6cdda760b79bafa08df41ecfa224f810dceb660016daaeb6d7670e522a718067333cd4e3b15620001d65780156200012457604051633e9f1edf60e11b81523060048201526001600160a01b03831660248201526daaeb6d7670e522a718067333cd4e90637d3e3dbe906044015b600060405180830381600087803b1580156200010557600080fd5b505af11580156200011a573d6000803e3d6000fd5b50505050620001d6565b6001600160a01b03821615620001755760405163a0af290360e01b81523060048201526001600160a01b03831660248201526daaeb6d7670e522a718067333cd4e9063a0af290390604401620000ea565b604051632210724360e11b81523060048201526daaeb6d7670e522a718067333cd4e90634420e48690602401600060405180830381600087803b158015620001bc57600080fd5b505af1158015620001d1573d6000803e3d6000fd5b505050505b5050600080546001600160a01b0319166001600160a01b03929092169190911790556001620002068382620006ce565b506002620002158282620006ce565b5050506001600160a01b038616620002625760405162461bcd60e51b815260206004820152600b60248201526a626164206164647265737360a81b60448201526064015b60405180910390fd5b8351855114801562000275575060008551115b620002b55760405162461bcd60e51b815260206004820152600f60248201526e0e0c2e4c2dae640dad2e6dac2e8c6d608b1b604482015260640162000259565b600019600e553060e05233610100526001600160a01b03811615620002db5780620002dd565b335b6001600160a01b039081166101205260c08490524260a052861660805284516200030f90600890602088019062000456565b5083516200032590600990602087019062000456565b5083516001600160401b03811115620003425762000342620004da565b6040519080825280602002602001820160405280156200036c578160200160208202803683370190505b5080516200038391600a9160209091019062000456565b5060025b6008546200039890600190620007b0565b81101562000412576009620003af826001620007cc565b81548110620003c257620003c2620007e2565b90600052602060002001546001620003db9190620007cc565b600a8281548110620003f157620003f1620007e2565b600091825260209091200155806200040981620007f8565b91505062000387565b50600854600190600a9062000429908390620007b0565b815481106200043c576200043c620007e2565b906000526020600020018190555050505050505062000814565b82805482825590600052602060002090810192821562000494579160200282015b828111156200049457825182559160200191906001019062000477565b50620004a2929150620004a6565b5090565b5b80821115620004a25760008155600101620004a7565b80516001600160a01b0381168114620004d557600080fd5b919050565b634e487b7160e01b600052604160045260246000fd5b600082601f8301126200050257600080fd5b815160206001600160401b0380831115620005215762000521620004da565b8260051b604051601f19603f83011681018181108482111715620005495762000549620004da565b6040529384528581018301938381019250878511156200056857600080fd5b83870191505b8482101562000589578151835291830191908301906200056e565b979650505050505050565b60008060008060008060c08789031215620005ae57600080fd5b620005b987620004bd565b60208801519096506001600160401b0380821115620005d757600080fd5b620005e58a838b01620004f0565b96506040890151915080821115620005fc57600080fd5b506200060b89828a01620004f0565b945050606087015192506200062360808801620004bd565b91506200063360a08801620004bd565b90509295509295509295565b600181811c908216806200065457607f821691505b6020821081036200067557634e487b7160e01b600052602260045260246000fd5b50919050565b601f821115620006c957600081815260208120601f850160051c81016020861015620006a45750805b601f850160051c820191505b81811015620006c557828155600101620006b0565b5050505b505050565b81516001600160401b03811115620006ea57620006ea620004da565b6200070281620006fb84546200063f565b846200067b565b602080601f8311600181146200073a5760008415620007215750858301515b600019600386901b1c1916600185901b178555620006c5565b600085815260208120601f198616915b828110156200076b578886015182559484019460019091019084016200074a565b50858210156200078a5787850151600019600388901b60f8161c191681555b5050505050600190811b01905550565b634e487b7160e01b600052601160045260246000fd5b81810381811115620007c657620007c66200079a565b92915050565b80820180821115620007c657620007c66200079a565b634e487b7160e01b600052603260045260246000fd5b6000600182016200080d576200080d6200079a565b5060010190565b60805160a05160c05160e0516101005161012051613f28620008d460003960006109b60152600081816104e8015261108d0152600081816106920152818161123701526118800152600081816103da01528181610a2101528181611289015281816119470152611b2e0152600081816105ee015261237d01526000818161049e0152818161072801528181610bbb01528181610cb701528181610ded01528181610eed015281816116f0015281816119170152612f110152613f286000f3fe608060405234801561001057600080fd5b506004361061027f5760003560e01c806370a082311161015c578063a22cb465116100ce578063df0030ef11610087578063df0030ef146105d6578063e3af6d0a146105e9578063e985e9c514610610578063ecef92011461064c578063ee8743d71461065f578063f5878b9b1461067457600080fd5b8063a22cb46514610562578063b88d4fde14610575578063ba3ec74114610588578063bd33303314610590578063c87b56dd146105b0578063d0d5f5b4146105c357600080fd5b8063928dd2a711610120578063928dd2a71461050c57806395d89b411461051457806398bdf6f51461051c5780639dc29fac14610525578063a126ad1e14610538578063a1a53fa11461054257600080fd5b806370a082311461048657806371141a581461049957806374a1dff2146104c057806389776eb0146104d35780638da5cb5b146104e657600080fd5b806342842e0e116101f5578063543746b1116101b9578063543746b11461041857806355ee08ba1461042b578063572b6c05146104335780635c41d2fe146104555780636352211e14610468578063700107af1461047b57600080fd5b806342842e0e146103a2578063443aa533146103b5578063498a4c2d146103d55780634d4b2be4146103fc57806353b18de41461040557600080fd5b8063095ea7b311610247578063095ea7b31461031757806319cba6b41461032a57806323b872dd1461033f5780632a55205a1461035257806341b169f31461038457806341f434341461038d57600080fd5b806301bb41161461028457806301ffc9a714610299578063044db8ba146102c157806306fdde03146102d7578063081812fc146102ec575b600080fd5b610297610292366004613575565b610687565b005b6102ac6102a73660046135a4565b6107da565b60405190151581526020015b60405180910390f35b6102c960fa81565b6040519081526020016102b8565b6102df61083b565b6040516102b89190613611565b6102ff6102fa366004613575565b6108cd565b6040516001600160a01b0390911681526020016102b8565b610297610325366004613639565b6108f4565b610332610908565b6040516102b89190613665565b61029761034d3660046136a9565b610989565b6103656103603660046136ea565b6109b4565b604080516001600160a01b0390931683526020830191909152016102b8565b6102c9611d4c81565b6102ff6daaeb6d7670e522a718067333cd4e81565b6102976103b03660046136a9565b6109f8565b6102c96103c3366004613575565b600d6020526000908152604090205481565b6102c97f000000000000000000000000000000000000000000000000000000000000000081565b6102c961271181565b6102c961041336600461370c565b610a1d565b610297610426366004613639565b610e8f565b6102c9606381565b6102ac610441366004613738565b6000546001600160a01b0391821691161490565b610297610463366004613738565b611082565b6102ff610476366004613575565b611115565b6102c96301e1338081565b6102c9610494366004613738565b611175565b6102ff7f000000000000000000000000000000000000000000000000000000000000000081565b6102c96104ce366004613575565b6111fb565b6102c96104e1366004613575565b61121c565b7f00000000000000000000000000000000000000000000000000000000000000006102ff565b61029761122c565b6102df611278565b6102c960075481565b610297610533366004613639565b611287565b6102c962093a8081565b6102c9610550366004613575565b600b6020526000908152604090205481565b610297610570366004613763565b61162b565b61029761058336600461380b565b61163f565b6102df61166c565b6102c961059e366004613575565b600c6020526000908152604090205481565b6102df6105be366004613575565b611688565b6102c96105d1366004613575565b611865565b6102976105e4366004613738565b611875565b6102c97f000000000000000000000000000000000000000000000000000000000000000081565b6102ac61061e3660046138ba565b6001600160a01b03918216600090815260066020908152604080832093909416825291909152205460ff1690565b6102c961065a3660046136ea565b611943565b6102ac61066d366004613575565b6127111190565b6102976106823660046138e8565b611b2c565b336001600160a01b037f000000000000000000000000000000000000000000000000000000000000000016146106d85760405162461bcd60e51b81526004016106cf9061390d565b60405180910390fd5b6000816040516024016106ed91815260200190565b60408051601f198184030181529181526020820180516001600160e01b0316639ff054df60e01b179052519091506000906001600160a01b037f00000000000000000000000000000000000000000000000000000000000000001690610754908490613960565b6000604051808303816000865af19150503d8060008114610791576040519150601f19603f3d011682016040523d82523d6000602084013e610796565b606091505b50509050806107d55760405162461bcd60e51b815260206004820152600b60248201526a18d85b1b0819985a5b195960aa1b60448201526064016106cf565b505050565b60006001600160e01b0319821663543746b160e01b148061080b57506001600160e01b0319821663152a902d60e11b145b8061082657506001600160e01b0319821663572b6c0560e01b145b80610835575061083582612024565b92915050565b60606001805461084a9061397c565b80601f01602080910402602001604051908101604052809291908181526020018280546108769061397c565b80156108c35780601f10610898576101008083540402835291602001916108c3565b820191906000526020600020905b8154815290600101906020018083116108a657829003601f168201915b5050505050905090565b60006108d882612074565b506000908152600560205260409020546001600160a01b031690565b816108fe816120d6565b6107d5838361218f565b6060600f60006109166122b1565b6001600160a01b03166001600160a01b031681526020019081526020016000208054806020026020016040519081016040528092919081815260200182805480156108c357602002820191906000526020600020905b81548152602001906001019080831161096c575050505050905090565b826001600160a01b03811633146109a3576109a3336120d6565b6109ae8484846122c0565b50505050565b7f000000000000000000000000000000000000000000000000000000000000000060006127106109e560fa856139cc565b6109ef91906139e3565b90509250929050565b826001600160a01b0381163314610a1257610a12336120d6565b6109ae8484846122f2565b60007f00000000000000000000000000000000000000000000000000000000000000004311610a5e5760405162461bcd60e51b81526004016106cf90613a05565b600019600e5414610ab15760405162461bcd60e51b815260206004820152601a60248201527f58454e46543a207265656e7472616e637920646574656374656400000000000060448201526064016106cf565b60008411610af85760405162461bcd60e51b815260206004820152601460248201527316115391950e88125b1b1959d85b0818dbdd5b9d60621b60448201526064016106cf565b60008311610b3e5760405162461bcd60e51b815260206004820152601360248201527258454e46543a20496c6c6567616c207465726d60681b60448201526064016106cf565b60016008600181548110610b5457610b54613a34565b9060005260206000200154610b699190613a4a565b8211610bb75760405162461bcd60e51b815260206004820152601d60248201527f58454e46543a206e6f7420656e6f756768206275726e20616d6f756e7400000060448201526064016106cf565b60007f00000000000000000000000000000000000000000000000000000000000000006001600160a01b03166370a08231610bf06122b1565b6040516001600160e01b031960e084901b1681526001600160a01b039091166004820152602401602060405180830381865afa158015610c34573d6000803e3d6000fd5b505050506040513d601f19601f82011682018060405250810190610c589190613a5d565b9050610c65600184613a4a565b8111610cb35760405162461bcd60e51b815260206004820152601d60248201527f58454e46543a206e6f7420656e6f7567682058454e2062616c616e636500000060448201526064016106cf565b60007f00000000000000000000000000000000000000000000000000000000000000006001600160a01b031663dd62ed3e610cec6122b1565b6040516001600160e01b031960e084901b1681526001600160a01b039091166004820152306024820152604401602060405180830381865afa158015610d36573d6000803e3d6000fd5b505050506040513d601f19601f82011682018060405250810190610d5a9190613a5d565b9050610d67600185613a4a565b8111610dcd5760405162461bcd60e51b815260206004820152602f60248201527f58454e46543a206e6f7420656e6f7567682058454e2062616c616e636520617060448201526e383937bb32b2103337b910313ab93760891b60648201526084016106cf565b610dd7868561230d565b600e81905550610deb8686600e54876125a7565b7f00000000000000000000000000000000000000000000000000000000000000006001600160a01b0316639dc29fac610e226122b1565b6040516001600160e01b031960e084901b1681526001600160a01b03909116600482015260248101879052604401600060405180830381600087803b158015610e6a57600080fd5b505af1158015610e7e573d6000803e3d6000fd5b5050600e5498975050505050505050565b600019600e5403610ee25760405162461bcd60e51b815260206004820152601d60248201527f58454e46543a20696c6c6567616c2063616c6c6261636b20737461746500000060448201526064016106cf565b336001600160a01b037f00000000000000000000000000000000000000000000000000000000000000001614610f5a5760405162461bcd60e51b815260206004820152601e60248201527f58454e46543a20696c6c6567616c2063616c6c6261636b2063616c6c6572000060448201526064016106cf565b600e546001600160a01b0383166000908152600f60205260409020610f7e9161273f565b600e80546000908152600c6020526040902082905554610f9f9083906127b9565b600e546000908152600b6020908152604080832054600d9092529182902054915163346ba94160e01b815260048101929092526001600160a01b038416917ffbb2077593b3594fd0ac359a2d898268191a74843aaf1ba3f517b5514a1b0711919073__$15046a4eb87352c1cd8587f1d1a014d95c$__9063346ba94190602401602060405180830381865af415801561103c573d6000803e3d6000fd5b505050506040513d601f19601f820116820180604052508101906110609190613a5d565b6040805192835260208301919091520160405180910390a25050600019600e55565b336001600160a01b037f000000000000000000000000000000000000000000000000000000000000000016146110f35760405162461bcd60e51b81526020600482015260166024820152752c22a7232a1d103737ba1030b7103232b83637bcb2b960511b60448201526064016106cf565b600080546001600160a01b0319166001600160a01b0392909216919091179055565b6000818152600360205260408120546001600160a01b0316806108355760405162461bcd60e51b8152602060048201526018602482015277115490cdcc8c4e881a5b9d985b1a59081d1bdad95b88125160421b60448201526064016106cf565b60006001600160a01b0382166111df5760405162461bcd60e51b815260206004820152602960248201527f4552433732313a2061646472657373207a65726f206973206e6f7420612076616044820152683634b21037bbb732b960b91b60648201526084016106cf565b506001600160a01b031660009081526004602052604090205490565b6009818154811061120b57600080fd5b600091825260209091200154905081565b600a818154811061120b57600080fd5b336001600160a01b037f000000000000000000000000000000000000000000000000000000000000000016146112745760405162461bcd60e51b81526004016106cf9061390d565b6000ff5b60606002805461084a9061397c565b7f000000000000000000000000000000000000000000000000000000000000000043116112c65760405162461bcd60e51b81526004016106cf90613a05565b600019600e54146113195760405162461bcd60e51b815260206004820152601a60248201527f58454e46543a205265656e7472616e637920646574656374656400000000000060448201526064016106cf565b6113266001600019613a4a565b600e556113316122b1565b6040516301ffc9a760e01b815263543746b160e01b60048201526001600160a01b0391909116906301ffc9a790602401602060405180830381865afa15801561137e573d6000803e3d6000fd5b505050506040513d601f19601f820116820180604052508101906113a29190613a76565b6113fa5760405162461bcd60e51b8152602060048201526024808201527f58454e4654206275726e3a206e6f74206120737570706f7274656420636f6e746044820152631c9858dd60e21b60648201526084016106cf565b6001600160a01b03821661145a5760405162461bcd60e51b815260206004820152602160248201527f58454e4654206275726e3a20696c6c6567616c206f776e6572206164647265736044820152607360f81b60648201526084016106cf565b600081116114aa5760405162461bcd60e51b815260206004820152601b60248201527f58454e4654206275726e3a20696c6c6567616c20746f6b656e4964000000000060448201526064016106cf565b6114bb6114b56122b1565b826127d3565b6115135760405162461bcd60e51b8152602060048201526024808201527f58454e4654206275726e3a206e6f7420616e20617070726f766564206f70657260448201526330ba37b960e11b60648201526084016106cf565b816001600160a01b031661152682611115565b6001600160a01b03161461158a5760405162461bcd60e51b815260206004820152602560248201527f58454e4654206275726e3a2075736572206973206e6f7420746f6b656e49642060448201526437bbb732b960d91b60648201526084016106cf565b6001600160a01b0382166000908152600f602052604090206115ac9082612852565b6115b581612937565b6115bd6122b1565b60405163543746b160e01b81526001600160a01b03848116600483015260248201849052919091169063543746b190604401600060405180830381600087803b15801561160957600080fd5b505af115801561161d573d6000803e3d6000fd5b5050600019600e5550505050565b81611635816120d6565b6107d583836129cc565b836001600160a01b038116331461165957611659336120d6565b611665858585856129de565b5050505050565b604051806060016040528060258152602001613ece6025913981565b6000818152600b6020908152604080832054600d835281842054600c9093529220546060929190826116b957600080fd5b60006116c486612a17565b604051631b9345fd60e01b81526004810188905260248101869052604481018590526001600160a01b037f0000000000000000000000000000000000000000000000000000000000000000166064820152608481018490526117899073__$c6e02c7a8a071a275aad049ba71735b905$__90631b9345fd9060a401600060405180830381865af415801561175c573d6000803e3d6000fd5b505050506040513d6000823e601f3d908101601f191682016040526117849190810190613a93565b612aaa565b604051633c4a25e960e21b815260048101879052602481018590526044810186905273__$c6e02c7a8a071a275aad049ba71735b905$__9063f12897a490606401600060405180830381865af41580156117e7573d6000803e3d6000fd5b505050506040513d6000823e601f3d908101601f1916820160405261180f9190810190613a93565b60405160200161182193929190613b0a565b604051602081830303815290604052905061183b81612aaa565b60405160200161184b9190613c2b565b604051602081830303815290604052945050505050919050565b6008818154811061120b57600080fd5b336001600160a01b037f000000000000000000000000000000000000000000000000000000000000000016146118bd5760405162461bcd60e51b81526004016106cf9061390d565b6040516001600160a01b03821660248201526064604482018190526000910160408051601f198184030181529181526020820180516001600160e01b0316631c56030560e01b179052519091506000906001600160a01b037f00000000000000000000000000000000000000000000000000000000000000001690610754908490613960565b60007f000000000000000000000000000000000000000000000000000000000000000043116119845760405162461bcd60e51b81526004016106cf90613a05565b600019600e54146119d75760405162461bcd60e51b815260206004820152601a60248201527f58454e46543a207265656e7472616e637920646574656374656400000000000060448201526064016106cf565b60008311611a1e5760405162461bcd60e51b815260206004820152601460248201527316115391950e88125b1b1959d85b0818dbdd5b9d60621b60448201526064016106cf565b60008211611a645760405162461bcd60e51b815260206004820152601360248201527258454e46543a20496c6c6567616c207465726d60681b60448201526064016106cf565b611a6f83600061230d565b600e81905550611a848383600e5460006125a7565b611ab5600e54600f6000611a966122b1565b6001600160a01b0316815260208101919091526040016000209061273f565b611ac8611ac06122b1565b600e546127b9565b611ad06122b1565b6001600160a01b03167ffbb2077593b3594fd0ac359a2d898268191a74843aaf1ba3f517b5514a1b07118484604051611b13929190918252602082015260400190565b60405180910390a25050600e8054600019909155919050565b7f00000000000000000000000000000000000000000000000000000000000000004311611b6b5760405162461bcd60e51b81526004016106cf90613a05565b600019600e5414611bbe5760405162461bcd60e51b815260206004820152601a60248201527f58454e46543a205265656e7472616e637920646574656374656400000000000060448201526064016106cf565b611bcb6001600019613a4a565b600e55611bd66122b1565b6001600160a01b0316611be883611115565b6001600160a01b031614611c375760405162461bcd60e51b81526020600482015260166024820152752c22a7232a1d1024b731b7b93932b1ba1037bbb732b960511b60448201526064016106cf565b6001600160a01b038116611c865760405162461bcd60e51b815260206004820152601660248201527558454e46543a20496c6c6567616c206164647265737360501b60448201526064016106cf565b6000828152600d60205260409081902054905163e90cdc8960e01b8152600481019190915273__$15046a4eb87352c1cd8587f1d1a014d95c$__9063e90cdc8990602401602060405180830381865af4158015611ce7573d6000803e3d6000fd5b505050506040513d601f19601f82011682018060405250810190611d0b9190613a76565b15611d585760405162461bcd60e51b815260206004820152601760248201527f58454e46543a20416c72656164792072656465656d656400000000000000000060448201526064016106cf565b604051600090611d9c90733d602d80600a3d3981f3363d3d373d3d3d363d7360601b903060601b906e5af43d82803e903d91602b57fd5bf360881b90602001613c70565b60408051601f198184030181529181526000858152600b6020529081205491925090611dc9906001613cad565b6040516001600160a01b038516602482015290915060009060440160408051601f19818403018152918152602080830180516001600160e01b0390811663df0030ef60e01b1790915282516004815260248101909352908201805190911663928dd2a760e01b17905290915060015b83811015611fa4576040805160208082018490528183018a90528251808303840181526060808401855281519183019190912089518a8401206001600160f81b031960808601523090921b6bffffffffffffffffffffffff191660818501526095840181905260b5808501929092528451808503909201825260d5909301909352825192810192909220855191926000928291849182918a0182855af1925082611f305760405162461bcd60e51b815260206004820152602360248201527f58454e46543a204572726f72207768696c6520636c61696d696e67207265776160448201526272647360e81b60648201526084016106cf565b6000808751602089016000855af1925082611f8d5760405162461bcd60e51b815260206004820181905260248201527f58454e46543a204572726f72207768696c6520706f776572696e6720646f776e60448201526064016106cf565b505050508080611f9c90613cc0565b915050611e38565b506000868152600d6020526040902080546001179055611fc26122b1565b6001600160a01b03167f7ae39cb5fb0bebb7775f35a0009e0c94f59c2e40c8967af20842619edac4694d878760405161200e9291909182526001600160a01b0316602082015260400190565b60405180910390a25050600019600e5550505050565b60006001600160e01b031982166380ac58cd60e01b148061205557506001600160e01b03198216635b5e139f60e01b145b8061083557506301ffc9a760e01b6001600160e01b0319831614610835565b6000818152600360205260409020546001600160a01b03166120d35760405162461bcd60e51b8152602060048201526018602482015277115490cdcc8c4e881a5b9d985b1a59081d1bdad95b88125160421b60448201526064016106cf565b50565b6daaeb6d7670e522a718067333cd4e3b156120d357604051633185c44d60e21b81523060048201526001600160a01b03821660248201526daaeb6d7670e522a718067333cd4e9063c617113490604401602060405180830381865afa158015612143573d6000803e3d6000fd5b505050506040513d601f19601f820116820180604052508101906121679190613a76565b6120d357604051633b79c77360e21b81526001600160a01b03821660048201526024016106cf565b600061219a82611115565b9050806001600160a01b0316836001600160a01b0316036122075760405162461bcd60e51b815260206004820152602160248201527f4552433732313a20617070726f76616c20746f2063757272656e74206f776e656044820152603960f91b60648201526084016106cf565b806001600160a01b03166122196122b1565b6001600160a01b0316148061223557506122358161061e6122b1565b6122a75760405162461bcd60e51b815260206004820152603d60248201527f4552433732313a20617070726f76652063616c6c6572206973206e6f7420746f60448201527f6b656e206f776e6572206f7220617070726f76656420666f7220616c6c00000060648201526084016106cf565b6107d58383612bfd565b60006122bb612c6b565b905090565b6122cb6114b56122b1565b6122e75760405162461bcd60e51b81526004016106cf90613cd9565b6107d5838383612c90565b6107d58383836040518060200160405280600081525061163f565b60008061231983612df4565b90508060010361240b57606384116123735760405162461bcd60e51b815260206004820152601a60248201527f58454e46543a20756e6465722072657120564d5520636f756e7400000000000060448201526064016106cf565b6123a16301e133807f0000000000000000000000000000000000000000000000000000000000000000613cad565b42106123ef5760405162461bcd60e51b815260206004820152601b60248201527f58454e46543a206c696d697465642074696d652065787069726564000000000060448201526064016106cf565b600780549060006123ff83613cc0565b91905055915050610835565b600181111561258b573261241d6122b1565b6001600160a01b0316146124855760405162461bcd60e51b815260206004820152602960248201527f58454e46543a206f6e6c7920454f4120616c6c6f77656420666f7220746869736044820152682063617465676f727960b81b60648201526084016106cf565b606384116124d55760405162461bcd60e51b815260206004820152601a60248201527f58454e46543a20756e6465722072657120564d5520636f756e7400000000000060448201526064016106cf565b600981815481106124e8576124e8613a34565b906000526020600020015460016124ff9190613cad565b600a828154811061251257612512613a34565b9060005260206000200154106125625760405162461bcd60e51b815260206004820152601560248201527416115391950e8818db185cdcc81cdbdb19081bdd5d605a1b60448201526064016106cf565b600a818154811061257557612575613a34565b600091825260208220018054916123ff83613cc0565b6007805490600061259b83613cc0565b90915550949350505050565b6040516000906125eb90733d602d80600a3d3981f3363d3d373d3d3d363d7360601b903060601b906e5af43d82803e903d91602b57fd5bf360881b90602001613c70565b604051602081830303815290604052905060008460405160240161261191815260200190565b60408051601f198184030181529190526020810180516001600160e01b031662dda08b60e11b179052905060008060015b61264d896001613cad565b811015612724576040805160208101839052908101889052600090606001604051602081830303815290604052805190602001209050808651602088016000f593506000808651602088016000885af19250826126ec5760405162461bcd60e51b815260206004820181905260248201527f58454e46543a204572726f72207768696c6520636c61696d696e672072616e6b60448201526064016106cf565b8160010361271157612701848b8b8a8c612e91565b6000898152600d60205260409020555b508061271c81613cc0565b915050612642565b50505060009384525050600b60205250604090209190915550565b6127988280548060200260200160405190810160405280929190818152602001828054801561278d57602002820191906000526020600020905b815481526020019060010190808311612779575b505050505082613048565b6000036127b5578154600181018355600083815260209020018190555b5050565b6127b5828260405180602001604052806000815250613090565b6000806127df83611115565b9050806001600160a01b0316846001600160a01b0316148061282657506001600160a01b0380821660009081526006602090815260408083209388168352929052205460ff165b8061284a5750836001600160a01b031661283f846108cd565b6001600160a01b0316145b949350505050565b60006128ad838054806020026020016040519081016040528092919081815260200182805480156128a257602002820191906000526020600020905b81548152602001906001019080831161288e575b505050505083613048565b905080156107d557825483906128c590600190613a4a565b815481106128d5576128d5613a34565b9060005260206000200154836001836128ee9190613a4a565b815481106128fe576128fe613a34565b90600052602060002001819055508280548061291c5761291c613d26565b60019003818190600052602060002001600090559055505050565b600061294282611115565b905061294d82611115565b600083815260056020908152604080832080546001600160a01b03199081169091556001600160a01b0385168085526004845282852080546000190190558785526003909352818420805490911690555192935084927fddf252ad1be2c89b69c2b068fc378daa952ba7f163c4a11628f55a4df523b3ef908390a45050565b6127b56129d76122b1565b83836130c3565b6129ef6129e96122b1565b836127d3565b612a0b5760405162461bcd60e51b81526004016106cf90613cd9565b6109ae84848484613191565b60606000612a24836131c4565b600101905060008167ffffffffffffffff811115612a4457612a4461379c565b6040519080825280601f01601f191660200182016040528015612a6e576020820181803683370190505b5090508181016020015b600019016f181899199a1a9b1b9c1cb0b131b232b360811b600a86061a8153600a8504945084612a7857509392505050565b60608151600003612ac957505060408051602081019091526000815290565b6000604051806060016040528060408152602001613e8e6040913990506000600384516002612af89190613cad565b612b0291906139e3565b612b0d9060046139cc565b67ffffffffffffffff811115612b2557612b2561379c565b6040519080825280601f01601f191660200182016040528015612b4f576020820181803683370190505b509050600182016020820185865187015b80821015612bbb576003820191508151603f8160121c168501518453600184019350603f81600c1c168501518453600184019350603f8160061c168501518453600184019350603f8116850151845350600183019250612b60565b5050600386510660018114612bd75760028114612bea57612bf2565b603d6001830353603d6002830353612bf2565b603d60018303535b509195945050505050565b600081815260056020526040902080546001600160a01b0319166001600160a01b0384169081179091558190612c3282611115565b6001600160a01b03167f8c5be1e5ebec7d5bd14f71427d1e84f3dd0314c0f7b2291e5b200ac8c7c3b92560405160405180910390a45050565b600080546001600160a01b03163303612c8b575060131936013560601c90565b503390565b826001600160a01b0316612ca382611115565b6001600160a01b031614612cc95760405162461bcd60e51b81526004016106cf90613d3c565b6001600160a01b038216612d2b5760405162461bcd60e51b8152602060048201526024808201527f4552433732313a207472616e7366657220746f20746865207a65726f206164646044820152637265737360e01b60648201526084016106cf565b826001600160a01b0316612d3e82611115565b6001600160a01b031614612d645760405162461bcd60e51b81526004016106cf90613d3c565b600081815260056020908152604080832080546001600160a01b03199081169091556001600160a01b0387811680865260048552838620805460001901905590871680865283862080546001019055868652600390945282852080549092168417909155905184937fddf252ad1be2c89b69c2b068fc378daa952ba7f163c4a11628f55a4df523b3ef91a4505050565b6008546000908190612e0890600190613a4a565b90505b8015612e885760088181548110612e2457612e24613a34565b9060005260206000200154600003612e3f5750600092915050565b600160088281548110612e5457612e54613a34565b9060005260206000200154612e699190613a4a565b831115612e765792915050565b80612e8081613d81565b915050612e0b565b50600092915050565b600080612e9f836127111190565b90506000612ead878761329c565b90508115612ed257612ebe85612df4565b612ec9906007613cad565b60801760ff1690505b600085118015612ee0575081155b15612ee9575060485b60405163df28233160e01b81526001600160a01b0389811660048301526000918291829182917f0000000000000000000000000000000000000000000000000000000000000000169063df2823319060240160c060405180830381865afa158015612f58573d6000803e3d6000fd5b505050506040513d601f19601f82011682018060405250810190612f7c9190613d98565b9550955095509550505073__$15046a4eb87352c1cd8587f1d1a014d95c$__63906029d98b868686868b60006040518863ffffffff1660e01b8152600401612ff79796959493929190968752602087019590955260408601939093526060850191909152608084015260a0830152151560c082015260e00190565b602060405180830381865af4158015613014573d6000803e3d6000fd5b505050506040513d601f19601f820116820180604052508101906130389190613a5d565b9c9b505050505050505050505050565b60015b82518111612e88578183613060600184613a4a565b8151811061307057613070613a34565b60200260200101510315610835578061308881613cc0565b91505061304b565b61309a83836132c9565b6130a76000848484613454565b6107d55760405162461bcd60e51b81526004016106cf90613deb565b816001600160a01b0316836001600160a01b0316036131245760405162461bcd60e51b815260206004820152601960248201527f4552433732313a20617070726f766520746f2063616c6c65720000000000000060448201526064016106cf565b6001600160a01b03838116600081815260066020908152604080832094871680845294825291829020805460ff191686151590811790915591519182527f17307eab39ab6107e8899845ad3d59bd9653f200f220920489ca2b5937696c31910160405180910390a3505050565b61319c848484612c90565b6131a884848484613454565b6109ae5760405162461bcd60e51b81526004016106cf90613deb565b60008072184f03e93ff9f4daa797ed6e38ed64bf6a1f0160401b83106132035772184f03e93ff9f4daa797ed6e38ed64bf6a1f0160401b830492506040015b6d04ee2d6d415b85acef8100000000831061322f576d04ee2d6d415b85acef8100000000830492506020015b662386f26fc10000831061324d57662386f26fc10000830492506010015b6305f5e1008310613265576305f5e100830492506008015b612710831061327957612710830492506004015b6064831061328b576064830492506002015b600a83106108355760010192915050565b600060076132aa848461355c565b11156132b857506007610835565b6132c2838361355c565b9392505050565b6001600160a01b03821661331f5760405162461bcd60e51b815260206004820181905260248201527f4552433732313a206d696e7420746f20746865207a65726f206164647265737360448201526064016106cf565b6000818152600360205260409020546001600160a01b0316156133845760405162461bcd60e51b815260206004820152601c60248201527f4552433732313a20746f6b656e20616c7265616479206d696e7465640000000060448201526064016106cf565b6000818152600360205260409020546001600160a01b0316156133e95760405162461bcd60e51b815260206004820152601c60248201527f4552433732313a20746f6b656e20616c7265616479206d696e7465640000000060448201526064016106cf565b6001600160a01b038216600081815260046020908152604080832080546001019055848352600390915280822080546001600160a01b0319168417905551839291907fddf252ad1be2c89b69c2b068fc378daa952ba7f163c4a11628f55a4df523b3ef908290a45050565b60006001600160a01b0384163b1561355157836001600160a01b031663150b7a0261347d6122b1565b8786866040518563ffffffff1660e01b815260040161349f9493929190613e3d565b6020604051808303816000875af19250505080156134da575060408051601f3d908101601f191682019092526134d791810190613e70565b60015b613537573d808015613508576040519150601f19603f3d011682016040523d82523d6000602084013e61350d565b606091505b50805160000361352f5760405162461bcd60e51b81526004016106cf90613deb565b805181602001fd5b6001600160e01b031916630a85bd0160e11b14905061284a565b506001949350505050565b6000611d4c61356b83856139cc565b6132c291906139e3565b60006020828403121561358757600080fd5b5035919050565b6001600160e01b0319811681146120d357600080fd5b6000602082840312156135b657600080fd5b81356132c28161358e565b60005b838110156135dc5781810151838201526020016135c4565b50506000910152565b600081518084526135fd8160208601602086016135c1565b601f01601f19169290920160200192915050565b6020815260006132c260208301846135e5565b6001600160a01b03811681146120d357600080fd5b6000806040838503121561364c57600080fd5b823561365781613624565b946020939093013593505050565b6020808252825182820181905260009190848201906040850190845b8181101561369d57835183529284019291840191600101613681565b50909695505050505050565b6000806000606084860312156136be57600080fd5b83356136c981613624565b925060208401356136d981613624565b929592945050506040919091013590565b600080604083850312156136fd57600080fd5b50508035926020909101359150565b60008060006060848603121561372157600080fd5b505081359360208301359350604090920135919050565b60006020828403121561374a57600080fd5b81356132c281613624565b80151581146120d357600080fd5b6000806040838503121561377657600080fd5b823561378181613624565b9150602083013561379181613755565b809150509250929050565b634e487b7160e01b600052604160045260246000fd5b604051601f8201601f1916810167ffffffffffffffff811182821017156137db576137db61379c565b604052919050565b600067ffffffffffffffff8211156137fd576137fd61379c565b50601f01601f191660200190565b6000806000806080858703121561382157600080fd5b843561382c81613624565b9350602085013561383c81613624565b925060408501359150606085013567ffffffffffffffff81111561385f57600080fd5b8501601f8101871361387057600080fd5b803561388361387e826137e3565b6137b2565b81815288602083850101111561389857600080fd5b8160208401602083013760006020838301015280935050505092959194509250565b600080604083850312156138cd57600080fd5b82356138d881613624565b9150602083013561379181613624565b600080604083850312156138fb57600080fd5b82359150602083013561379181613624565b60208082526017908201527f58454e2050726f78793a20756e617574686f72697a6564000000000000000000604082015260600190565b600081516139568185602086016135c1565b9290920192915050565b600082516139728184602087016135c1565b9190910192915050565b600181811c9082168061399057607f821691505b6020821081036139b057634e487b7160e01b600052602260045260246000fd5b50919050565b634e487b7160e01b600052601160045260246000fd5b8082028115828204841417610835576108356139b6565b600082613a0057634e487b7160e01b600052601260045260246000fd5b500490565b60208082526015908201527416115391950e88139bdd081858dd1a5d99481e595d605a1b604082015260600190565b634e487b7160e01b600052603260045260246000fd5b81810381811115610835576108356139b6565b600060208284031215613a6f57600080fd5b5051919050565b600060208284031215613a8857600080fd5b81516132c281613755565b600060208284031215613aa557600080fd5b815167ffffffffffffffff811115613abc57600080fd5b8201601f81018413613acd57600080fd5b8051613adb61387e826137e3565b818152856020838501011115613af057600080fd5b613b018260208301602086016135c1565b95945050505050565b607b60f81b815275226e616d65223a202258454e20546f7272656e74202360501b60018201528351600090613b468160178501602089016135c1565b61088b60f21b60179184019182018190527f226465736372697074696f6e223a202258454e46543a2058454e2043727970746019830152721bc8135a5b9d1a5b99c8151bdc9c995b9d088b606a1b6039830152691134b6b0b3b2911d101160b11b604c8301527f646174613a696d6167652f7376672b786d6c3b6261736536342c00000000000060568301528551613be5816070850160208a016135c1565b60709201918201526d01130ba3a3934b13aba32b9911d160951b6072820152613c21613c146080830186613944565b607d60f81b815260010190565b9695505050505050565b7f646174613a6170706c69636174696f6e2f6a736f6e3b6261736536342c000000815260008251613c6381601d8501602087016135c1565b91909101601d0192915050565b6bffffffffffffffffffffffff19938416815291909216601482015270ffffffffffffffffffffffffffffffffff19909116602882015260370190565b80820180821115610835576108356139b6565b600060018201613cd257613cd26139b6565b5060010190565b6020808252602d908201527f4552433732313a2063616c6c6572206973206e6f7420746f6b656e206f776e6560408201526c1c881bdc88185c1c1c9bdd9959609a1b606082015260800190565b634e487b7160e01b600052603160045260246000fd5b60208082526025908201527f4552433732313a207472616e736665722066726f6d20696e636f72726563742060408201526437bbb732b960d91b606082015260800190565b600081613d9057613d906139b6565b506000190190565b60008060008060008060c08789031215613db157600080fd5b8651613dbc81613624565b6020880151604089015160608a015160808b015160a0909b0151939c929b509099909850965090945092505050565b60208082526032908201527f4552433732313a207472616e7366657220746f206e6f6e20455243373231526560408201527131b2b4bb32b91034b6b83632b6b2b73a32b960711b606082015260800190565b6001600160a01b0385811682528416602082015260408101839052608060608201819052600090613c21908301846135e5565b600060208284031215613e8257600080fd5b81516132c28161358e56fe4142434445464748494a4b4c4d4e4f505152535455565758595a6162636465666768696a6b6c6d6e6f707172737475767778797a303132333435363738392b2f404d724a61636b4c6576696e20406c62656c79616576206661697263727970746f2e6f7267a2646970667358221220bf5a6c622a7ccb2c29af0315816a92e4f559b2d7ab71a726315653e92b725a5664736f6c63430008150033",
    "linkReferences": {
      "contracts/libs/Metadata.sol": {
        "Metadata": [
          {
            "start": 8182,
            "length": 20
          },
          {
            "start": 8321,
            "length": 20
          }
        ]
      },
      "contracts/libs/MintInfo.sol": {
        "MintInfo": [
          {
            "start": 6358,
            "length": 20
          },
          {
            "start": 9601,
            "length": 20
          },
          {
            "start": 14428,
            "length": 20
          }
        ]
      }
    }
  },
  "methodIdentifiers": {
    "AUTHORS()": "ba3ec741",
    "BLACKOUT_TERM()": "a126ad1e",
    "COMMON_CATEGORY_COUNTER()": "4d4b2be4",
    "LIMITED_CATEGORY_TIME_THRESHOLD()": "700107af",
    "OPERATOR_FILTER_REGISTRY()": "41f43434",
    "POWER_GROUP_SIZE()": "41b169f3",
    "ROYALTY_BP()": "044db8ba",
    "SPECIAL_CATEGORIES_VMU_THRESHOLD()": "55ee08ba",
    "addForwarder(address)": "5c41d2fe",
    "approve(address,uint256)": "095ea7b3",
    "balanceOf(address)": "70a08231",
    "bulkClaimMintReward(uint256,address)": "f5878b9b",
    "bulkClaimRank(uint256,uint256)": "ecef9201",
    "bulkClaimRankLimited(uint256,uint256,uint256)": "53b18de4",
    "burn(address,uint256)": "9dc29fac",
    "callClaimMintReward(address)": "df0030ef",
    "callClaimRank(uint256)": "01bb4116",
    "genesisTs()": "e3af6d0a",
    "getApproved(uint256)": "081812fc",
    "isApex(uint256)": "ee8743d7",
    "isApprovedForAll(address,address)": "e985e9c5",
    "isTrustedForwarder(address)": "572b6c05",
    "mintInfo(uint256)": "443aa533",
    "name()": "06fdde03",
    "onTokenBurned(address,uint256)": "543746b1",
    "ownedTokens()": "19cba6b4",
    "owner()": "8da5cb5b",
    "ownerOf(uint256)": "6352211e",
    "powerDown()": "928dd2a7",
    "royaltyInfo(uint256,uint256)": "2a55205a",
    "safeTransferFrom(address,address,uint256)": "42842e0e",
    "safeTransferFrom(address,address,uint256,bytes)": "b88d4fde",
    "setApprovalForAll(address,bool)": "a22cb465",
    "specialClassesBurnRates(uint256)": "d0d5f5b4",
    "specialClassesCounters(uint256)": "89776eb0",
    "specialClassesTokenLimits(uint256)": "74a1dff2",
    "startBlockNumber()": "498a4c2d",
    "supportsInterface(bytes4)": "01ffc9a7",
    "symbol()": "95d89b41",
    "tokenIdCounter()": "98bdf6f5",
    "tokenURI(uint256)": "c87b56dd",
    "transferFrom(address,address,uint256)": "23b872dd",
    "vmuCount(uint256)": "a1a53fa1",
    "xenBurned(uint256)": "bd333033",
    "xenCrypto()": "71141a58"
  },
  "id": 5
}