{
  "abi": [
    {
      "inputs": [],
      "stateMutability": "nonpayable",
      "type": "constructor"
    },
    {
      "inputs": [],
      "name": "InvalidShortString",
      "type": "error"
    },
    {
      "inputs": [
        {
          "internalType": "string",
          "name": "str",
          "type": "string"
        }
      ],
      "name": "StringTooLong",
      "type": "error"
    },
    {
      "anonymous": false,
      "inputs": [
        {
          "indexed": true,
          "internalType": "address",
          "name": "owner",
          "type": "address"
        },
        {
          "indexed": true,
          "internalType": "address",
          "name": "spender",
          "type": "address"
        },
        {
          "indexed": false,
          "internalType": "uint256",
          "name": "value",
          "type": "uint256"
        }
      ],
      "name": "Approval",
      "type": "event"
    },
    {
      "anonymous": false,
      "inputs": [],
      "name": "EIP712DomainChanged",
      "type": "event"
    },
    {
      "anonymous": false,
      "inputs": [
        {
          "indexed": true,
          "internalType": "address",
          "name": "from",
          "type": "address"
        },
        {
          "indexed": true,
          "internalType": "address",
          "name": "to",
          "type": "address"
        },
        {
          "indexed": false,
          "internalType": "uint256",
          "name": "value",
          "type": "uint256"
        }
      ],
      "name": "Transfer",
      "type": "event"
    },
    {
      "inputs": [],
      "name": "DOMAIN_SEPARATOR",
      "outputs": [
        {
          "internalType": "bytes32",
          "name": "",
          "type": "bytes32"
        }
      ],
      "stateMutability": "view",
      "type": "function"
    },
    {
      "inputs": [
        {
          "internalType": "address",
          "name": "owner",
          "type": "address"
        },
        {
          "internalType": "address",
          "name": "spender",
          "type": "address"
        }
      ],
      "name": "allowance",
      "outputs": [
        {
          "internalType": "uint256",
          "name": "",
          "type": "uint256"
        }
      ],
      "stateMutability": "view",
      "type": "function"
    },
    {
      "inputs": [
        {
          "internalType": "address",
          "name": "spender",
          "type": "address"
        },
        {
          "internalType": "uint256",
          "name": "amount",
          "type": "uint256"
        }
      ],
      "name": "approve",
      "outputs": [
        {
          "internalType": "bool",
          "name": "",
          "type": "bool"
        }
      ],
      "stateMutability": "nonpayable",
      "type": "function"
    },
    {
      "inputs": [
        {
          "internalType": "address",
          "name": "account",
          "type": "address"
        }
      ],
      "name": "balanceOf",
      "outputs": [
        {
          "internalType": "uint256",
          "name": "",
          "type": "uint256"
        }
      ],
      "stateMutability": "view",
      "type": "function"
    },
    {
      "inputs": [],
      "name": "decimals",
      "outputs": [
        {
          "internalType": "uint8",
          "name": "",
          "type": "uint8"
        }
      ],
      "stateMutability": "view",
      "type": "function"
    },
    {
      "inputs": [
        {
          "internalType": "address",
          "name": "spender",
          "type": "address"
        },
        {
          "internalType": "uint256",
          "name": "subtractedValue",
          "type": "uint256"
        }
      ],
      "name": "decreaseAllowance",
      "outputs": [
        {
          "internalType": "bool",
          "name": "",
          "type": "bool"
        }
      ],
      "stateMutability": "nonpayable",
      "type": "function"
    },
    {
      "inputs": [],
      "name": "eip712Domain",
      "outputs": [
        {
          "internalType": "bytes1",
          "name": "fields",
          "type": "bytes1"
        },
        {
          "internalType": "string",
          "name": "name",
          "type": "string"
        },
        {
          "internalType": "string",
          "name": "version",
          "type": "string"
        },
        {
          "internalType": "uint256",
          "name": "chainId",
          "type": "uint256"
        },
        {
          "internalType": "address",
          "name": "verifyingContract",
          "type": "address"
        },
        {
          "internalType": "bytes32",
          "name": "salt",
          "type": "bytes32"
        },
        {
          "internalType": "uint256[]",
          "name": "extensions",
          "type": "uint256[]"
        }
      ],
      "stateMutability": "view",
      "type": "function"
    },
    {
      "inputs": [
        {
          "internalType": "address",
          "name": "spender",
          "type": "address"
        },
        {
          "internalType": "uint256",
          "name": "addedValue",
          "type": "uint256"
        }
      ],
      "name": "increaseAllowance",
      "outputs": [
        {
          "internalType": "bool",
          "name": "",
          "type": "bool"
        }
      ],
      "stateMutability": "nonpayable",
      "type": "function"
    },
    {
      "inputs": [
        {
          "internalType": "address",
          "name": "account",
          "type": "address"
        },
        {
          "internalType": "uint256",
          "name": "amount",
          "type": "uint256"
        }
      ],
      "name": "mintReward",
      "outputs": [],
      "stateMutability": "nonpayable",
      "type": "function"
    },
    {
      "inputs": [],
      "name": "name",
      "outputs": [
        {
          "internalType": "string",
          "name": "",
          "type": "string"
        }
      ],
      "stateMutability": "view",
      "type": "function"
    },
    {
      "inputs": [
        {
          "internalType": "address",
          "name": "owner",
          "type": "address"
        }
      ],
      "name": "nonces",
      "outputs": [
        {
          "internalType": "uint256",
          "name": "",
          "type": "uint256"
        }
      ],
      "stateMutability": "view",
      "type": "function"
    },
    {
      "inputs": [],
      "name": "owner",
      "outputs": [
        {
          "internalType": "address",
          "name": "",
          "type": "address"
        }
      ],
      "stateMutability": "view",
      "type": "function"
    },
    {
      "inputs": [
        {
          "internalType": "address",
          "name": "owner",
          "type": "address"
        },
        {
          "internalType": "address",
          "name": "spender",
          "type": "address"
        },
        {
          "internalType": "uint256",
          "name": "value",
          "type": "uint256"
        },
        {
          "internalType": "uint256",
          "name": "deadline",
          "type": "uint256"
        },
        {
          "internalType": "uint8",
          "name": "v",
          "type": "uint8"
        },
        {
          "internalType": "bytes32",
          "name": "r",
          "type": "bytes32"
        },
        {
          "internalType": "bytes32",
          "name": "s",
          "type": "bytes32"
        }
      ],
      "name": "permit",
      "outputs": [],
      "stateMutability": "nonpayable",
      "type": "function"
    },
    {
      "inputs": [],
      "name": "symbol",
      "outputs": [
        {
          "internalType": "string",
          "name": "",
          "type": "string"
        }
      ],
      "stateMutability": "view",
      "type": "function"
    },
    {
      "inputs": [],
      "name": "totalSupply",
      "outputs": [
        {
          "internalType": "uint256",
          "name": "",
          "type": "uint256"
        }
      ],
      "stateMutability": "view",
      "type": "function"
    },
    {
      "inputs": [
        {
          "internalType": "address",
          "name": "to",
          "type": "address"
        },
        {
          "internalType": "uint256",
          "name": "amount",
          "type": "uint256"
        }
      ],
      "name": "transfer",
      "outputs": [
        {
          "internalType": "bool",
          "name": "",
          "type": "bool"
        }
      ],
      "stateMutability": "nonpayable",
      "type": "function"
    },
    {
      "inputs": [
        {
          "internalType": "address",
          "name": "from",
          "type": "address"
        },
        {
          "internalType": "address",
          "name": "to",
          "type": "address"
        },
        {
          "internalType": "uint256",
          "name": "amount",
          "type": "uint256"
        }
      ],
      "name": "transferFrom",
      "outputs": [
        {
          "internalType": "bool",
          "name": "",
          "type": "bool"
        }
      ],
      "stateMutability": "nonpayable",
      "type": "function"
    }
  ],
  "bytecode": {
    "object": "0x6101806040523480156200001257600080fd5b506040518060400160405280601681526020017f444258656e20546f6b656e206f6e20506f6c79676f6e0000000000000000000081525080604051806040016040528060018152602001603160f81b8152506040518060400160405280601681526020017f444258656e20546f6b656e206f6e20506f6c79676f6e000000000000000000008152506040518060400160405280600481526020016336a22c2760e11b8152508160039081620000c89190620003a2565b506004620000d78282620003a2565b50620000e991508390506005620001b6565b61012052620000fa816006620001b6565b61014052815160208084019190912060e052815190820120610100524660a0526200018860e05161010051604080517f8b73c3c69bb8fe3d512ecc4cf759cc79239f7b179b0ffacaa9a75d522b39400f60208201529081019290925260608201524660808201523060a082015260009060c00160405160208183030381529060405280519060200120905090565b60805250503060c0525033610160819052620001b0906a0424e8a4eaca5ed7400000620001ef565b62000505565b6000602083511015620001d657620001ce83620002b6565b9050620001e9565b81620001e38482620003a2565b5060ff90505b92915050565b6001600160a01b0382166200024b5760405162461bcd60e51b815260206004820152601f60248201527f45524332303a206d696e7420746f20746865207a65726f20616464726573730060448201526064015b60405180910390fd5b80600260008282546200025f91906200046e565b90915550506001600160a01b038216600081815260208181526040808320805486019055518481527fddf252ad1be2c89b69c2b068fc378daa952ba7f163c4a11628f55a4df523b3ef910160405180910390a35050565b600080829050601f81511115620002e4578260405163305a27a960e01b815260040162000242919062000490565b8051620002f182620004e0565b179392505050565b505050565b634e487b7160e01b600052604160045260246000fd5b600181811c908216806200032957607f821691505b6020821081036200034a57634e487b7160e01b600052602260045260246000fd5b50919050565b601f821115620002f957600081815260208120601f850160051c81016020861015620003795750805b601f850160051c820191505b818110156200039a5782815560010162000385565b505050505050565b81516001600160401b03811115620003be57620003be620002fe565b620003d681620003cf845462000314565b8462000350565b602080601f8311600181146200040e5760008415620003f55750858301515b600019600386901b1c1916600185901b1785556200039a565b600085815260208120601f198616915b828110156200043f578886015182559484019460019091019084016200041e565b50858210156200045e5787850151600019600388901b60f8161c191681555b5050505050600190811b01905550565b80820180821115620001e957634e487b7160e01b600052601160045260246000fd5b600060208083528351808285015260005b81811015620004bf57858101830151858201604001528201620004a1565b506000604082860101526040601f19601f8301168501019250505092915050565b805160208083015191908110156200034a5760001960209190910360031b1b16919050565b60805160a05160c05160e0516101005161012051610140516101605161130d62000572600039600081816101fc0152610461015260006103f7015260006103cc01526000610b8301526000610b5b01526000610ab601526000610ae001526000610b0a015261130d6000f3fe608060405234801561001057600080fd5b506004361061010b5760003560e01c80637ecebe00116100a25780639a49090e116100715780639a49090e1461023e578063a457c2d714610253578063a9059cbb14610266578063d505accf14610279578063dd62ed3e1461028c57600080fd5b80637ecebe00146101c957806384b0196e146101dc5780638da5cb5b146101f757806395d89b411461023657600080fd5b8063313ce567116100de578063313ce567146101765780633644e51514610185578063395093511461018d57806370a08231146101a057600080fd5b806306fdde0314610110578063095ea7b31461012e57806318160ddd1461015157806323b872dd14610163575b600080fd5b61011861029f565b6040516101259190611079565b60405180910390f35b61014161013c3660046110af565b610331565b6040519015158152602001610125565b6002545b604051908152602001610125565b6101416101713660046110d9565b61034b565b60405160128152602001610125565b61015561036f565b61014161019b3660046110af565b61037e565b6101556101ae366004611115565b6001600160a01b031660009081526020819052604090205490565b6101556101d7366004611115565b6103a0565b6101e46103be565b6040516101259796959493929190611130565b61021e7f000000000000000000000000000000000000000000000000000000000000000081565b6040516001600160a01b039091168152602001610125565b610118610447565b61025161024c3660046110af565b610456565b005b6101416102613660046110af565b61054f565b6101416102743660046110af565b6105ca565b6102516102873660046111c6565b6105d8565b61015561029a366004611239565b61073c565b6060600380546102ae9061126c565b80601f01602080910402602001604051908101604052809291908181526020018280546102da9061126c565b80156103275780601f106102fc57610100808354040283529160200191610327565b820191906000526020600020905b81548152906001019060200180831161030a57829003601f168201915b5050505050905090565b60003361033f818585610767565b60019150505b92915050565b60003361035985828561088b565b610364858585610905565b506001949350505050565b6000610379610aa9565b905090565b60003361033f818585610391838361073c565b61039b91906112a0565b610767565b6001600160a01b038116600090815260076020526040812054610345565b6000606080828080836103f27f00000000000000000000000000000000000000000000000000000000000000006005610bd4565b61041d7f00000000000000000000000000000000000000000000000000000000000000006006610bd4565b60408051600080825260208201909252600f60f81b9b939a50919850469750309650945092509050565b6060600480546102ae9061126c565b336001600160a01b037f000000000000000000000000000000000000000000000000000000000000000016146104df5760405162461bcd60e51b8152602060048201526024808201527f444258656e3a2063616c6c6572206973206e6f7420444258656e20636f6e747260448201526330b1ba1760e11b60648201526084015b60405180910390fd5b6a0424e8a4eaca5ed74000006104f460025490565b106105415760405162461bcd60e51b815260206004820181905260248201527f444258656e3a206d617820737570706c7920616c7265616479206d696e74656460448201526064016104d6565b61054b8282610c7f565b5050565b6000338161055d828661073c565b9050838110156105bd5760405162461bcd60e51b815260206004820152602560248201527f45524332303a2064656372656173656420616c6c6f77616e63652062656c6f77604482015264207a65726f60d81b60648201526084016104d6565b6103648286868403610767565b60003361033f818585610905565b834211156106285760405162461bcd60e51b815260206004820152601d60248201527f45524332305065726d69743a206578706972656420646561646c696e6500000060448201526064016104d6565b60007f6e71edae12b1b97f4d1f60370fef10105fa2faae0126114a169c64845d6126c98888886106578c610d3e565b6040805160208101969096526001600160a01b0394851690860152929091166060840152608083015260a082015260c0810186905260e00160405160208183030381529060405280519060200120905060006106b282610d66565b905060006106c282878787610d93565b9050896001600160a01b0316816001600160a01b0316146107255760405162461bcd60e51b815260206004820152601e60248201527f45524332305065726d69743a20696e76616c6964207369676e6174757265000060448201526064016104d6565b6107308a8a8a610767565b50505050505050505050565b6001600160a01b03918216600090815260016020908152604080832093909416825291909152205490565b6001600160a01b0383166107c95760405162461bcd60e51b8152602060048201526024808201527f45524332303a20617070726f76652066726f6d20746865207a65726f206164646044820152637265737360e01b60648201526084016104d6565b6001600160a01b03821661082a5760405162461bcd60e51b815260206004820152602260248201527f45524332303a20617070726f766520746f20746865207a65726f206164647265604482015261737360f01b60648201526084016104d6565b6001600160a01b0383811660008181526001602090815260408083209487168084529482529182902085905590518481527f8c5be1e5ebec7d5bd14f71427d1e84f3dd0314c0f7b2291e5b200ac8c7c3b925910160405180910390a3505050565b6000610897848461073c565b905060001981146108ff57818110156108f25760405162461bcd60e51b815260206004820152601d60248201527f45524332303a20696e73756666696369656e7420616c6c6f77616e636500000060448201526064016104d6565b6108ff8484848403610767565b50505050565b6001600160a01b0383166109695760405162461bcd60e51b815260206004820152602560248201527f45524332303a207472616e736665722066726f6d20746865207a65726f206164604482015264647265737360d81b60648201526084016104d6565b6001600160a01b0382166109cb5760405162461bcd60e51b815260206004820152602360248201527f45524332303a207472616e7366657220746f20746865207a65726f206164647260448201526265737360e81b60648201526084016104d6565b6001600160a01b03831660009081526020819052604090205481811015610a435760405162461bcd60e51b815260206004820152602660248201527f45524332303a207472616e7366657220616d6f756e7420657863656564732062604482015265616c616e636560d01b60648201526084016104d6565b6001600160a01b03848116600081815260208181526040808320878703905593871680835291849020805487019055925185815290927fddf252ad1be2c89b69c2b068fc378daa952ba7f163c4a11628f55a4df523b3ef910160405180910390a36108ff565b6000306001600160a01b037f000000000000000000000000000000000000000000000000000000000000000016148015610b0257507f000000000000000000000000000000000000000000000000000000000000000046145b15610b2c57507f000000000000000000000000000000000000000000000000000000000000000090565b610379604080517f8b73c3c69bb8fe3d512ecc4cf759cc79239f7b179b0ffacaa9a75d522b39400f60208201527f0000000000000000000000000000000000000000000000000000000000000000918101919091527f000000000000000000000000000000000000000000000000000000000000000060608201524660808201523060a082015260009060c00160405160208183030381529060405280519060200120905090565b606060ff8314610bee57610be783610dbb565b9050610345565b818054610bfa9061126c565b80601f0160208091040260200160405190810160405280929190818152602001828054610c269061126c565b8015610c735780601f10610c4857610100808354040283529160200191610c73565b820191906000526020600020905b815481529060010190602001808311610c5657829003601f168201915b50505050509050610345565b6001600160a01b038216610cd55760405162461bcd60e51b815260206004820152601f60248201527f45524332303a206d696e7420746f20746865207a65726f20616464726573730060448201526064016104d6565b8060026000828254610ce791906112a0565b90915550506001600160a01b038216600081815260208181526040808320805486019055518481527fddf252ad1be2c89b69c2b068fc378daa952ba7f163c4a11628f55a4df523b3ef910160405180910390a35050565b6001600160a01b03811660009081526007602052604090208054600181018255905b50919050565b6000610345610d73610aa9565b8360405161190160f01b8152600281019290925260228201526042902090565b6000806000610da487878787610dfa565b91509150610db181610ebe565b5095945050505050565b60606000610dc88361100b565b604080516020808252818301909252919250600091906020820181803683375050509182525060208101929092525090565b6000807f7fffffffffffffffffffffffffffffff5d576e7357a4501ddfe92f46681b20a0831115610e315750600090506003610eb5565b6040805160008082526020820180845289905260ff881692820192909252606081018690526080810185905260019060a0016020604051602081039080840390855afa158015610e85573d6000803e3d6000fd5b5050604051601f1901519150506001600160a01b038116610eae57600060019250925050610eb5565b9150600090505b94509492505050565b6000816004811115610ed257610ed26112c1565b03610eda5750565b6001816004811115610eee57610eee6112c1565b03610f3b5760405162461bcd60e51b815260206004820152601860248201527f45434453413a20696e76616c6964207369676e6174757265000000000000000060448201526064016104d6565b6002816004811115610f4f57610f4f6112c1565b03610f9c5760405162461bcd60e51b815260206004820152601f60248201527f45434453413a20696e76616c6964207369676e6174757265206c656e6774680060448201526064016104d6565b6003816004811115610fb057610fb06112c1565b036110085760405162461bcd60e51b815260206004820152602260248201527f45434453413a20696e76616c6964207369676e6174757265202773272076616c604482015261756560f01b60648201526084016104d6565b50565b600060ff8216601f81111561034557604051632cd44ac360e21b815260040160405180910390fd5b6000815180845260005b818110156110595760208185018101518683018201520161103d565b506000602082860101526020601f19601f83011685010191505092915050565b60208152600061108c6020830184611033565b9392505050565b80356001600160a01b03811681146110aa57600080fd5b919050565b600080604083850312156110c257600080fd5b6110cb83611093565b946020939093013593505050565b6000806000606084860312156110ee57600080fd5b6110f784611093565b925061110560208501611093565b9150604084013590509250925092565b60006020828403121561112757600080fd5b61108c82611093565b60ff60f81b881681526000602060e08184015261115060e084018a611033565b8381036040850152611162818a611033565b606085018990526001600160a01b038816608086015260a0850187905284810360c0860152855180825283870192509083019060005b818110156111b457835183529284019291840191600101611198565b50909c9b505050505050505050505050565b600080600080600080600060e0888a0312156111e157600080fd5b6111ea88611093565b96506111f860208901611093565b95506040880135945060608801359350608088013560ff8116811461121c57600080fd5b9699959850939692959460a0840135945060c09093013592915050565b6000806040838503121561124c57600080fd5b61125583611093565b915061126360208401611093565b90509250929050565b600181811c9082168061128057607f821691505b602082108103610d6057634e487b7160e01b600052602260045260246000fd5b8082018082111561034557634e487b7160e01b600052601160045260246000fd5b634e487b7160e01b600052602160045260246000fdfea264697066735822122074854d60060d41d71ac43ef00c7d97ec4bee56d3764ea3a3cf770c4b77fc6f2964736f6c63430008150033",
    "linkReferences": {}
  },
  "methodIdentifiers": {
    "DOMAIN_SEPARATOR()": "3644e515",
    "allowance(address,address)": "dd62ed3e",
    "approve(address,uint256)": "095ea7b3",
    "balanceOf(address)": "70a08231",
    "decimals()": "313ce567",
    "decreaseAllowance(address,uint256)": "a457c2d7",
    "eip712Domain()": "84b0196e",
    "increaseAllowance(address,uint256)": "39509351",
    "mintReward(address,uint256)": "9a49090e",
    "name()": "06fdde03",
    "nonces(address)": "7ecebe00",
    "owner()": "8da5cb5b",
    "permit(address,address,uint256,uint256,uint8,bytes32,bytes32)": "d505accf",
    "symbol()": "95d89b41",
    "totalSupply()": "18160ddd",
    "transfer(address,uint256)": "a9059cbb",
    "transferFrom(address,address,uint256)": "23b872dd"
  },
  "id": 2
}