{
  "abi": [
    {
      "inputs": [],
      "name": "MONTHS",
      "outputs": [
        {
          "internalType": "bytes",
          "name": "",
          "type": "bytes"
        }
      ],
      "stateMutability": "view",
      "type": "function"
    },
    {
      "inputs": [
        {
          "internalType": "uint256",
          "name": "ts",
          "type": "uint256"
        }
      ],
      "name": "asString",
      "outputs": [
        {
          "internalType": "string",
          "name": "",
          "type": "string"
        }
      ],
      "stateMutability": "pure",
      "type": "function"
    },
    {
      "inputs": [
        {
          "internalType": "uint256",
          "name": "ts",
          "type": "uint256"
        }
      ],
      "name": "yearAndMonth",
      "outputs": [
        {
          "internalType": "uint256",
          "name": "",
          "type": "uint256"
        },
        {
          "internalType": "string",
          "name": "",
          "type": "string"
        }
      ],
      "stateMutability": "pure",
      "type": "function"
    }
  ],
  "bytecode": {
    "object": "0x610a2261003a600b82828239805160001a60731461002d57634e487b7160e01b600052600060045260246000fd5b30600052607381538281f3fe730000000000000000000000000000000000000000301460806040526004361061004b5760003560e01c80635a97e730146100505780638fa626f21461007a578063b5d987e31461008f575b600080fd5b61006361005e3660046106db565b6100a2565b604051610071929190610744565b60405180910390f35b6100826100cf565b6040516100719190610765565b61008261009d3660046106db565b6100eb565b600060606000806100b285610165565b5050505091509150816100c4826101d9565b935093505050915091565b6040518060600160405280602481526020016109c96024913981565b606060008060008060006100fe87610165565b5094509450945094509450610112846101d9565b61011b8461038d565b6101248761038d565b61012d85610420565b61013685610420565b60405160200161014a95949392919061077f565b60405160208183030381529060405295505050505050919050565b6000808080808061018161017c6201518089610861565b61048f565b9197509550935060006101976201518089610875565b90506101a5610e1082610861565b93506101b3610e1082610875565b90506101c0603c82610861565b92506101cd603c82610875565b91505091939550919395565b6060600082116102195760405162461bcd60e51b81526020600482015260076024820152660c4c2c840d2c8f60cb1b604482015260640160405180910390fd5b604080516003808252818301909252600091602082018180368337019050509050600061024760018561089f565b6102529060036108b2565b90506040518060600160405280602481526020016109c960249139818151811061027e5761027e6108c9565b602001015160f81c60f81b8260008151811061029c5761029c6108c9565b60200101906001600160f81b031916908160001a9053506040518060600160405280602481526020016109c9602491396102d78260016108df565b815181106102e7576102e76108c9565b602001015160f81c60f81b82600181518110610305576103056108c9565b60200101906001600160f81b031916908160001a9053506040518060600160405280602481526020016109c9602491396103408260026108df565b81518110610350576103506108c9565b602001015160f81c60f81b8260028151811061036e5761036e6108c9565b60200101906001600160f81b031916908160001a905350909392505050565b6060600061039a83610603565b600101905060008167ffffffffffffffff8111156103ba576103ba610889565b6040519080825280601f01601f1916602001820160405280156103e4576020820181803683370190505b5090508181016020015b600019016f181899199a1a9b1b9c1cb0b131b232b360811b600a86061a8153600a85049450846103ee57509392505050565b606081600003610448575050604080518082019091526002815261030360f41b602082015290565b600a8210156104805761045a8261038d565b60405160200161046a91906108f2565b6040516020818303038152906040529050919050565b6104898261038d565b92915050565b60008080838162253d8c6104a68362010bd961091b565b6104b0919061091b565b9050600062023ab16104c3836004610943565b6104cd9190610973565b905060046104de8262023ab1610943565b6104e990600361091b565b6104f39190610973565b6104fd90836109a1565b9150600062164b0961051084600161091b565b61051c90610fa0610943565b6105269190610973565b90506004610536826105b5610943565b6105409190610973565b61054a90846109a1565b61055590601f61091b565b9250600061098f610567856050610943565b6105719190610973565b9050600060506105838361098f610943565b61058d9190610973565b61059790866109a1565b90506105a4600b83610973565b94506105b185600c610943565b6105bc83600261091b565b6105c691906109a1565b915084836105d56031876109a1565b6105e0906064610943565b6105ea919061091b565b6105f4919061091b565b9a919950975095505050505050565b60008072184f03e93ff9f4daa797ed6e38ed64bf6a1f0160401b83106106425772184f03e93ff9f4daa797ed6e38ed64bf6a1f0160401b830492506040015b6d04ee2d6d415b85acef8100000000831061066e576d04ee2d6d415b85acef8100000000830492506020015b662386f26fc10000831061068c57662386f26fc10000830492506010015b6305f5e10083106106a4576305f5e100830492506008015b61271083106106b857612710830492506004015b606483106106ca576064830492506002015b600a83106104895760010192915050565b6000602082840312156106ed57600080fd5b5035919050565b60005b8381101561070f5781810151838201526020016106f7565b50506000910152565b600081518084526107308160208601602086016106f4565b601f01601f19169290920160200192915050565b82815260406020820152600061075d6040830184610718565b949350505050565b6020815260006107786020830184610718565b9392505050565b60008651610791818460208b016106f4565b8083019050600160fd1b80825287516107b1816001850160208c016106f4565b61016160f51b6001939091019283015286516107d4816003850160208b016106f4565b600392019182015284516107ef8160048401602089016106f4565b600181830101915050601d60f91b600382015283516108158160048401602088016106f4565b632055544360e01b91016004810191909152600801979650505050505050565b634e487b7160e01b600052601260045260246000fd5b634e487b7160e01b600052601160045260246000fd5b60008261087057610870610835565b500490565b60008261088457610884610835565b500690565b634e487b7160e01b600052604160045260246000fd5b818103818111156104895761048961084b565b80820281158282048414176104895761048961084b565b634e487b7160e01b600052603260045260246000fd5b808201808211156104895761048961084b565b600360fc1b81526000825161090e8160018501602087016106f4565b9190910160010192915050565b808201828112600083128015821682158216171561093b5761093b61084b565b505092915050565b80820260008212600160ff1b8414161561095f5761095f61084b565b81810583148215176104895761048961084b565b60008261098257610982610835565b600160ff1b82146000198414161561099c5761099c61084b565b500590565b81810360008312801583831316838312821617156109c1576109c161084b565b509291505056fe4a616e4665624d61724170724d61794a756e4a756c4175675365704f63744e6f76446563a26469706673582212201afc87282a1645dda8cfa7ed22d5c965db58a91cb745976925c545539d94d8db64736f6c63430008150033",
    "linkReferences": {}
  },
  "methodIdentifiers": {
    "MONTHS()": "8fa626f2",
    "asString(uint256)": "b5d987e3",
    "yearAndMonth(uint256)": "5a97e730"
  },
  "id": 17
}