{
  "abi": [
    {
      "inputs": [],
      "name": "BASE_LUMINOSITY",
      "outputs": [
        {
          "internalType": "uint256",
          "name": "",
          "type": "uint256"
        }
      ],
      "stateMutability": "view",
      "type": "function"
    },
    {
      "inputs": [],
      "name": "BASE_SATURATION",
      "outputs": [
        {
          "internalType": "uint256",
          "name": "",
          "type": "uint256"
        }
      ],
      "stateMutability": "view",
      "type": "function"
    },
    {
      "inputs": [],
      "name": "COLORS_FULL_SCALE",
      "outputs": [
        {
          "internalType": "uint256",
          "name": "",
          "type": "uint256"
        }
      ],
      "stateMutability": "view",
      "type": "function"
    },
    {
      "inputs": [],
      "name": "DEFAULT_OPACITY",
      "outputs": [
        {
          "internalType": "uint256",
          "name": "",
          "type": "uint256"
        }
      ],
      "stateMutability": "view",
      "type": "function"
    },
    {
      "inputs": [],
      "name": "GROUP_LUMINOSITY",
      "outputs": [
        {
          "internalType": "uint256",
          "name": "",
          "type": "uint256"
        }
      ],
      "stateMutability": "view",
      "type": "function"
    },
    {
      "inputs": [],
      "name": "GROUP_SATURATION",
      "outputs": [
        {
          "internalType": "uint256",
          "name": "",
          "type": "uint256"
        }
      ],
      "stateMutability": "view",
      "type": "function"
    },
    {
      "inputs": [],
      "name": "MAX_POWER",
      "outputs": [
        {
          "internalType": "uint256",
          "name": "",
          "type": "uint256"
        }
      ],
      "stateMutability": "view",
      "type": "function"
    },
    {
      "inputs": [],
      "name": "NO_COLOR",
      "outputs": [
        {
          "internalType": "uint256",
          "name": "",
          "type": "uint256"
        }
      ],
      "stateMutability": "view",
      "type": "function"
    },
    {
      "inputs": [],
      "name": "POWER_GROUP_SIZE",
      "outputs": [
        {
          "internalType": "uint256",
          "name": "",
          "type": "uint256"
        }
      ],
      "stateMutability": "view",
      "type": "function"
    },
    {
      "inputs": [],
      "name": "SPECIAL_LUMINOSITY",
      "outputs": [
        {
          "internalType": "uint256",
          "name": "",
          "type": "uint256"
        }
      ],
      "stateMutability": "view",
      "type": "function"
    },
    {
      "inputs": [
        {
          "internalType": "uint256",
          "name": "count",
          "type": "uint256"
        },
        {
          "internalType": "uint256",
          "name": "burned",
          "type": "uint256"
        },
        {
          "internalType": "uint256",
          "name": "mintInfo",
          "type": "uint256"
        }
      ],
      "name": "attributes",
      "outputs": [
        {
          "internalType": "bytes",
          "name": "",
          "type": "bytes"
        }
      ],
      "stateMutability": "pure",
      "type": "function"
    },
    {
      "inputs": [
        {
          "internalType": "uint256",
          "name": "n",
          "type": "uint256"
        }
      ],
      "name": "formattedString",
      "outputs": [
        {
          "internalType": "string",
          "name": "",
          "type": "string"
        }
      ],
      "stateMutability": "pure",
      "type": "function"
    },
    {
      "inputs": [
        {
          "internalType": "uint256",
          "name": "tokenId",
          "type": "uint256"
        },
        {
          "internalType": "uint256",
          "name": "count",
          "type": "uint256"
        },
        {
          "internalType": "uint256",
          "name": "info",
          "type": "uint256"
        },
        {
          "internalType": "address",
          "name": "token",
          "type": "address"
        },
        {
          "internalType": "uint256",
          "name": "burned",
          "type": "uint256"
        }
      ],
      "name": "svgData",
      "outputs": [
        {
          "internalType": "bytes",
          "name": "",
          "type": "bytes"
        }
      ],
      "stateMutability": "view",
      "type": "function"
    }
  ],
  "bytecode": {
    "object": "0x614aa361003a600b82828239805160001a60731461002d57634e487b7160e01b600052600060045260246000fd5b30600052607381538281f3fe73000000000000000000000000000000000000000030146080604052600436106100d85760003560e01c806341b169f31161009657806373116a561161007057806373116a5614610162578063987a800d1461016b578063f12897a414610173578063fb3398551461018657600080fd5b806341b169f3146101485780634d8d5f4a14610151578063660e35921461015957600080fd5b806247a04e146100dd5780631b9345fd146101065780631e2bb84914610119578063262ddfd31461012f57806327c48381146101375780632dbfa5951461013f575b600080fd5b6100f06100eb366004611f20565b61018e565b6040516100fd9190611f89565b60405180910390f35b6100f0610114366004611f9c565b61019f565b610121606481565b6040519081526020016100fd565b610121600181565b610121602681565b61012161016881565b610121611d4c81565b610121602d81565b61012161cd1481565b61012161012c81565b610121603281565b6100f0610181366004611ff1565b61074d565b610121604b81565b606061019982610845565b92915050565b60606000836001600160a01b03166395d89b416040518163ffffffff1660e01b8152600401600060405180830381865afa1580156101e1573d6000803e3d6000fd5b505050506040513d6000823e601f3d908101601f1916820160405261020991908101906120b1565b60405163512d62df60e01b8152600481018790529091506000908190819073__$15046a4eb87352c1cd8587f1d1a014d95c$__9063512d62df90602401606060405180830381865af4158015610263573d6000803e3d6000fd5b505050506040513d601f19601f820116820180604052508101906102879190612103565b9250925092506000604051806101800160405280868152602001896001600160a01b031681526020018c81526020018a73__$15046a4eb87352c1cd8587f1d1a014d95c$__63346ba94190916040518263ffffffff1660e01b81526004016102f191815260200190565b602060405180830381865af415801561030e573d6000803e3d6000fd5b505050506040513d601f19601f82011682018060405250810190610332919061213f565b8152604051635284cdd760e11b8152600481018c905260209091019073__$15046a4eb87352c1cd8587f1d1a014d95c$__9063a5099bae90602401602060405180830381865af415801561038a573d6000803e3d6000fd5b505050506040513d601f19601f820116820180604052508101906103ae919061213f565b8152602081018c90526040805163125fb94760e11b8152600481018d905291019073__$15046a4eb87352c1cd8587f1d1a014d95c$__906324bf728e90602401602060405180830381865af415801561040b573d6000803e3d6000fd5b505050506040513d601f19601f8201168201806040525081019061042f919061213f565b8152604051630a9b802360e11b8152600481018c905260209091019073__$15046a4eb87352c1cd8587f1d1a014d95c$__90631537004690602401602060405180830381865af4158015610487573d6000803e3d6000fd5b505050506040513d601f19601f820116820180604052508101906104ab919061213f565b815260405163090facb160e21b8152600481018c905260209091019073__$15046a4eb87352c1cd8587f1d1a014d95c$__9063243eb2c490602401602060405180830381865af4158015610503573d6000803e3d6000fd5b505050506040513d601f19601f82011682018060405250810190610527919061213f565b8152602081018990526040805163e90cdc8960e01b8152600481018d905291019073__$15046a4eb87352c1cd8587f1d1a014d95c$__9063e90cdc8990602401602060405180830381865af4158015610584573d6000803e3d6000fd5b505050506040513d601f19601f820116820180604052508101906105a89190612158565b1515815260200173__$747dc4089d705607ea9272d3455fd82c94$__63b0eca69b6040518060c00160405280608c815260200161492e608c9139886040518363ffffffff1660e01b8152600401610600929190612173565b600060405180830381865af415801561061d573d6000803e3d6000fd5b505050506040513d6000823e601f3d908101601f1916820160405261064591908101906120b1565b81525090506000600c8a60405160200161066191815260200190565b6040516020818303038152906040528051906020012060001c61068491906121ab565b9050838061068f5750825b156106b6576106a9826106a1866109d9565b838787610b6e565b9650505050505050610744565b60405163346ba94160e01b8152600481018b905261073b9083906106a1908e9073__$15046a4eb87352c1cd8587f1d1a014d95c$__9063346ba94190602401602060405180830381865af4158015610712573d6000803e3d6000fd5b505050506040513d601f19601f82011682018060405250810190610736919061213f565b610d2d565b96505050505050505b95945050505050565b606060008060008060008060008073__$15046a4eb87352c1cd8587f1d1a014d95c$__6388f882e88b6040518263ffffffff1660e01b815260040161079491815260200190565b61012060405180830381865af41580156107b2573d6000803e3d6000fd5b505050506040513d601f19601f820116820180604052508101906107d691906121bf565b50975097509750975097509750975097506107f28c8785610f99565b6107fd86868a61106d565b610808898b8f611147565b61081285856111f2565b6040516020016108259493929190612259565b604051602081830303815290604052985050505050505050509392505050565b60608160000361086c5750506040805180820190915260018152600360fc1b602082015290565b8160005b81156108965780610880816122ea565b915061088f9050600a83612303565b9150610870565b6000806108a4600384612303565b90506108b16003846121ab565b156108bc57806108c7565b6108c7600182612317565b6108d1908461232a565b925060008367ffffffffffffffff8111156108ee576108ee61201d565b6040519080825280601f01601f191660200182016040528015610918576020820181803683370190505b5090505b86156109cf5761092d600185612317565b93508260030361096e57600b60fa1b81858151811061094e5761094e61233d565b60200101906001600160f81b031916908160001a9053506000925061091c565b610979600a886121ab565b61098490603061232a565b60f81b8185815181106109995761099961233d565b60200101906001600160f81b031916908160001a9053506109bb600a88612303565b9650826109c7816122ea565b93505061091c565b9695505050505050565b60606000826109ef576109ea611287565b6109f7565b6109f76112b3565b6040805160038082526080820190925291925060009190816020015b610a456040518060a0016040528060008152602001600081526020016000815260200160008152602001600081525090565b815260200190600190039081610a1357905050905060005b8151811015610af3576040518060a00160405280848360038110610a8357610a8361233d565b60200201518152602001604b8152602001602d815260200160018152602001610aaa6112df565b8360038110610abb57610abb61233d565b6020020151815250828281518110610ad557610ad561233d565b60200260200101819052508080610aeb906122ea565b915050610a5d565b5060408051600180825281830190925290816020015b610b11611e9f565b815260200190600190039081610b09579050509250604051806060016040528082815260200160008152602001610b4661130a565b81525083600081518110610b5c57610b5c61233d565b60200260200101819052505050919050565b6060600082610bbe5783610b9d5760405180610160016040528061012b815260200161333d61012b9139610bdb565b60405180610180016040528061014781526020016147e76101479139610bdb565b60405180610ea00160405280610e808152602001613853610e8091395b90506000610c0287600081518110610bf557610bf561233d565b602002602001015161133c565b60405180610140016040528061011481526020016146d36101149139610c288951611378565b60405180610100016040528060d3815260200161378060d3913985604051602001610c57959493929190612353565b60405160208183030381529060405290506000610c7c89600001518a60200151611406565b610ca08a604001518b60a001518c61010001518d61016001518e6101200151611443565b610cc18b60c001518c60e001518d606001518e608001518f60a00151611534565b610cca8a611601565b610cd88d61014001516116ac565b604051602001610cec959493929190612353565b60405160208183030381529060405290508181604051602001610d109291906123be565b604051602081830303815290604052935050505095945050505050565b604080516002808252606082810190935260009190816020015b610d796040518060a0016040528060008152602001600081526020016000815260200160008152602001600081525090565b815260200190600190039081610d47579050509050600061cd14610d9d8686612483565b11610dd65761cd1461012c610db28787612483565b610dbc9190612483565b610dc69190612303565b610dd190600161232a565b610dda565b6101685b90506000610de661186f565b6007610df288886118c0565b11610e0657610e0187876118c0565b610e09565b60075b60088110610e1957610e1961233d565b602002015190506040518060a001604052808281526020016101688314610e41576064610e44565b60005b81526020016101688314610e59576032610e5c565b60005b815260200160018152602001610e706112df565b51905283518490600090610e8657610e8661233d565b60200260200101819052506040518060a001604052808381526020016101688414610eb257604b610eb5565b60005b81526020016101688414610eca576026610ecd565b60005b815260200160018152602001610ee16112df565b604001519052835184906001908110610efc57610efc61233d565b602090810291909101015260408051600180825281830190925290816020015b610f24611e9f565b815260200190600190039081610f1c5790505093506040518060600160405280848152602001600081526020016101688314610f6757610f626118e0565b610f6f565b610f6f611912565b81525084600081518110610f8557610f8561233d565b602002602001018190525050505092915050565b606073__$747dc4089d705607ea9272d3455fd82c94$__63b0eca69b6040518060c00160405280608c815260200161492e608c9139846040518363ffffffff1660e01b8152600401610fec929190612173565b600060405180830381865af4158015611009573d6000803e3d6000fd5b505050506040513d6000823e601f3d908101601f1916820160405261103191908101906120b1565b61103a85611944565b61104385611944565b6040516020016110559392919061249a565b60405160208183030381529060405290509392505050565b606060008073__$25fd7f53b6605f962ed20dc92dd9dd302e$__635a97e730856040518263ffffffff1660e01b81526004016110ab91815260200190565b600060405180830381865af41580156110c8573d6000803e3d6000fd5b505050506040513d6000823e601f3d908101601f191682016040526110f0919081019061257f565b915091506110fd86611944565b61111061110b600a88612303565b611944565b61111984611944565b8360405160200161112d94939291906125c6565b604051602081830303815290604052925050509392505050565b60405163b5d987e360e01b81526004810184905260609073__$25fd7f53b6605f962ed20dc92dd9dd302e$__9063b5d987e390602401600060405180830381865af415801561119a573d6000803e3d6000fd5b505050506040513d6000823e601f3d908101601f191682016040526111c291908101906120b1565b6111cb84611944565b6111e061110b670de0b6b3a764000086612303565b60405160200161105593929190612702565b60408051808201909152600981526821b7b63632b1ba37b960b91b6020820152606090821561123b5750604080518082019091526007815266131a5b5a5d195960ca1b60208201525b831561125e5750604080518082019091526004815263082e0caf60e31b60208201525b8060405160200161126f9190612800565b60405160208183030381529060405291505092915050565b61128f611ec5565b6040518060600160405280610107815260200160008152602001602a815250905090565b6112bb611ec5565b604051806060016040528060a9815260200160d28152602001610131815250905090565b6112e7611ec5565b6040518060600160405280600a815260200160328152602001605a815250905090565b611312611ee3565b60405180608001604052806064815260200160648152602001600081526020016000815250905090565b60606113528260000151600084604001516119d7565b604051602001611362919061285c565b6040516020818303038152906040529050919050565b60408051602081019091526000808252606091905b838110156113d4578161139f82611ab1565b6040516020016113b092919061289b565b604051602081830303815290604052915080806113cc906122ea565b91505061138d565b50806113de611acc565b6040516020016113ef9291906128ca565b604051602081830303815290604052915050919050565b60608261141b836001600160a01b0316611aec565b60405160200161142c92919061291c565b604051602081830303815290604052905092915050565b60606000808311611463576040518060200160405280600081525061149d565b61147d611478670de0b6b3a764000085612303565b610845565b60405160200161148d91906129e3565b6040516020818303038152906040525b6114a688611944565b856040516020016114b993929190612a09565b604051602081830303815290604052905060006114d587611944565b6114e361110b600a89612303565b6040516020016114f4929190612c1d565b6040516020818303038152906040529050818160405160200161151892919061289b565b6040516020818303038152906040529250505095945050505050565b6060600061154186611944565b61154a86611944565b60405160200161155b929190612d18565b604051602081830303815290604052905060006115788585611b02565b60405163b5d987e360e01b8152600481018a905273__$25fd7f53b6605f962ed20dc92dd9dd302e$__9063b5d987e390602401600060405180830381865af41580156115c8573d6000803e3d6000fd5b505050506040513d6000823e601f3d908101601f191682016040526115f091908101906120b1565b6040516020016114f4929190612dff565b606073__$747dc4089d705607ea9272d3455fd82c94$__63831b46a160405180610340016040528061031881526020016134686103189139846040518363ffffffff1660e01b8152600401611657929190612173565b600060405180830381865af4158015611674573d6000803e3d6000fd5b505050506040513d6000823e601f3d908101601f1916820160405261169c91908101906120b1565b6040516020016113629190612f12565b6060816116c757505060408051602081019091526000815290565b604051602001611362907f3c7265637420783d223530252220793d2237372e3525222077696474683d223181527f303022206865696768743d22343022207374726f6b653d22626c61636b22207360208201527f74726f6b652d77696474683d2231222066696c6c3d226e6f6e65222072783d2260408201527f357078222072793d2235707822207472616e73666f726d3d227472616e736c6160608201527f7465282d35302c2d32302920726f74617465282d32302c302c3430302922202f6080820152601f60f91b60a08201527f3c7465787420783d223530252220793d2237372e352522207374726f6b653d2260a18201527f626c61636b2220636c6173733d2262617365206d6574612220646f6d696e616e60c18201527f742d626173656c696e653d226d6964646c652220746578742d616e63686f723d60e18201527f226d6964646c6522207472616e73666f726d3d227472616e736c61746528302c6101018201527f302920726f74617465282d32302c2d34352c3338302922203e52656465656d6561012182015267321e17ba32bc3a1f60c11b6101418201526101490190565b611877611f01565b604051806101000160405280610168815260200160018152602001601e8152602001603c81526020016078815260200160b4815260200160f0815260200161012c815250905090565b6000611d4c6118cf8385612483565b6118d99190612303565b9392505050565b6118e8611ee3565b60405180608001604052806096815260200160968152602001601481526020016014815250905090565b61191a611ee3565b60405180608001604052806064815260200160648152602001601481526020016014815250905090565b6060600061195183611b6e565b600101905060008167ffffffffffffffff8111156119715761197161201d565b6040519080825280601f01601f19166020018201604052801561199b576020820181803683370190505b5090508181016020015b600019016f181899199a1a9b1b9c1cb0b131b232b360811b600a86061a8153600a85049450846119a557509392505050565b60408051602081019091526000808252606091905b8551811015611a7257858181518110611a0757611a0761233d565b602002602001015160000151600014611a605781611a3d878381518110611a3057611a3061233d565b6020026020010151611c46565b604051602001611a4e92919061289b565b60405160208183030381529060405291505b80611a6a816122ea565b9150506119ec565b50611a7c83611c7d565b611a8585611944565b82604051602001611a9893929190612fb4565b6040516020818303038152906040529150509392505050565b6060611abc82611944565b6040516020016113629190613053565b60606040518060c00160405280609481526020016149ba60949139905090565b60606101996001600160a01b0383166014611cc4565b606081600103611b3b57611b1583611944565b604051602001611b2591906130ef565b6040516020818303038152906040529050610199565b611b4483611944565b611b5d6001611b53858761232a565b61110b9190612317565b60405160200161142c92919061310b565b60008072184f03e93ff9f4daa797ed6e38ed64bf6a1f0160401b8310611bad5772184f03e93ff9f4daa797ed6e38ed64bf6a1f0160401b830492506040015b6d04ee2d6d415b85acef81000000008310611bd9576d04ee2d6d415b85acef8100000000830492506020015b662386f26fc100008310611bf757662386f26fc10000830492506010015b6305f5e1008310611c0f576305f5e100830492506008015b6127108310611c2357612710830492506004015b60648310611c35576064830492506002015b600a83106101995760010192915050565b6060611c5182611e64565b611c5e8360600151611944565b611c6b8460800151611944565b60405160200161136293929190613148565b6060611c908260005b6020020151611944565b611c9b836001611c86565b611ca6846002611c86565b611cb1856003611c86565b60405160200161136294939291906131ef565b60606000611cd3836002612483565b611cde90600261232a565b67ffffffffffffffff811115611cf657611cf661201d565b6040519080825280601f01601f191660200182016040528015611d20576020820181803683370190505b509050600360fc1b81600081518110611d3b57611d3b61233d565b60200101906001600160f81b031916908160001a905350600f60fb1b81600181518110611d6a57611d6a61233d565b60200101906001600160f81b031916908160001a9053506000611d8e846002612483565b611d9990600161232a565b90505b6001811115611e11576f181899199a1a9b1b9c1cb0b131b232b360811b85600f1660108110611dcd57611dcd61233d565b1a60f81b828281518110611de357611de361233d565b60200101906001600160f81b031916908160001a90535060049490941c93611e0a816132a4565b9050611d9c565b5083156118d95760405162461bcd60e51b815260206004820181905260248201527f537472696e67733a20686578206c656e67746820696e73756666696369656e74604482015260640160405180910390fd5b6060611e738260000151611944565b611e808360200151611944565b611e8d8460400151611944565b604051602001611362939291906132bb565b60405180606001604052806060815260200160008152602001611ec0611ee3565b905290565b60405180606001604052806003906020820280368337509192915050565b60405180608001604052806004906020820280368337509192915050565b6040518061010001604052806008906020820280368337509192915050565b600060208284031215611f3257600080fd5b5035919050565b60005b83811015611f54578181015183820152602001611f3c565b50506000910152565b60008151808452611f75816020860160208601611f39565b601f01601f19169290920160200192915050565b6020815260006118d96020830184611f5d565b600080600080600060a08688031215611fb457600080fd5b85359450602086013593506040860135925060608601356001600160a01b0381168114611fe057600080fd5b949793965091946080013592915050565b60008060006060848603121561200657600080fd5b505081359360208301359350604090920135919050565b634e487b7160e01b600052604160045260246000fd5b600082601f83011261204457600080fd5b815167ffffffffffffffff8082111561205f5761205f61201d565b604051601f8301601f19908116603f011681019082821181831017156120875761208761201d565b816040528381528660208588010111156120a057600080fd5b6109cf846020830160208901611f39565b6000602082840312156120c357600080fd5b815167ffffffffffffffff8111156120da57600080fd5b6120e684828501612033565b949350505050565b805180151581146120fe57600080fd5b919050565b60008060006060848603121561211857600080fd5b83519250612128602085016120ee565b9150612136604085016120ee565b90509250925092565b60006020828403121561215157600080fd5b5051919050565b60006020828403121561216a57600080fd5b6118d9826120ee565b6040815260006121866040830185611f5d565b90508260208301529392505050565b634e487b7160e01b600052601260045260246000fd5b6000826121ba576121ba612195565b500690565b60008060008060008060008060006101208a8c0312156121de57600080fd5b8951985060208a0151975060408a0151965060608a0151955060808a0151945060a08a0151935061221160c08b016120ee565b925061221f60e08b016120ee565b915061222e6101008b016120ee565b90509295985092959850929598565b6000815161224f818560208601611f39565b9290920192915050565b605b60f81b815260008551612275816001850160208a01611f39565b85519083019061228c816001840160208a01611f39565b85519101906122a2816001840160208901611f39565b84519101906122b8816001840160208801611f39565b605d60f81b600192909101918201526002019695505050505050565b634e487b7160e01b600052601160045260246000fd5b6000600182016122fc576122fc6122d4565b5060010190565b60008261231257612312612195565b500490565b81810381811115610199576101996122d4565b80820180821115610199576101996122d4565b634e487b7160e01b600052603260045260246000fd5b60008651612365818460208b01611f39565b865190830190612379818360208b01611f39565b865191019061238c818360208a01611f39565b855191019061239f818360208901611f39565b84519101906123b2818360208801611f39565b01979650505050505050565b7f3c73766720786d6c6e733d22687474703a2f2f7777772e77332e6f72672f323081527f30302f73766722207072657365727665417370656374526174696f3d22784d6960208201527f6e594d696e206d656574222076696577426f783d223020302033353020353636604082015261111f60f11b60608201526000835161244d816062850160208801611f39565b835190830190612464816062840160208801611f39565b651e17b9bb339f60d11b60629290910191820152606801949350505050565b8082028115828204841417610199576101996122d4565b7f7b2274726169745f74797065223a22436c617373222c2276616c7565223a22008152600084516124d281601f850160208901611f39565b7f227d2c7b2274726169745f74797065223a22564d5573222c2276616c7565223a601f91840191820152601160f91b603f8201528451612519816040840160208901611f39565b7f227d2c7b2274726169745f74797065223a226352616e6b222c2276616c75652260409290910191820152611d1160f11b60608201528351612562816062840160208801611f39565b62089f4b60ea1b6062929091019182015260650195945050505050565b6000806040838503121561259257600080fd5b82519150602083015167ffffffffffffffff8111156125b057600080fd5b6125bc85828601612033565b9150509250929050565b7f7b2274726169745f74797065223a22414d50222c2276616c7565223a220000008152600085516125fe81601d850160208a01611f39565b7f227d2c7b2274726169745f74797065223a2245414120282529222c2276616c75601d918401918201526332911d1160e11b603d8201528551612648816041840160208a01611f39565b7f227d2c7b2274726169745f74797065223a224d61747572697479205965617222604192909101918201526916113b30b63ab2911d1160b11b6061820152845161269981606b840160208901611f39565b7f227d2c7b2274726169745f74797065223a224d61747572697479204d6f6e7468606b92909101918201526a1116113b30b63ab2911d1160a91b608b8201526126f76126e8609683018661223d565b62089f4b60ea1b815260030190565b979650505050505050565b7f7b2274726169745f74797065223a224d61747572697479204461746554696d6581526a1116113b30b63ab2911d1160a91b60208201526000845161274e81602b850160208901611f39565b7f227d2c7b2274726169745f74797065223a225465726d222c2276616c7565223a602b91840191820152601160f91b604b820152845161279581604c840160208901611f39565b7f227d2c7b2274726169745f74797065223a2258454e204275726e6564222c2276604c92909101918201526630b63ab2911d1160c91b606c82015283516127e3816073840160208801611f39565b62089f4b60ea1b6073929091019182015260760195945050505050565b7f7b2274726169745f74797065223a2243617465676f7279222c2276616c7565228152611d1160f11b602082015260008251612843816022850160208701611f39565b61227d60f01b6022939091019283015250602401919050565b651e3232b3399f60d11b81526000825161287d816006850160208701611f39565b661e17b232b3399f60c91b6006939091019283015250600d01919050565b600083516128ad818460208801611f39565b8351908301906128c1818360208801611f39565b01949350505050565b621e339f60e91b8152600083516128e8816003850160208801611f39565b8351908301906128ff816003840160208801611f39565b631e17b39f60e11b60039290910191820152600701949350505050565b7f3c7465787420783d223530252220793d2235252220636c6173733d226261736581527f20736d616c6c2220646f6d696e616e742d626173656c696e653d226d6964646c60208201527f652220746578742d616e63686f723d226d6964646c65223e00000000000000006040820152600083516129a0816058850160208801611f39565b62e383bb60e81b60589184019182015283516129c381605b840160208801611f39565b661e17ba32bc3a1f60c91b605b9290910191820152606201949350505050565b600082516129f5818460208701611f39565b61040b60f31b920191825250600201919050565b7f3c7465787420783d223530252220793d223530252220636c6173733d2262617381527f65202220646f6d696e616e742d626173656c696e653d226d6964646c6522207460208201527f6578742d616e63686f723d226d6964646c65223e58454e2043525950544f3c2f60408201527f746578743e3c7465787420783d223530252220793d223536252220636c61737360608201527f3d2262617365206275726e2220746578742d616e63686f723d226d6964646c6560808201527f2220646f6d696e616e742d626173656c696e653d226d6964646c65223e20000060a082015260008451612aff8160be850160208901611f39565b7f3c2f746578743e3c7465787420783d223138252220793d223632252220636c6160be91840191820152600080516020614a4e83398151915260de8201526b3d226d6964646c65223e202360a01b60fe820152845161010a90612b688183850160208a01611f39565b612c11612bfe612bf884848701017f3c2f746578743e3c7465787420783d223832252220793d223632252220636c6181527f73733d2262617365206d657461207365726965732220646f6d696e616e742d6260208201527f6173656c696e653d226d6964646c652220746578742d616e63686f723d22656e6040820152633211101f60e11b606082015260640190565b8861223d565b661e17ba32bc3a1f60c91b815260070190565b98975050505050505050565b7f3c7465787420783d223138252220793d223638252220636c6173733d2262617381527f65206d6574612220646f6d696e616e742d626173656c696e653d226d6964646c60208201526803291101f2b26aa9d160bd1b604082015260008351612c8d816049850160208801611f39565b7f3c2f746578743e3c7465787420783d223138252220793d223732252220636c61604991840191820152600080516020614a4e83398151915260698201526f01e9136b4b232363291101f22a0a09d160851b60898201528351612cf7816099840160208801611f39565b67129e17ba32bc3a1f60c11b6099929091019182015260a101949350505050565b7f3c7465787420783d223138252220793d223736252220636c6173733d2262617381527f65206d6574612220646f6d696e616e742d626173656c696e653d226d6964646c60208201526803291101f20a6a81d160bd1b604082015260008351612d88816049850160208801611f39565b7f3c2f746578743e3c7465787420783d223138252220793d223830252220636c61604991840191820152600080516020614a4e83398151915260698201527001e9136b4b232363291101f2a32b9369d1607d1b60898201528351612df381609a840160208801611f39565b01609a01949350505050565b7f20646179733c2f746578743e3c7465787420783d223138252220793d2238342581527f2220636c6173733d2262617365206d6574612220646f6d696e616e742d62617360208201527f656c696e653d226d6964646c6522203e6352616e6b3a20000000000000000000604082015260008351612e83816057850160208801611f39565b7f3c2f746578743e3c7465787420783d223138252220793d223838252220636c61605791840191820152600080516020614a4e83398151915260778201527401e9136b4b232363291101f26b0ba3ab934ba3c9d1605d1b60978201528351612ef28160ac840160208801611f39565b661e17ba32bc3a1f60c91b60ac929091019182015260b301949350505050565b7f3c7465787420783d223530252220793d223935252220636c6173733d2262617381527f6520736d616c6c2220646f6d696e616e742d626173656c696e653d226d69646460208201527f6c652220746578742d616e63686f723d226d6964646c6522203e000000000000604082015260008251612f9681605a850160208701611f39565b661e17ba32bc3a1f60c91b605a939091019283015250606101919050565b7001e3634b732b0b923b930b234b2b73a101607d1b815260008451612fe0816011850160208901611f39565b6469643d226760d81b6011918401918201528451613005816016840160208901611f39565b61111f60f11b601692909101918201528351613028816018840160208801611f39565b701e17b634b732b0b923b930b234b2b73a1f60791b6018929091019182015260290195945050505050565b7f3c726563742077696474683d223130302522206865696768743d22313030252281526c2066696c6c3d2275726c28236760981b6020820152600082516130a181602d850160208701611f39565b7f29222072783d2231307078222072793d223130707822207374726f6b652d6c69602d939091019283015250703732b537b4b71e913937bab7321110179f60791b604d820152605e01919050565b60008251613101818460208701611f39565b9190910192915050565b6000835161311d818460208801611f39565b61171760f11b908301908152835161313c816002840160208801611f39565b01600201949350505050565b711e39ba37b81039ba37b816b1b7b637b91e9160711b81528351600090613176816012850160208901611f39565b6f111039ba37b816b7b830b1b4ba3c9e9160811b60129184019182015284516131a6816022840160208901611f39565b69111037b33339b2ba1e9160b11b6022929091019182015283516131d181602c840160208801611f39565b631291179f60e11b602c929091019182015260300195945050505050565b633c189e9160e11b8152845160009061320f816004850160208a01611f39565b661291103c989e9160c91b600491840191820152855161323681600b840160208a01611f39565b661291103c191e9160c91b600b9290910191820152845161325e816012840160208901611f39565b661291103c991e9160c91b601292909101918201528351613286816019840160208801611f39565b6201291160ed1b60199290910191820152601c019695505050505050565b6000816132b3576132b36122d4565b506000190190565b630d0e6d8560e31b8152600084516132da816004850160208901611f39565b61016160f51b60049184019182015284516132fc816006840160208901611f39565b6201296160ed1b600692909101918201528351613320816009840160208801611f39565b61252960f01b60099290910191820152600b019594505050505056fe3c673e3c70617468207374726f6b653d2223656465646564222066696c6c3d226e6f6e6522207472616e73666f726d3d227472616e736c617465283236352c343138292220643d226d20302030204c202d3230202d3330204c202d31322e35202d33382e35206c20362e352037204c2030202d33382e35204c20362e3536202d33312e3332204c2031322e35202d33382e35204c203230202d3330204c20302030204c202d372e333435202d32392e393535204c2030202d33382e35204c20372e3637202d33302e3034204c20302030205a204d20302030204c202d32302e303535202d32392e393535206c20372e353535202d382e353435206c2032342e393635202d302e303135204c203230202d3330204c202d32302e303535202d32392e393535222f3e3c2f673e22496620796f75207265616c697a6520796f75206861766520656e6f7567682c20796f7520617265207472756c7920726963682e22202d204c616f20547a7520202022546865207265616c206d656469746174696f6e20697320686f7720796f75206c69766520796f7572206c6966652e22202d204a6f6e204b616261742d5a696e6e2022546f206b6e6f77207468617420796f7520646f206e6f74206b6e6f772069732074686520626573742e22202d204c616f20547a752020202020202020202020202022416e206f7665722d7368617270656e65642073776f72642063616e6e6f74206c617374206c6f6e672e22202d204c616f20547a7520202020202020202020202020225768656e20796f752061636365707420796f757273656c662c207468652077686f6c6520776f726c64206163636570747320796f752e22202d204c616f20547a75224d7573696320696e2074686520736f756c2063616e2062652068656172642062792074686520756e6976657273652e22202d204c616f20547a752020202020202022417320736f6f6e20617320796f752068617665206d61646520612074686f756768742c206c617567682061742069742e22202d204c616f20547a75202020202020225468652066757274686572206f6e6520676f65732c20746865206c657373206f6e65206b6e6f77732e22202d204c616f20547a75202020202020202020202020202253746f70207468696e6b696e672c20616e6420656e6420796f75722070726f626c656d732e22202d204c616f20547a7520202020202020202020202020202020202252656c696162696c6974792069732074686520666f756e646174696f6e206f6620636f6d6d69746d656e742e22202d20556e6b6e6f776e2020202020202020202022596f7572207061737420646f6573206e6f7420657175616c20796f7572206675747572652e22202d20546f6e7920526f6262696e732020202020202020202020202242652074686520706174682e20446f206e6f74207365656b2069742e22202d20596172612054736368616c6c656e657220202020202020202020202020202020203c706174682066696c6c3d22236564656465642220643d224d3132322e372c3232372e31206c2d342e382c306c35352e382c2d37346c302c332e326c2d35312e382c2d36392e326c352c306c34382e382c36352e346c2d312e322c306c34382e382c2d36352e346c342e382c306c2d35312e322c36382e346c302c2d312e366c35352e322c37332e326c2d352c306c2d35322e382c2d37302e326c312e322c306c2d35322e382c37302e327a2220766563746f722d6566666563743d226e6f6e2d7363616c696e672d7374726f6b6522202f3e3c673e203c706174682066696c6c3d222365646564656422207472616e73666f726d3d227363616c6528302e3429207472616e736c617465283630302c20393430292220643d224d36362c33382e3039712e30362e392e31382c312e3731762e303563312c372e30382c342e36332c31312e33392c392e35392c31332e38312c352e31382c322e35332c31312e38332c332e30392c31382e34382c322e36312c312e34392d2e31312c332d2e32372c342e33392d2e34376c312e35392d2e3263342e37382d2e36312c31312e34372d312e34382c31332e33352d352e30362c312e31362d322e322c312d352c302d386133382e38352c33382e38352c302c302c302d362e38392d31312e37334133322e32342c33322e32342c302c302c302c39352c32312e34362c32312e322c32312e322c302c302c302c38322e332c32306132332e35332c32332e35332c302c302c302d31322e37352c372c31352e36362c31352e36362c302c302c302d322e33352c332e343668306132302e38332c32302e38332c302c302c302d312c322e38336c2d2e30362e322c302c2e31324131322c31322c302c302c302c36362c33372e396c302c2e31395a6d32362e392d332e363361352e35312c352e35312c302c302c312c322e35332d342e33392c31342e31392c31342e31392c302c302c302d352e37372d2e3539682d2e31366c2e30362e353161352e35372c352e35372c302c302c302c322e38392c342e32322c342e39322c342e39322c302c302c302c2e34352e32345a4d38382e36322c32386c2e39342d2e30396131332e382c31332e382c302c302c312c382c312e34332c372e38382c372e38382c302c302c312c332e39322c362e31396c302c2e3433612e37382e37382c302c302c312d2e36362e38344131392e32332c31392e32332c302c302c312c39382c33376131322e39322c31322e39322c302c302c312d362e33312d312e343441372e30382c372e30382c302c302c312c38382c33302e32336131302e38352c31302e38352c302c302c312d2e312d312e34342e382e382c302c302c312c2e36392d2e37385a4d31342e31352c3130632d2e30362d352e38362c332e34342d382e34392c382d392e34394332362e32362d2e34342c33312e32342e31362c33342e37332e37413131312e31342c3131312e31342c302c302c312c35362e35352c362e34613133302e32362c3133302e32362c302c302c312c32322c31302e382c32362e32352c32362e32352c302c302c312c332d2e37382c32342e37322c32342e37322c302c302c312c31342e38332c312e36392c33362c33362c302c302c312c31332e30392c31302e34322c34322e34322c34322e34322c302c302c312c372e35342c31322e393263312e32352c332e38312c312e34352c372e362d2e32332c31302e37392d322e37372c352e32352d31302e35362c362e32372d31362e31322c376c2d312e32332e31366135342e35332c35342e35332c302c302c312d322e38312c31322e3036413130382e36322c3130382e36322c302c302c312c39312e332c38347632352e323961392e36372c392e36372c302c302c312c392e32352c31302e343963302c2e34312c302c2e38312c302c312e313861312e38342c312e38342c302c302c312d312e38342c312e38314838362e313261382e382c382e382c302c302c312d352e312d312e35362c31302e38322c31302e38322c302c302c312d332e33352d342c322e31332c322e31332c302c302c312d2e322d2e34364c37332e35332c313033712d322e37332c322e31332d352e37362c342e3136632d312e322e382d322e34332c312e35392d332e36392c322e33356c2e362e313661382e32382c382e32382c302c302c312c352e30372c342c31352e33382c31352e33382c302c302c312c312e37312c372e31315631323161312e38332c312e38332c302c302c312d312e38332c312e3833682d3533632d322e35382e30392d342e34372d2e35322d352e37352d312e373341362e34392c362e34392c302c302c312c392e31312c313136762d31312e326134322e36312c34322e36312c302c302c312d362e33342d31314133382e37392c33382e37392c302c302c312c312e31312c37302e32392c33372c33372c302c302c312c31332e362c35302e35346c2e312d2e30396134312e30382c34312e30382c302c302c312c31312d362e333863372e33392d322e392c31372e39332d322e37372c32362d322e36382c352e32312e30362c392e33342e31312c31302e31392d2e343961342e382c342e382c302c302c302c312d2e39312c352e31312c352e31312c302c302c302c2e35362d2e383463302d2e32362c302d2e35322d2e30372d2e37386131362c31362c302c302c312d2e30362d342e322c39382e35312c39382e35312c302c302c302d31382e37362d332e3638632d372e34382d2e38332d31352e34342d312e31392d32332e34372d312e34316c2d312e33352c30632d322e35392c302d342e38362c302d372e34362d312e363741392c392c302c302c312c382c32332e363861392e36372c392e36372c302c302c312d2e39312d354131302e39312c31302e39312c302c302c312c382e34392c313461382e37342c382e37342c302c302c312c332e33372d332e323941382e322c382e322c302c302c312c31342e31352c31305a4d36392e31342c32326135342e37352c35342e37352c302c302c312c342e39342d332e32342c3132342e38382c3132342e38382c302c302c302d31382e382d39413130362e38392c3130362e38392c302c302c302c33342e31372c342e33314333312c332e38312c32362e34342c332e32352c32322e38392c34632d322e35352e35362d342e35392c312e39322d352c342e3739613133342e34392c3133342e34392c302c302c312c32362e332c332e382c3131352e36392c3131352e36392c302c302c312c32352c392e345a4d36342c32382e3635632e32312d2e34342e34322d2e38362e36362d312e32386131352e32362c31352e32362c302c302c312c312e37332d322e34372c3134362e32342c3134362e32342c302c302c302d31342e39322d362e322c39372e36392c39372e36392c302c302c302d31352e33342d34413132332e35372c3132332e35372c302c302c302c32312e30372c31332e32632d332e33392d2e30382d362e332e30382d372e34372e373261352e32312c352e32312c302c302c302d322c312e39342c372e332c372e332c302c302c302d312c332e31322c362e312c362e312c302c302c302c2e35352c332e31312c352e34332c352e34332c302c302c302c322c322e323163312e37332c312e30392c332e352c312e312c352e35312c312e313268312e343363382e31362e32332c31362e32332e35392c32332e37382c312e3432613130332e34312c3130332e34312c302c302c312c31392e32322c332e37362c31372e38342c31372e38342c302c302c312c2e38352d325a6d2d2e37362c31352e30362d2e32312e3136632d312e38322c312e332d362e34382c312e32342d31322e33352c312e31374334322e39312c34352c33322e37392c34342e38332c32362c34372e34376133372e34312c33372e34312c302c302c302d31302c352e38316c2d2e312e30384133332e34342c33332e34342c302c302c302c342e36362c37312e31376133352e31342c33352e31342c302c302c302c312e352c32312e33324133392e34372c33392e34372c302c302c302c31322e33352c31303361312e38322c312e38322c302c302c312c2e34322c312e313676313261332e30352c332e30352c302c302c302c2e36382c322e33372c342e32382c342e32382c302c302c302c332e31362e37334836372e36386131302c31302c302c302c302d312e31312d332e36392c342e372c342e372c302c302c302d322e38372d322e33322c31352e30382c31352e30382c302c302c302d342e342d2e3338682d323661312e38332c312e38332c302c302c312d2e31352d332e363563352e37332d2e37322c31302e33352d322e37342c31332e35372d362e32352c332e30362d332e33342c342e39312d382e312c352e33332d31342e3435762d2e31334131382e38382c31382e38382c302c302c302c34362e33352c37356132302e32322c32302e32322c302c302c302d372e34312d342e34322c32332e35342c32332e35342c302c302c302d382e35322d312e3235632d342e372e31392d392e31312c312e38332d31322c342e383361312e38332c312e38332c302c302c312d322e36352d322e353263332e35332d332e37312c382e38362d352e37332c31342e34372d366132372e30352c32372e30352c302c302c312c392e38352c312e34342c32342c32342c302c302c312c382e37342c352e32332c32322e34382c32322e34382c302c302c312c362e38352c31352e3832762e303861322e31372c322e31372c302c302c312c302c2e3336632d2e34372c372e32352d322e36362c31322e37372d362e332c31362e37356132312e32342c32312e32342c302c302c312d342e36322c332e37374835372e333571342e34342d322e33392c382e33392d3563322e36382d312e37392c352e32322d332e36392c372e36332d352e363761312e38322c312e38322c302c302c312c322e35372e32342c312e36392c312e36392c302c302c312c2e33352e36364c38312c3131352e363261372c372c302c302c302c322e31362c322e36322c352e30362c352e30362c302c302c302c332c2e394839362e383861362e35362c362e35362c302c302c302d312e36382d342e33382c372e31392c372e31392c302c302c302d342e37342d312e3833632d2e33362c302d2e36392c302d312c3061312e38332c312e38332c302c302c312d312e38332d312e38335638332e3661312e37352c312e37352c302c302c312c2e32332d2e38382c3130352e31312c3130352e31312c302c302c302c352e33342d31322e34362c35322c35322c302c302c302c322e35352d31302e34346c2d312e32332e31632d372e32332e35322d31342e35322d2e31322d32302e33342d334132302c32302c302c302c312c36332e32362c34332e37315a222f3e3c2f673e3c7374796c653e202e62617365207b66696c6c3a20236564656465643b666f6e742d66616d696c793a4d6f6e747365727261742c617269616c2c73616e732d73657269663b666f6e742d73697a653a333070783b666f6e742d7765696768743a3430303b7d202e736572696573207b746578742d7472616e73666f726d3a207570706572636173657d202e6c6f676f207b666f6e742d73697a653a32303070783b666f6e742d7765696768743a3130303b7d202e6d657461207b666f6e742d73697a653a313270783b7d202e736d616c6c207b666f6e742d73697a653a3870783b7d202e6275726e207b666f6e742d7765696768743a3530303b666f6e742d73697a653a313670783b7d207d3c2f7374796c653e3c67207472616e73666f726d3d227363616c6528302e3529207472616e736c617465283533332c2037393029223e3c636972636c6520723d22333922207374726f6b653d2223656465646564222066696c6c3d227472616e73706172656e74222f3e3c706174682066696c6c3d22236564656465642220643d224d302c3338206133382c333820302030203120302c2d3736206131392c313920302030203120302c3338206131392c313920302030203020302c3338207a206d202d35202d3537206120352c35203020312c302031302c30206120352c35203020312c30202d31302c30207a222066696c6c2d72756c653d226576656e6f6464222f3e3c706174682066696c6c3d22236564656465642220643d226d202d352c203139206120352c35203020312c302031302c30206120352c35203020312c30202d31302c30222f3e3c2f673e527562792020202020204f70616c202020202020546f70617a2020202020456d6572616c64202020417175616d6172696e6553617070686972652020416d657468797374202058656e747572696f6e204c696d6974656420202052617265202020202020457069632020202020204c6567656e646172792045786f7469632020202058756e69636f726e20203c726563742077696474683d2239342522206865696768743d22393625222066696c6c3d227472616e73706172656e74222072783d2231307078222072793d223130707822207374726f6b652d6c696e656a6f696e3d22726f756e642220783d2233252220793d22322522207374726f6b652d6461736861727261793d22312c3622207374726f6b653d22776869746522202f3e73733d2262617365206d6574612220646f6d696e616e742d626173656c696e65a2646970667358221220e3c6c1db4e3611f2cbb05e73bbe53007ce9a61ea0a9f4ed8e662e16a2f4cee3864736f6c63430008150033",
    "linkReferences": {
      "contracts/libs/DateTime.sol": {
        "DateTime": [
          {
            "start": 4270,
            "length": 20
          },
          {
            "start": 4506,
            "length": 20
          },
          {
            "start": 5576,
            "length": 20
          }
        ]
      },
      "contracts/libs/MintInfo.sol": {
        "MintInfo": [
          {
            "start": 611,
            "length": 20
          },
          {
            "start": 755,
            "length": 20
          },
          {
            "start": 906,
            "length": 20
          },
          {
            "start": 1035,
            "length": 20
          },
          {
            "start": 1159,
            "length": 20
          },
          {
            "start": 1283,
            "length": 20
          },
          {
            "start": 1412,
            "length": 20
          },
          {
            "start": 1810,
            "length": 20
          },
          {
            "start": 1943,
            "length": 20
          }
        ]
      },
      "contracts/libs/StringData.sol": {
        "StringData": [
          {
            "start": 1515,
            "length": 20
          },
          {
            "start": 4055,
            "length": 20
          },
          {
            "start": 5695,
            "length": 20
          }
        ]
      }
    }
  },
  "methodIdentifiers": {
    "BASE_LUMINOSITY()": "27c48381",
    "BASE_SATURATION()": "fb339855",
    "COLORS_FULL_SCALE()": "73116a56",
    "DEFAULT_OPACITY()": "262ddfd3",
    "GROUP_LUMINOSITY()": "987a800d",
    "GROUP_SATURATION()": "1e2bb849",
    "MAX_POWER()": "660e3592",
    "NO_COLOR()": "2dbfa595",
    "POWER_GROUP_SIZE()": "41b169f3",
    "SPECIAL_LUMINOSITY()": "4d8d5f4a",
    "attributes(uint256,uint256,uint256)": "f12897a4",
    "formattedString(uint256)": "0047a04e",
    "svgData(uint256,uint256,uint256,address,uint256)": "1b9345fd"
  },
  "id": 20
}