{
  "abi": [
    {
      "inputs": [],
      "name": "CLASSES",
      "outputs": [
        {
          "internalType": "bytes",
          "name": "",
          "type": "bytes"
        }
      ],
      "stateMutability": "view",
      "type": "function"
    },
    {
      "inputs": [],
      "name": "CLASSES_COUNT",
      "outputs": [
        {
          "internalType": "uint256",
          "name": "",
          "type": "uint256"
        }
      ],
      "stateMutability": "view",
      "type": "function"
    },
    {
      "inputs": [],
      "name": "CLASSES_NAME_LENGTH",
      "outputs": [
        {
          "internalType": "uint256",
          "name": "",
          "type": "uint256"
        }
      ],
      "stateMutability": "view",
      "type": "function"
    },
    {
      "inputs": [],
      "name": "QUOTES",
      "outputs": [
        {
          "internalType": "bytes",
          "name": "",
          "type": "bytes"
        }
      ],
      "stateMutability": "view",
      "type": "function"
    },
    {
      "inputs": [],
      "name": "QUOTES_COUNT",
      "outputs": [
        {
          "internalType": "uint256",
          "name": "",
          "type": "uint256"
        }
      ],
      "stateMutability": "view",
      "type": "function"
    },
    {
      "inputs": [],
      "name": "QUOTE_LENGTH",
      "outputs": [
        {
          "internalType": "uint256",
          "name": "",
          "type": "uint256"
        }
      ],
      "stateMutability": "view",
      "type": "function"
    },
    {
      "inputs": [
        {
          "internalType": "bytes",
          "name": "names",
          "type": "bytes"
        },
        {
          "internalType": "uint256",
          "name": "index",
          "type": "uint256"
        }
      ],
      "name": "getClassName",
      "outputs": [
        {
          "internalType": "string",
          "name": "",
          "type": "string"
        }
      ],
      "stateMutability": "pure",
      "type": "function"
    },
    {
      "inputs": [
        {
          "internalType": "bytes",
          "name": "quotes",
          "type": "bytes"
        },
        {
          "internalType": "uint256",
          "name": "index",
          "type": "uint256"
        }
      ],
      "name": "getQuote",
      "outputs": [
        {
          "internalType": "string",
          "name": "",
          "type": "string"
        }
      ],
      "stateMutability": "pure",
      "type": "function"
    }
  ],
  "bytecode": {
    "object": "0x61079b61003a600b82828239805160001a60731461002d57634e487b7160e01b600052600060045260246000fd5b30600052607381538281f3fe73000000000000000000000000000000000000000030146080604052600436106100925760003560e01c8063831b46a111610065578063831b46a1146100d75780638e2196ed146100ea578063b0eca69b146100f2578063e0beab2d1461010557600080fd5b806302c1a14c14610097578063192a63ed146100b25780633a24b8ef146100ba57806348b25502146100cf575b600080fd5b61009f600a81565b6040519081526020015b60405180910390f35b61009f600c81565b6100c261010d565b6040516100a991906102b3565b61009f604281565b6100c26100e53660046102c6565b61012c565b61009f600e81565b6100c26101003660046102c6565b6101fd565b6100c2610251565b60405180610340016040528061031881526020016103c2610318913981565b606061013a6001600c610354565b82111561018c5761014f60426000858761036d565b8080601f0160208091040260200160405190810160405280939291908181526020018383808284376000920191909152509293506101f692505050565b8383610199604285610397565b9060426101a78660016103ae565b6101b19190610397565b926101be9392919061036d565b8080601f0160208091040260200160405190810160405280939291908181526020018383808284376000920191909152509293505050505b9392505050565b6060600e82101561023a578383610215600a85610397565b90600a6102238660016103ae565b61022d9190610397565b9261014f9392919061036d565b506040805160208101909152600081529392505050565b6040518060c00160405280608c81526020016106da608c913981565b6000815180845260005b8181101561029357602081850181015186830182015201610277565b506000602082860101526020601f19601f83011685010191505092915050565b6020815260006101f6602083018461026d565b6000806000604084860312156102db57600080fd5b833567ffffffffffffffff808211156102f357600080fd5b818601915086601f83011261030757600080fd5b81358181111561031657600080fd5b87602082850101111561032857600080fd5b6020928301989097509590910135949350505050565b634e487b7160e01b600052601160045260246000fd5b818103818111156103675761036761033e565b92915050565b6000808585111561037d57600080fd5b8386111561038a57600080fd5b5050820193919092039150565b80820281158282048414176103675761036761033e565b808201808211156103675761036761033e56fe22496620796f75207265616c697a6520796f75206861766520656e6f7567682c20796f7520617265207472756c7920726963682e22202d204c616f20547a7520202022546865207265616c206d656469746174696f6e20697320686f7720796f75206c69766520796f7572206c6966652e22202d204a6f6e204b616261742d5a696e6e2022546f206b6e6f77207468617420796f7520646f206e6f74206b6e6f772069732074686520626573742e22202d204c616f20547a752020202020202020202020202022416e206f7665722d7368617270656e65642073776f72642063616e6e6f74206c617374206c6f6e672e22202d204c616f20547a7520202020202020202020202020225768656e20796f752061636365707420796f757273656c662c207468652077686f6c6520776f726c64206163636570747320796f752e22202d204c616f20547a75224d7573696320696e2074686520736f756c2063616e2062652068656172642062792074686520756e6976657273652e22202d204c616f20547a752020202020202022417320736f6f6e20617320796f752068617665206d61646520612074686f756768742c206c617567682061742069742e22202d204c616f20547a75202020202020225468652066757274686572206f6e6520676f65732c20746865206c657373206f6e65206b6e6f77732e22202d204c616f20547a75202020202020202020202020202253746f70207468696e6b696e672c20616e6420656e6420796f75722070726f626c656d732e22202d204c616f20547a7520202020202020202020202020202020202252656c696162696c6974792069732074686520666f756e646174696f6e206f6620636f6d6d69746d656e742e22202d20556e6b6e6f776e2020202020202020202022596f7572207061737420646f6573206e6f7420657175616c20796f7572206675747572652e22202d20546f6e7920526f6262696e732020202020202020202020202242652074686520706174682e20446f206e6f74207365656b2069742e22202d20596172612054736368616c6c656e65722020202020202020202020202020202020527562792020202020204f70616c202020202020546f70617a2020202020456d6572616c64202020417175616d6172696e6553617070686972652020416d657468797374202058656e747572696f6e204c696d6974656420202052617265202020202020457069632020202020204c6567656e646172792045786f7469632020202058756e69636f726e2020a2646970667358221220d707de2e9ce3a93713485ef08030a5d8b56b2058dcb385274b8e3c6c8b1f4ece64736f6c63430008150033",
    "linkReferences": {}
  },
  "methodIdentifiers": {
    "CLASSES()": "e0beab2d",
    "CLASSES_COUNT()": "8e2196ed",
    "CLASSES_NAME_LENGTH()": "02c1a14c",
    "QUOTES()": "3a24b8ef",
    "QUOTES_COUNT()": "192a63ed",
    "QUOTE_LENGTH()": "48b25502",
    "getClassName(bytes,uint256)": "b0eca69b",
    "getQuote(bytes,uint256)": "831b46a1"
  },
  "id": 23
}