{
  "abi": [
    {
      "inputs": [
        {
          "internalType": "address",
          "name": "dbxAddress",
          "type": "address"
        },
        {
          "internalType": "address",
          "name": "xenftAddress",
          "type": "address"
        },
        {
          "internalType": "address",
          "name": "_xenCrypto",
          "type": "address"
        }
      ],
      "stateMutability": "nonpayable",
      "type": "constructor"
    },
    {
      "anonymous": false,
      "inputs": [
        {
          "indexed": true,
          "internalType": "uint256",
          "name": "cycle",
          "type": "uint256"
        },
        {
          "indexed": false,
          "internalType": "uint256",
          "name": "DBXENFTId",
          "type": "uint256"
        },
        {
          "indexed": false,
          "internalType": "uint256",
          "name": "XENFTID",
          "type": "uint256"
        },
        {
          "indexed": false,
          "internalType": "uint256",
          "name": "fee",
          "type": "uint256"
        },
        {
          "indexed": true,
          "internalType": "address",
          "name": "minter",
          "type": "address"
        }
      ],
      "name": "DBXeNFTMinted",
      "type": "event"
    },
    {
      "anonymous": false,
      "inputs": [
        {
          "indexed": true,
          "internalType": "uint256",
          "name": "cycle",
          "type": "uint256"
        },
        {
          "indexed": true,
          "internalType": "uint256",
          "name": "tokenId",
          "type": "uint256"
        },
        {
          "indexed": false,
          "internalType": "uint256",
          "name": "fees",
          "type": "uint256"
        },
        {
          "indexed": true,
          "internalType": "address",
          "name": "owner",
          "type": "address"
        }
      ],
      "name": "FeesClaimed",
      "type": "event"
    },
    {
      "anonymous": false,
      "inputs": [
        {
          "indexed": false,
          "internalType": "uint256",
          "name": "cycle",
          "type": "uint256"
        },
        {
          "indexed": false,
          "internalType": "uint256",
          "name": "calculatedCycleReward",
          "type": "uint256"
        },
        {
          "indexed": false,
          "internalType": "uint256",
          "name": "summedCyclePowers",
          "type": "uint256"
        }
      ],
      "name": "NewCycleStarted",
      "type": "event"
    },
    {
      "anonymous": false,
      "inputs": [
        {
          "indexed": true,
          "internalType": "uint256",
          "name": "cycle",
          "type": "uint256"
        },
        {
          "indexed": true,
          "internalType": "uint256",
          "name": "tokenId",
          "type": "uint256"
        },
        {
          "indexed": false,
          "internalType": "uint256",
          "name": "amount",
          "type": "uint256"
        },
        {
          "indexed": true,
          "internalType": "address",
          "name": "owner",
          "type": "address"
        }
      ],
      "name": "Staked",
      "type": "event"
    },
    {
      "anonymous": false,
      "inputs": [
        {
          "indexed": true,
          "internalType": "uint256",
          "name": "cycle",
          "type": "uint256"
        },
        {
          "indexed": true,
          "internalType": "uint256",
          "name": "tokenId",
          "type": "uint256"
        },
        {
          "indexed": false,
          "internalType": "uint256",
          "name": "amount",
          "type": "uint256"
        },
        {
          "indexed": true,
          "internalType": "address",
          "name": "owner",
          "type": "address"
        }
      ],
      "name": "Unstaked",
      "type": "event"
    },
    {
      "anonymous": false,
      "inputs": [
        {
          "indexed": true,
          "internalType": "uint256",
          "name": "cycle",
          "type": "uint256"
        },
        {
          "indexed": false,
          "internalType": "uint256",
          "name": "dbxenftId",
          "type": "uint256"
        },
        {
          "indexed": false,
          "internalType": "uint256",
          "name": "xenftId",
          "type": "uint256"
        },
        {
          "indexed": true,
          "internalType": "address",
          "name": "owner",
          "type": "address"
        }
      ],
      "name": "XenRewardsClaimed",
      "type": "event"
    },
    {
      "inputs": [],
      "name": "BASE_XEN",
      "outputs": [
        {
          "internalType": "uint256",
          "name": "",
          "type": "uint256"
        }
      ],
      "stateMutability": "view",
      "type": "function"
    },
    {
      "inputs": [],
      "name": "MAX_BPS",
      "outputs": [
        {
          "internalType": "uint256",
          "name": "",
          "type": "uint256"
        }
      ],
      "stateMutability": "view",
      "type": "function"
    },
    {
      "inputs": [],
      "name": "MAX_PENALTY_PCT",
      "outputs": [
        {
          "internalType": "uint256",
          "name": "",
          "type": "uint256"
        }
      ],
      "stateMutability": "view",
      "type": "function"
    },
    {
      "inputs": [],
      "name": "SCALING_FACTOR",
      "outputs": [
        {
          "internalType": "uint256",
          "name": "",
          "type": "uint256"
        }
      ],
      "stateMutability": "view",
      "type": "function"
    },
    {
      "inputs": [],
      "name": "SECONDS_IN_DAY",
      "outputs": [
        {
          "internalType": "uint256",
          "name": "",
          "type": "uint256"
        }
      ],
      "stateMutability": "view",
      "type": "function"
    },
    {
      "inputs": [
        {
          "internalType": "uint256",
          "name": "",
          "type": "uint256"
        }
      ],
      "name": "baseDBXeNFTPower",
      "outputs": [
        {
          "internalType": "uint256",
          "name": "",
          "type": "uint256"
        }
      ],
      "stateMutability": "view",
      "type": "function"
    },
    {
      "inputs": [
        {
          "internalType": "uint256",
          "name": "tokenId",
          "type": "uint256"
        }
      ],
      "name": "claimFees",
      "outputs": [],
      "stateMutability": "nonpayable",
      "type": "function"
    },
    {
      "inputs": [
        {
          "internalType": "uint256",
          "name": "tokenId",
          "type": "uint256"
        }
      ],
      "name": "claimXen",
      "outputs": [],
      "stateMutability": "nonpayable",
      "type": "function"
    },
    {
      "inputs": [],
      "name": "currentCycle",
      "outputs": [
        {
          "internalType": "uint256",
          "name": "",
          "type": "uint256"
        }
      ],
      "stateMutability": "view",
      "type": "function"
    },
    {
      "inputs": [],
      "name": "currentCycleReward",
      "outputs": [
        {
          "internalType": "uint256",
          "name": "",
          "type": "uint256"
        }
      ],
      "stateMutability": "view",
      "type": "function"
    },
    {
      "inputs": [],
      "name": "currentStartedCycle",
      "outputs": [
        {
          "internalType": "uint256",
          "name": "",
          "type": "uint256"
        }
      ],
      "stateMutability": "view",
      "type": "function"
    },
    {
      "inputs": [
        {
          "internalType": "uint256",
          "name": "",
          "type": "uint256"
        }
      ],
      "name": "cycleAccruedFees",
      "outputs": [
        {
          "internalType": "uint256",
          "name": "",
          "type": "uint256"
        }
      ],
      "stateMutability": "view",
      "type": "function"
    },
    {
      "inputs": [
        {
          "internalType": "uint256",
          "name": "",
          "type": "uint256"
        }
      ],
      "name": "cycleFeesPerPowerSummed",
      "outputs": [
        {
          "internalType": "uint256",
          "name": "",
          "type": "uint256"
        }
      ],
      "stateMutability": "view",
      "type": "function"
    },
    {
      "inputs": [],
      "name": "dbxenft",
      "outputs": [
        {
          "internalType": "contract DBXENFT",
          "name": "",
          "type": "address"
        }
      ],
      "stateMutability": "view",
      "type": "function"
    },
    {
      "inputs": [
        {
          "internalType": "uint256",
          "name": "",
          "type": "uint256"
        }
      ],
      "name": "dbxenftAccruedFees",
      "outputs": [
        {
          "internalType": "uint256",
          "name": "",
          "type": "uint256"
        }
      ],
      "stateMutability": "view",
      "type": "function"
    },
    {
      "inputs": [
        {
          "internalType": "uint256",
          "name": "",
          "type": "uint256"
        }
      ],
      "name": "dbxenftEntryPower",
      "outputs": [
        {
          "internalType": "uint256",
          "name": "",
          "type": "uint256"
        }
      ],
      "stateMutability": "view",
      "type": "function"
    },
    {
      "inputs": [
        {
          "internalType": "uint256",
          "name": "",
          "type": "uint256"
        }
      ],
      "name": "dbxenftEntryPowerWithStake",
      "outputs": [
        {
          "internalType": "uint256",
          "name": "",
          "type": "uint256"
        }
      ],
      "stateMutability": "view",
      "type": "function"
    },
    {
      "inputs": [
        {
          "internalType": "uint256",
          "name": "",
          "type": "uint256"
        }
      ],
      "name": "dbxenftFirstStake",
      "outputs": [
        {
          "internalType": "uint256",
          "name": "",
          "type": "uint256"
        }
      ],
      "stateMutability": "view",
      "type": "function"
    },
    {
      "inputs": [
        {
          "internalType": "uint256",
          "name": "",
          "type": "uint256"
        }
      ],
      "name": "dbxenftPower",
      "outputs": [
        {
          "internalType": "uint256",
          "name": "",
          "type": "uint256"
        }
      ],
      "stateMutability": "view",
      "type": "function"
    },
    {
      "inputs": [
        {
          "internalType": "uint256",
          "name": "",
          "type": "uint256"
        }
      ],
      "name": "dbxenftSecondStake",
      "outputs": [
        {
          "internalType": "uint256",
          "name": "",
          "type": "uint256"
        }
      ],
      "stateMutability": "view",
      "type": "function"
    },
    {
      "inputs": [
        {
          "internalType": "uint256",
          "name": "",
          "type": "uint256"
        },
        {
          "internalType": "uint256",
          "name": "",
          "type": "uint256"
        }
      ],
      "name": "dbxenftStakeCycle",
      "outputs": [
        {
          "internalType": "uint256",
          "name": "",
          "type": "uint256"
        }
      ],
      "stateMutability": "view",
      "type": "function"
    },
    {
      "inputs": [
        {
          "internalType": "uint256",
          "name": "",
          "type": "uint256"
        }
      ],
      "name": "dbxenftUnderlyingXENFT",
      "outputs": [
        {
          "internalType": "uint256",
          "name": "",
          "type": "uint256"
        }
      ],
      "stateMutability": "view",
      "type": "function"
    },
    {
      "inputs": [
        {
          "internalType": "uint256",
          "name": "",
          "type": "uint256"
        }
      ],
      "name": "dbxenftWithdrawableStake",
      "outputs": [
        {
          "internalType": "uint256",
          "name": "",
          "type": "uint256"
        }
      ],
      "stateMutability": "view",
      "type": "function"
    },
    {
      "inputs": [],
      "name": "dxn",
      "outputs": [
        {
          "internalType": "contract IERC20",
          "name": "",
          "type": "address"
        }
      ],
      "stateMutability": "view",
      "type": "function"
    },
    {
      "inputs": [],
      "name": "getCurrentCycle",
      "outputs": [
        {
          "internalType": "uint256",
          "name": "",
          "type": "uint256"
        }
      ],
      "stateMutability": "view",
      "type": "function"
    },
    {
      "inputs": [],
      "name": "i_initialTimestamp",
      "outputs": [
        {
          "internalType": "uint256",
          "name": "",
          "type": "uint256"
        }
      ],
      "stateMutability": "view",
      "type": "function"
    },
    {
      "inputs": [],
      "name": "i_periodDuration",
      "outputs": [
        {
          "internalType": "uint256",
          "name": "",
          "type": "uint256"
        }
      ],
      "stateMutability": "view",
      "type": "function"
    },
    {
      "inputs": [],
      "name": "lastCycleReward",
      "outputs": [
        {
          "internalType": "uint256",
          "name": "",
          "type": "uint256"
        }
      ],
      "stateMutability": "view",
      "type": "function"
    },
    {
      "inputs": [
        {
          "internalType": "uint256",
          "name": "",
          "type": "uint256"
        }
      ],
      "name": "lastFeeUpdateCycle",
      "outputs": [
        {
          "internalType": "uint256",
          "name": "",
          "type": "uint256"
        }
      ],
      "stateMutability": "view",
      "type": "function"
    },
    {
      "inputs": [],
      "name": "lastStartedCycle",
      "outputs": [
        {
          "internalType": "uint256",
          "name": "",
          "type": "uint256"
        }
      ],
      "stateMutability": "view",
      "type": "function"
    },
    {
      "inputs": [
        {
          "internalType": "uint256",
          "name": "xenftId",
          "type": "uint256"
        }
      ],
      "name": "mintDBXENFT",
      "outputs": [],
      "stateMutability": "payable",
      "type": "function"
    },
    {
      "inputs": [
        {
          "internalType": "uint256",
          "name": "",
          "type": "uint256"
        }
      ],
      "name": "pendingDXN",
      "outputs": [
        {
          "internalType": "uint256",
          "name": "",
          "type": "uint256"
        }
      ],
      "stateMutability": "view",
      "type": "function"
    },
    {
      "inputs": [],
      "name": "pendingFees",
      "outputs": [
        {
          "internalType": "uint256",
          "name": "",
          "type": "uint256"
        }
      ],
      "stateMutability": "view",
      "type": "function"
    },
    {
      "inputs": [],
      "name": "pendingPower",
      "outputs": [
        {
          "internalType": "uint256",
          "name": "",
          "type": "uint256"
        }
      ],
      "stateMutability": "view",
      "type": "function"
    },
    {
      "inputs": [],
      "name": "pendingStakeWithdrawal",
      "outputs": [
        {
          "internalType": "uint256",
          "name": "",
          "type": "uint256"
        }
      ],
      "stateMutability": "view",
      "type": "function"
    },
    {
      "inputs": [],
      "name": "previousStartedCycle",
      "outputs": [
        {
          "internalType": "uint256",
          "name": "",
          "type": "uint256"
        }
      ],
      "stateMutability": "view",
      "type": "function"
    },
    {
      "inputs": [
        {
          "internalType": "uint256",
          "name": "",
          "type": "uint256"
        }
      ],
      "name": "rewardPerCycle",
      "outputs": [
        {
          "internalType": "uint256",
          "name": "",
          "type": "uint256"
        }
      ],
      "stateMutability": "view",
      "type": "function"
    },
    {
      "inputs": [
        {
          "internalType": "uint256",
          "name": "amount",
          "type": "uint256"
        },
        {
          "internalType": "uint256",
          "name": "tokenId",
          "type": "uint256"
        }
      ],
      "name": "stake",
      "outputs": [],
      "stateMutability": "payable",
      "type": "function"
    },
    {
      "inputs": [
        {
          "internalType": "uint256",
          "name": "",
          "type": "uint256"
        }
      ],
      "name": "summedCyclePowers",
      "outputs": [
        {
          "internalType": "uint256",
          "name": "",
          "type": "uint256"
        }
      ],
      "stateMutability": "view",
      "type": "function"
    },
    {
      "inputs": [
        {
          "internalType": "uint256",
          "name": "",
          "type": "uint256"
        }
      ],
      "name": "tokenEntryCycle",
      "outputs": [
        {
          "internalType": "uint256",
          "name": "",
          "type": "uint256"
        }
      ],
      "stateMutability": "view",
      "type": "function"
    },
    {
      "inputs": [
        {
          "internalType": "uint256",
          "name": "",
          "type": "uint256"
        }
      ],
      "name": "totalEntryPowerPerCycle",
      "outputs": [
        {
          "internalType": "uint256",
          "name": "",
          "type": "uint256"
        }
      ],
      "stateMutability": "view",
      "type": "function"
    },
    {
      "inputs": [
        {
          "internalType": "uint256",
          "name": "",
          "type": "uint256"
        }
      ],
      "name": "totalExtraEntryPower",
      "outputs": [
        {
          "internalType": "uint256",
          "name": "",
          "type": "uint256"
        }
      ],
      "stateMutability": "view",
      "type": "function"
    },
    {
      "inputs": [
        {
          "internalType": "uint256",
          "name": "tokenId",
          "type": "uint256"
        },
        {
          "internalType": "uint256",
          "name": "amount",
          "type": "uint256"
        }
      ],
      "name": "unstake",
      "outputs": [],
      "stateMutability": "nonpayable",
      "type": "function"
    },
    {
      "inputs": [],
      "name": "xenCrypto",
      "outputs": [
        {
          "internalType": "contract IXENCrypto",
          "name": "",
          "type": "address"
        }
      ],
      "stateMutability": "view",
      "type": "function"
    },
    {
      "inputs": [],
      "name": "xenft",
      "outputs": [
        {
          "internalType": "contract IXENFT",
          "name": "",
          "type": "address"
        }
      ],
      "stateMutability": "view",
      "type": "function"
    }
  ],
  "bytecode": {
    "object": "0x6101406040523480156200001257600080fd5b50604051620047583803806200475883398101604081905262000035916200012b565b60016000556001600160a01b0380841660a052828116608052811660c052620151806101005242610120526040516200006e9062000100565b604051809103906000f0801580156200008b573d6000803e3d6000fd5b506001600160a01b031660e052505069021e19e0c9bab24000006005819055600080527f7e7fa33969761a458e04f477e039a608702b4f924981d6653935a8319a08ad7b81905560146020527f4f26c3876aa9f4b92579780beea1161a61f87ebf1ec6ee865b299e447ecba99c555062000175565b611602806200315683390190565b80516001600160a01b03811681146200012657600080fd5b919050565b6000806000606084860312156200014157600080fd5b6200014c846200010e565b92506200015c602085016200010e565b91506200016c604085016200010e565b90509250925092565b60805160a05160c05160e0516101005161012051612f1a6200023c60003960008181610607015261165f0152600081816103eb015261163b0152600081816105320152818161093b01528181610d79015281816111f1015281816114c0015261190b01526000818161056601528181612876015261295e0152600081816104bb0152818161113d015261143301526000818161043501528181610a2601528181610ca3015281816116b10152818161177b01528181611af801526123b40152612f1a6000f3fe6080604052600436106102725760003560e01c8063844ba7741161014f578063b6ef1346116100c1578063e870fcf61161007a578063e870fcf614610860578063eeff869014610873578063ef4cadc5146108a0578063f1b371e2146108c3578063f4838333146108d9578063fd967f471461090657600080fd5b8063b6ef134614610781578063bab2f552146107ae578063be26ed7f146107c4578063dbeffc87146107d9578063dd3cc78f14610806578063e1012cb51461083357600080fd5b80639e2c8a5b116101135780639e2c8a5b14610699578063a95f1dac146106b9578063ac68a748146106cf578063adc0f686146106ef578063b284b9d51461071c578063b4784d5a1461075457600080fd5b8063844ba774146105c85780638bd95563146105f55780638fccb3c51461062957806391b300201461065657806395cc5d491461066c57600080fd5b8063450ed530116101e857806361a52a36116101ac57806361a52a36146104f357806368f057691461050a5780636b1d43111461052057806371141a581461055457806375e04604146105885780637b0472f0146105b557600080fd5b8063450ed5301461042357806345bb28dc1461046f578063473284e9146104915780635afe54d2146104a95780635f5080b4146104dd57600080fd5b80631b9197df1161023a5780631b9197df14610353578063224438d11461038057806326ab3f49146103965780632c1c21b0146103c35780632f7cdab0146103d9578063436091c11461040d57600080fd5b806302d443211461027757806304a8a021146102b75780630ece2154146102e45780630f2e12281461031157806313e675be14610326575b600080fd5b34801561028357600080fd5b506102a4610292366004612c89565b60186020526000908152604090205481565b6040519081526020015b60405180910390f35b3480156102c357600080fd5b506102a46102d2366004612c89565b60136020526000908152604090205481565b3480156102f057600080fd5b506102a46102ff366004612c89565b600a6020526000908152604090205481565b34801561031d57600080fd5b506102a4606381565b34801561033257600080fd5b506102a4610341366004612c89565b601a6020526000908152604090205481565b34801561035f57600080fd5b506102a461036e366004612c89565b600f6020526000908152604090205481565b34801561038c57600080fd5b506102a460085481565b3480156103a257600080fd5b506102a46103b1366004612c89565b601c6020526000908152604090205481565b3480156103cf57600080fd5b506102a460095481565b3480156103e557600080fd5b506102a47f000000000000000000000000000000000000000000000000000000000000000081565b34801561041957600080fd5b506102a460045481565b34801561042f57600080fd5b506104577f000000000000000000000000000000000000000000000000000000000000000081565b6040516001600160a01b0390911681526020016102ae565b34801561047b57600080fd5b5061048f61048a366004612c89565b61091d565b005b34801561049d57600080fd5b506102a4633b9aca0081565b3480156104b557600080fd5b506104577f000000000000000000000000000000000000000000000000000000000000000081565b3480156104e957600080fd5b506102a460025481565b3480156104ff57600080fd5b506102a46201518081565b34801561051657600080fd5b506102a460075481565b34801561052c57600080fd5b506104577f000000000000000000000000000000000000000000000000000000000000000081565b34801561056057600080fd5b506104577f000000000000000000000000000000000000000000000000000000000000000081565b34801561059457600080fd5b506102a46105a3366004612c89565b60126020526000908152604090205481565b61048f6105c3366004612ca2565b610d5b565b3480156105d457600080fd5b506102a46105e3366004612c89565b600d6020526000908152604090205481565b34801561060157600080fd5b506102a47f000000000000000000000000000000000000000000000000000000000000000081565b34801561063557600080fd5b506102a4610644366004612c89565b60166020526000908152604090205481565b34801561066257600080fd5b506102a460055481565b34801561067857600080fd5b506102a4610687366004612c89565b60196020526000908152604090205481565b3480156106a557600080fd5b5061048f6106b4366004612ca2565b6111d3565b3480156106c557600080fd5b506102a460065481565b3480156106db57600080fd5b5061048f6106ea366004612c89565b6114a2565b3480156106fb57600080fd5b506102a461070a366004612c89565b60146020526000908152604090205481565b34801561072857600080fd5b506102a4610737366004612ca2565b601760209081526000928352604080842090915290825290205481565b34801561076057600080fd5b506102a461076f366004612c89565b600e6020526000908152604090205481565b34801561078d57600080fd5b506102a461079c366004612c89565b60116020526000908152604090205481565b3480156107ba57600080fd5b506102a460015481565b3480156107d057600080fd5b506102a4611637565b3480156107e557600080fd5b506102a46107f4366004612c89565b60156020526000908152604090205481565b34801561081257600080fd5b506102a4610821366004612c89565b600c6020526000908152604090205481565b34801561083f57600080fd5b506102a461084e366004612c89565b601b6020526000908152604090205481565b61048f61086e366004612c89565b611693565b34801561087f57600080fd5b506102a461088e366004612c89565b60106020526000908152604090205481565b3480156108ac57600080fd5b506102a46b1d6329f1c35ca4bfabb9f56160281b81565b3480156108cf57600080fd5b506102a460035481565b3480156108e557600080fd5b506102a46108f4366004612c89565b600b6020526000908152604090205481565b34801561091257600080fd5b506102a46298968081565b610925611bbe565b6040516331a9108f60e11b8152600481018290527f0000000000000000000000000000000000000000000000000000000000000000908290339081906001600160a01b03851690636352211e90602401602060405180830381865afa158015610992573d6000803e3d6000fd5b505050506040513d601f19601f820116820180604052508101906109b69190612cc4565b6001600160a01b0316146109e55760405162461bcd60e51b81526004016109dc90612ced565b60405180910390fd5b6109ed611c17565b6109f5611c32565b6109fe84611d17565b6000848152601c602052604080822054905163443aa53360e01b8152600481018290529091907f00000000000000000000000000000000000000000000000000000000000000006001600160a01b03169063443aa53390602401602060405180830381865afa158015610a75573d6000803e3d6000fd5b505050506040513d601f19601f82011682018060405250810190610a999190612d24565b60405163e90cdc8960e01b81526004810182905290915073__$15046a4eb87352c1cd8587f1d1a014d95c$__9063e90cdc8990602401602060405180830381865af4158015610aec573d6000803e3d6000fd5b505050506040513d601f19601f82011682018060405250810190610b109190612d4d565b15610b5d5760405162461bcd60e51b815260206004820152601760248201527f58454e46543a20416c72656164792072656465656d656400000000000000000060448201526064016109dc565b6000868152600e602052604090205460015403610bbc5760405162461bcd60e51b815260206004820181905260248201527f43616e206e6f7420636c61696d20647572696e6720656e747279206379636c6560448201526064016109dc565b600086815260106020908152604080832054601190925290912054670de0b6b3a7640000811115610c87576000610bfc83670de0b6b3a7640000846120e3565b60008a81526010602052604090208190559050610c198184612d7e565b60008a8152601160205260409020670de0b6b3a764000090556003546004549194509003610c5e578260076000828254610c539190612d91565b90915550610c859050565b60015460009081526012602052604081208054859290610c7f908490612d7e565b90915550505b505b60405163f5878b9b60e01b8152600481018590523360248201527f00000000000000000000000000000000000000000000000000000000000000006001600160a01b03169063f5878b9b90604401600060405180830381600087803b158015610cef57600080fd5b505af1158015610d03573d6000803e3d6000fd5b5050600154604080518c8152602081018990523394509192507fb60fc2130bad1eb610319d28cbe6fa1497a3ce92cabb147ee9beb72f643552d0910160405180910390a350505050505050610d586001600055565b50565b610d63611bbe565b6040516331a9108f60e11b8152600481018290527f0000000000000000000000000000000000000000000000000000000000000000908290339081906001600160a01b03851690636352211e90602401602060405180830381865afa158015610dd0573d6000803e3d6000fd5b505050506040513d601f19601f82011682018060405250810190610df49190612cc4565b6001600160a01b031614610e1a5760405162461bcd60e51b81526004016109dc90612ced565b60008511610e6a5760405162461bcd60e51b815260206004820152601760248201527f444258654e46543a20616d6f756e74206973207a65726f00000000000000000060448201526064016109dc565b610e72611c17565b610e7a611c32565b610e8384611d17565b6000848152600d602052604081205490819003610edb5760405162461bcd60e51b81526020600482015260166024820152751110961953919508191bd95cc81b9bdd08195e1a5cdd60521b60448201526064016109dc565b6000610ee6876121d3565b905080341015610f385760405162461bcd60e51b815260206004820152601b60248201527f56616c7565206c657373207468616e207374616b696e6720666565000000000060448201526064016109dc565b6001546003548103610f6d576000818152600a602052604081208054849290610f62908490612d91565b90915550610f859050565b8160086000828254610f7f9190612d91565b90915550505b6000610f92826001612d91565b905060035460045403610fb057600454610fad906001612d91565b90505b6000888152601560205260409020548114801590610fdc57506000888152601660205260409020548114155b1561103357600088815260156020526040812054900361100c576000888152601560205260409020819055611033565b60008881526016602052604081205490036110335760008881526016602052604090208190555b6000888152601760209081526040808320848452909152812080548b929061105c908490612d91565b9091555050600088815260186020526040812080548b929061107f908490612d91565b909155505060035460008981526011602052604081205490036110fc5760006110a8868c612238565b905085600f600084815260200190815260200160002060008282546110cd9190612d91565b90915550506000828152600c6020526040812080548392906110f0908490612d91565b90915550611130915050565b600089815260116020526040812054611115908c612238565b905080600960008282546111299190612d91565b9091555050505b6111656001600160a01b037f00000000000000000000000000000000000000000000000000000000000000001633308d61224e565b611178336111738634612d7e565b6122b9565b336001600160a01b031689847fa169c4f2ed3a01cba92af71efc2549d8a0a6dc86a1f2e5ca0d66148d26225adf8d6040516111b591815260200190565b60405180910390a450505050505050506111cf6001600055565b5050565b6111db611bbe565b6040516331a9108f60e11b8152600481018390527f0000000000000000000000000000000000000000000000000000000000000000908390339081906001600160a01b03851690636352211e90602401602060405180830381865afa158015611248573d6000803e3d6000fd5b505050506040513d601f19601f8201168201806040525081019061126c9190612cc4565b6001600160a01b0316146112925760405162461bcd60e51b81526004016109dc90612ced565b600084116112e25760405162461bcd60e51b815260206004820152601760248201527f444258654e46543a20416d6f756e74206973207a65726f00000000000000000060448201526064016109dc565b6112ea611c17565b6112f2611c32565b6112fb85611d17565b6000858152601b60205260409020548411156113715760405162461bcd60e51b815260206004820152602f60248201527f444258654e46543a20416d6f756e742067726561746572207468616e2077697460448201526e686472617761626c65207374616b6560881b60648201526084016109dc565b60008581526011602052604081205461138a9086612238565b905084601b600088815260200190815260200160002060008282546113af9190612d7e565b9091555050600086815260106020526040812080548392906113d2908490612d7e565b9091555050600354600454036113ff5780600760008282546113f49190612d91565b909155506114269050565b60015460009081526012602052604081208054839290611420908490612d7e565b90915550505b61145a6001600160a01b037f0000000000000000000000000000000000000000000000000000000000000000163387612361565b600154604051868152339188917fe58f1bc928f89a539038781e3855b3646edb6dacfabffbc4f320f272e6bb4d6c9060200160405180910390a4505050506111cf6001600055565b6114aa611bbe565b6040516331a9108f60e11b8152600481018290527f0000000000000000000000000000000000000000000000000000000000000000908290339081906001600160a01b03851690636352211e90602401602060405180830381865afa158015611517573d6000803e3d6000fd5b505050506040513d601f19601f8201168201806040525081019061153b9190612cc4565b6001600160a01b0316146115615760405162461bcd60e51b81526004016109dc90612ced565b611569611c17565b611571611c32565b61157a84611d17565b600084815260196020526040902054806115d65760405162461bcd60e51b815260206004820152601760248201527f646258454e46543a20616d6f756e74206973207a65726f00000000000000000060448201526064016109dc565b6000858152601960205260408120556115ef33826122b9565b600154604051828152339187917fd387de5fb65e567ab6f6d2ec34cae5e68788022d82dbd9aa7f787f0a8d1563c09060200160405180910390a450505050610d586001600055565b60007f00000000000000000000000000000000000000000000000000000000000000006116847f000000000000000000000000000000000000000000000000000000000000000042612d7e565b61168e9190612dba565b905090565b61169b611bbe565b6040516331a9108f60e11b8152600481018290527f0000000000000000000000000000000000000000000000000000000000000000908290339081906001600160a01b03851690636352211e90602401602060405180830381865afa158015611708573d6000803e3d6000fd5b505050506040513d601f19601f8201168201806040525081019061172c9190612cc4565b6001600160a01b0316146117525760405162461bcd60e51b81526004016109dc90612ced565b61175a611c17565b611762611c32565b60405163443aa53360e01b8152600481018590526000907f00000000000000000000000000000000000000000000000000000000000000006001600160a01b03169063443aa53390602401602060405180830381865afa1580156117ca573d6000803e3d6000fd5b505050506040513d601f19601f820116820180604052508101906117ee9190612d24565b60405163111f105d60e31b8152600481018290529091506000908190819073__$15046a4eb87352c1cd8587f1d1a014d95c$__906388f882e89060240161012060405180830381865af4158015611849573d6000803e3d6000fd5b505050506040513d601f19601f8201168201806040525081019061186d9190612ddc565b98505050505050509250925060008082156118915766038d7ea4c6800091506118ab565b61189b8a87612391565b90506118a88185876124f1565b91505b813410156118f35760405162461bcd60e51b81526020600482015260156024820152745061796d656e74206c657373207468616e2066656560581b60448201526064016109dc565b604051630632cd2960e31b81523360048201526000907f00000000000000000000000000000000000000000000000000000000000000006001600160a01b0316906331966948906024016020604051808303816000875af115801561195c573d6000803e3d6000fd5b505050506040513d601f19601f820116820180604052508101906119809190612d24565b6001549091508415611a2b576000828152601160209081526040808320670de0b6b3a76400009081905560109092529091205580156119d7576004546119c7906001612d91565b6000838152601a60205260409020555b6003548103611a115760008181526012602052604081208054670de0b6b3a76400009290611a06908490612d91565b90915550611a949050565b670de0b6b3a764000060096000828254611a069190612d91565b611a33612583565b6000828152600d60209081526040808320869055600e8252808320849055838352600b90915281208054859290611a6b908490612d91565b90915550508015611a9457600454611a84906001612d91565b6000838152601a60205260409020555b6000818152600a6020526040902054611aae908590612d91565b6000828152600a6020908152604080832093909355848252601c90528190208d9055516323b872dd60e01b8152336004820152306024820152604481018d90526001600160a01b037f000000000000000000000000000000000000000000000000000000000000000016906323b872dd90606401600060405180830381600087803b158015611b3c57600080fd5b505af1158015611b50573d6000803e3d6000fd5b50505050611b643385346111739190612d7e565b60408051838152602081018e9052908101859052339082907f351a36c9c7d284a243725ea280c7ca2b2b1b02bf301dd57d03cbc43956164e789060600160405180910390a35050505050505050505050610d586001600055565b600260005403611c105760405162461bcd60e51b815260206004820152601f60248201527f5265656e7472616e637947756172643a207265656e7472616e742063616c6c0060448201526064016109dc565b6002600055565b6000611c21611637565b9050600154811115610d5857600155565b60035460015414611c5557600454611c4b906001612d91565b6002556003546004555b600454600154118015611c895750601360006004546001611c769190612d91565b8152602001908152602001600020546000145b15611d1557600454600090815260126020908152604080832054600a909252822054611cc5906b1d6329f1c35ca4bfabb9f56160281b90612e5a565b611ccf9190612dba565b600254600090815260136020526040902054909150611cef908290612d91565b601360006004546001611d029190612d91565b8152602081019190915260400160002055505b565b6000818152600e6020908152604080832054601190925290912054158015611d40575080600154115b15611da6576000828152600d60209081526040808320548484526014835281842054600b909352922054611d759291906120e3565b6000838152601160209081526040808320849055601090915281208054909190611da0908490612d91565b90915550505b60045460015481108015611dd25750611dc0816001612d91565b6000848152601a602052604090205414155b15611fb7576000838152601a602090815260408083205483526013918290528220546b1d6329f1c35ca4bfabb9f56160281b92909190611e13856001612d91565b815260200190815260200160002054611e2c9190612d7e565b600085815260106020526040902054611e459190612e5a565b611e4f9190612dba565b60008481526019602052604081208054909190611e6d908490612d91565b90915550506000838152601860205260409020548015611f9b57600084815260156020526040812054611ea290600190612d7e565b60008681526011602052604081205491925090611ebf9084612238565b9050818414158015611ed357508360035414155b15611f68576b1d6329f1c35ca4bfabb9f56160281b60136000611ef7856001612d91565b81526020019081526020016000205460136000876001611f179190612d91565b815260200190815260200160002054611f309190612d7e565b611f3a9083612e5a565b611f449190612dba565b60008781526019602052604081208054909190611f62908490612d91565b90915550505b6000868152601860209081526040808320839055601090915281208054839290611f93908490612d91565b909155505050505b611fa6826001612d91565b6000858152601a6020526040902055505b6000838152601560205260409020548015801590611fd6575080600154115b156120dd576000848152601760209081526040808320848452825280832054878452601b9092528220805491928392612010908490612d91565b90915550506000858152601760209081526040808320858452825280832083905587835260158252808320839055601690915290205480156120da578060015411156120bd576000868152601760209081526040808320848452825280832054898452601b909252822080549192839261208b908490612d91565b9091555050506000868152601760209081526040808320848452825280832083905588835260169091528120556120da565b600086815260156020908152604080832084905560169091528120555b50505b50505050565b600080806000198587098587029250828110838203039150508060000361211d5783828161211357612113612da4565b04925050506121cc565b8084116121645760405162461bcd60e51b81526020600482015260156024820152744d6174683a206d756c446976206f766572666c6f7760581b60448201526064016109dc565b600084868809851960019081018716968790049682860381900495909211909303600082900391909104909201919091029190911760038402600290811880860282030280860282030280860282030280860282030280860282030280860290910302029150505b9392505050565b60006121e16103e883612dba565b9050600081116122335760405162461bcd60e51b815260206004820152601d60248201527f444258654e46543a207374616b65466565206d757374206265203e203000000060448201526064016109dc565b919050565b60006121cc838368056bc75e2d631000006120e3565b6040516001600160a01b03808516602483015283166044820152606481018290526120dd9085906323b872dd60e01b906084015b60408051601f198184030181529190526020810180516001600160e01b03166001600160e01b031990931692909217909152612776565b6000826001600160a01b03168260405160006040518083038185875af1925050503d8060008114612306576040519150601f19603f3d011682016040523d82523d6000602084013e61230b565b606091505b505090508061235c5760405162461bcd60e51b815260206004820152601c60248201527f444258656e3a206661696c656420746f2073656e6420616d6f756e740000000060448201526064016109dc565b505050565b6040516001600160a01b03831660248201526044810182905261235c90849063a9059cbb60e01b90606401612282565b60405163a1a53fa160e01b81526004810183905260009081906001600160a01b037f0000000000000000000000000000000000000000000000000000000000000000169063a1a53fa190602401602060405180830381865afa1580156123fb573d6000803e3d6000fd5b505050506040513d601f19601f8201168201806040525081019061241f9190612d24565b905060008060008060008773__$15046a4eb87352c1cd8587f1d1a014d95c$__6388f882e890916040518263ffffffff1660e01b815260040161246491815260200190565b61012060405180830381865af4158015612482573d6000803e3d6000fd5b505050506040513d601f19601f820116820180604052508101906124a69190612ddc565b505050509450945094509450945060006124c3848787868661284b565b90506124cf8782612e5a565b6124e190670de0b6b3a7640000612e5a565b9750505050505050505b92915050565b6000806124fe83856129eb565b905080600061250f82612c7d612e5a565b9050600061252082624c4b40612a76565b905060006125318262989680612d7e565b9050600061254282624c4b40612a8c565b905060006125548b83629896806120e3565b905061257466038d7ea4c6800061256f633b9aca0084612dba565b612a8c565b9b9a5050505050505050505050565b6001546000818152601460205260408120549003610d585760055460068190556000906125b290606490612dba565b6006546125bf9190612d91565b600581905560008381526014602052604090208190556008549091501561260c576008546000838152600a602052604081208054909190612601908490612d91565b909155505060006008555b6004546000818152600f602052604090205415612677576000818152600c6020908152604080832054600654600b9093529083205461264b92906120e3565b9050806012600086815260200190815260200160002060008282546126709190612d91565b9091555050505b600954156126ab57600954600084815260126020526040812080549091906126a0908490612d91565b909155505060006009555b60038390556000818152601260205260409020546126ca908390612d91565b600084815260126020526040812080549091906126e8908490612d91565b9091555050600754156127215760075460008481526012602052604081208054909190612716908490612d7e565b909155505060006007555b60015460008481526012602090815260409182902054825193845290830185905282820152517f0666a61c1092f5b86c2cfe6ea1ad0d9a36032c4fb92d285b4e43f662d48f19b49181900360600190a1505050565b60006127cb826040518060400160405280602081526020017f5361666545524332303a206c6f772d6c6576656c2063616c6c206661696c6564815250856001600160a01b0316612a9b9092919063ffffffff16565b90508051600014806127ec5750808060200190518101906127ec9190612d4d565b61235c5760405162461bcd60e51b815260206004820152602a60248201527f5361666545524332303a204552433230206f7065726174696f6e20646964206e6044820152691bdd081cdd58d8d9595960b21b60648201526084016109dc565b600080844211156128715760006128628642612d7e565b905061286d81612ab2565b9150505b6000877f00000000000000000000000000000000000000000000000000000000000000006001600160a01b0316631c2440826040518163ffffffff1660e01b8152600401602060405180830381865afa1580156128d2573d6000803e3d6000fd5b505050506040513d601f19601f820116820180604052508101906128f69190612d24565b6129009190612d7e565b9050600060028211612913576002612915565b815b90506000612925866103e8612d91565b60405163587e8fe160e11b81526004810184905260248101899052604481018b9052606481018290529091506000906001600160a01b037f0000000000000000000000000000000000000000000000000000000000000000169063b0fd1fc290608401602060405180830381865afa1580156129a5573d6000803e3d6000fd5b505050506040513d601f19601f820116820180604052508101906129c99190612d24565b905060646129d78682612d7e565b6129e19083612e5a565b6125749190612dba565b600080600083421015612a235762015180612a064286612d7e565b612a109190612dba565b9150612a1c8286612d7e565b9050612a59565b6000915062015180612a358542612d7e565b612a426201518088612e5a565b612a4c9190612d91565b612a569190612dba565b90505b81811115612a6e57612a6b8282612d7e565b92505b505092915050565b6000818310612a8557816121cc565b5090919050565b6000818311612a8557816121cc565b6060612aaa8484600085612b10565b949350505050565b600080612ac26201518084612dba565b90506006811115612ad65750606392915050565b600060016007612ae7846003612d91565b6001901b612af59190612dba565b612aff9190612d7e565b9050606381106121cc576063612aaa565b606082471015612b715760405162461bcd60e51b815260206004820152602660248201527f416464726573733a20696e73756666696369656e742062616c616e636520666f6044820152651c8818d85b1b60d21b60648201526084016109dc565b600080866001600160a01b03168587604051612b8d9190612e95565b60006040518083038185875af1925050503d8060008114612bca576040519150601f19603f3d011682016040523d82523d6000602084013e612bcf565b606091505b5091509150612be087838387612beb565b979650505050505050565b60608315612c5a578251600003612c53576001600160a01b0385163b612c535760405162461bcd60e51b815260206004820152601d60248201527f416464726573733a2063616c6c20746f206e6f6e2d636f6e747261637400000060448201526064016109dc565b5081612aaa565b612aaa8383815115612c6f5781518083602001fd5b8060405162461bcd60e51b81526004016109dc9190612eb1565b600060208284031215612c9b57600080fd5b5035919050565b60008060408385031215612cb557600080fd5b50508035926020909101359150565b600060208284031215612cd657600080fd5b81516001600160a01b03811681146121cc57600080fd5b60208082526018908201527f596f7520646f206e6f74206f776e2074686973204e4654210000000000000000604082015260600190565b600060208284031215612d3657600080fd5b5051919050565b8051801515811461223357600080fd5b600060208284031215612d5f57600080fd5b6121cc82612d3d565b634e487b7160e01b600052601160045260246000fd5b818103818111156124eb576124eb612d68565b808201808211156124eb576124eb612d68565b634e487b7160e01b600052601260045260246000fd5b600082612dd757634e487b7160e01b600052601260045260246000fd5b500490565b60008060008060008060008060006101208a8c031215612dfb57600080fd5b8951985060208a0151975060408a0151965060608a0151955060808a0151945060a08a01519350612e2e60c08b01612d3d565b9250612e3c60e08b01612d3d565b9150612e4b6101008b01612d3d565b90509295985092959850929598565b80820281158282048414176124eb576124eb612d68565b60005b83811015612e8c578181015183820152602001612e74565b50506000910152565b60008251612ea7818460208701612e71565b9190910192915050565b6020815260008251806020840152612ed0816040850160208701612e71565b601f01601f1916919091016040019291505056fea26469706673582212208f7e9b5aaf982fbf3cf12c1db1f793cf5f488d914170874169530d907558b17864736f6c6343000815003360a06040523480156200001157600080fd5b506040518060400160405280600981526020016811109611538813919560ba1b815250604051806040016040528060078152602001661110961153919560ca1b815250816000908162000065919062000126565b50600162000074828262000126565b50503360805250620001f2565b634e487b7160e01b600052604160045260246000fd5b600181811c90821680620000ac57607f821691505b602082108103620000cd57634e487b7160e01b600052602260045260246000fd5b50919050565b601f8211156200012157600081815260208120601f850160051c81016020861015620000fc5750805b601f850160051c820191505b818110156200011d5782815560010162000108565b5050505b505050565b81516001600160401b0381111562000142576200014262000081565b6200015a8162000153845462000097565b84620000d3565b602080601f831160018114620001925760008415620001795750858301515b600019600386901b1c1916600185901b1785556200011d565b600085815260208120601f198616915b82811015620001c357888601518255948401946001909101908401620001a2565b5085821015620001e25787850151600019600388901b60f8161c191681555b5050505050600190811b01905550565b6080516113ed620002156000396000818161021701526104eb01526113ed6000f3fe608060405234801561001057600080fd5b50600436106100f55760003560e01c80636352211e11610097578063b88d4fde11610066578063b88d4fde146101ff578063c45a015514610212578063c87b56dd14610239578063e985e9c51461024c57600080fd5b80636352211e146101be57806370a08231146101d157806395d89b41146101e4578063a22cb465146101ec57600080fd5b8063095ea7b3116100d3578063095ea7b31461016257806323b872dd14610177578063319669481461018a57806342842e0e146101ab57600080fd5b806301ffc9a7146100fa57806306fdde0314610122578063081812fc14610137575b600080fd5b61010d610108366004610f52565b610288565b60405190151581526020015b60405180910390f35b61012a6102da565b6040516101199190610fbf565b61014a610145366004610fd2565b61036c565b6040516001600160a01b039091168152602001610119565b610175610170366004611007565b610393565b005b610175610185366004611031565b6104ad565b61019d61019836600461106d565b6104de565b604051908152602001610119565b6101756101b9366004611031565b610579565b61014a6101cc366004610fd2565b610594565b61019d6101df36600461106d565b6105f4565b61012a61067a565b6101756101fa366004611088565b610689565b61017561020d3660046110da565b610698565b61014a7f000000000000000000000000000000000000000000000000000000000000000081565b61012a610247366004610fd2565b6106d0565b61010d61025a3660046111b6565b6001600160a01b03918216600090815260056020908152604080832093909416825291909152205460ff1690565b60006001600160e01b031982166380ac58cd60e01b14806102b957506001600160e01b03198216635b5e139f60e01b145b806102d457506301ffc9a760e01b6001600160e01b03198316145b92915050565b6060600080546102e9906111e9565b80601f0160208091040260200160405190810160405280929190818152602001828054610315906111e9565b80156103625780601f1061033757610100808354040283529160200191610362565b820191906000526020600020905b81548152906001019060200180831161034557829003601f168201915b5050505050905090565b600061037782610744565b506000908152600460205260409020546001600160a01b031690565b600061039e82610594565b9050806001600160a01b0316836001600160a01b0316036104105760405162461bcd60e51b815260206004820152602160248201527f4552433732313a20617070726f76616c20746f2063757272656e74206f776e656044820152603960f91b60648201526084015b60405180910390fd5b336001600160a01b038216148061042c575061042c813361025a565b61049e5760405162461bcd60e51b815260206004820152603d60248201527f4552433732313a20617070726f76652063616c6c6572206973206e6f7420746f60448201527f6b656e206f776e6572206f7220617070726f76656420666f7220616c6c0000006064820152608401610407565b6104a883836107a6565b505050565b6104b73382610814565b6104d35760405162461bcd60e51b815260040161040790611223565b6104a8838383610893565b6000336001600160a01b037f000000000000000000000000000000000000000000000000000000000000000016146105505760405162461bcd60e51b815260206004820152601560248201527413db9b1e48199858dd1bdc9e4818d85b881b5a5b9d605a1b6044820152606401610407565b61055c826006546109f7565b5060068054908190600061056f83611270565b9190505550919050565b6104a883838360405180602001604052806000815250610698565b6000818152600260205260408120546001600160a01b0316806102d45760405162461bcd60e51b8152602060048201526018602482015277115490cdcc8c4e881a5b9d985b1a59081d1bdad95b88125160421b6044820152606401610407565b60006001600160a01b03821661065e5760405162461bcd60e51b815260206004820152602960248201527f4552433732313a2061646472657373207a65726f206973206e6f7420612076616044820152683634b21037bbb732b960b91b6064820152608401610407565b506001600160a01b031660009081526003602052604090205490565b6060600180546102e9906111e9565b610694338383610a11565b5050565b6106a23383610814565b6106be5760405162461bcd60e51b815260040161040790611223565b6106ca84848484610adf565b50505050565b60606106db82610744565b60006106f260408051602081019091526000815290565b90506000815111610712576040518060200160405280600081525061073d565b8061071c84610b12565b60405160200161072d929190611297565b6040516020818303038152906040525b9392505050565b6000818152600260205260409020546001600160a01b03166107a35760405162461bcd60e51b8152602060048201526018602482015277115490cdcc8c4e881a5b9d985b1a59081d1bdad95b88125160421b6044820152606401610407565b50565b600081815260046020526040902080546001600160a01b0319166001600160a01b03841690811790915581906107db82610594565b6001600160a01b03167f8c5be1e5ebec7d5bd14f71427d1e84f3dd0314c0f7b2291e5b200ac8c7c3b92560405160405180910390a45050565b60008061082083610594565b9050806001600160a01b0316846001600160a01b0316148061086757506001600160a01b0380821660009081526005602090815260408083209388168352929052205460ff165b8061088b5750836001600160a01b03166108808461036c565b6001600160a01b0316145b949350505050565b826001600160a01b03166108a682610594565b6001600160a01b0316146108cc5760405162461bcd60e51b8152600401610407906112c6565b6001600160a01b03821661092e5760405162461bcd60e51b8152602060048201526024808201527f4552433732313a207472616e7366657220746f20746865207a65726f206164646044820152637265737360e01b6064820152608401610407565b826001600160a01b031661094182610594565b6001600160a01b0316146109675760405162461bcd60e51b8152600401610407906112c6565b600081815260046020908152604080832080546001600160a01b03199081169091556001600160a01b0387811680865260038552838620805460001901905590871680865283862080546001019055868652600290945282852080549092168417909155905184937fddf252ad1be2c89b69c2b068fc378daa952ba7f163c4a11628f55a4df523b3ef91a4505050565b610694828260405180602001604052806000815250610ba5565b816001600160a01b0316836001600160a01b031603610a725760405162461bcd60e51b815260206004820152601960248201527f4552433732313a20617070726f766520746f2063616c6c6572000000000000006044820152606401610407565b6001600160a01b03838116600081815260056020908152604080832094871680845294825291829020805460ff191686151590811790915591519182527f17307eab39ab6107e8899845ad3d59bd9653f200f220920489ca2b5937696c31910160405180910390a3505050565b610aea848484610893565b610af684848484610bd8565b6106ca5760405162461bcd60e51b81526004016104079061130b565b60606000610b1f83610cd9565b600101905060008167ffffffffffffffff811115610b3f57610b3f6110c4565b6040519080825280601f01601f191660200182016040528015610b69576020820181803683370190505b5090508181016020015b600019016f181899199a1a9b1b9c1cb0b131b232b360811b600a86061a8153600a8504945084610b7357509392505050565b610baf8383610db1565b610bbc6000848484610bd8565b6104a85760405162461bcd60e51b81526004016104079061130b565b60006001600160a01b0384163b15610cce57604051630a85bd0160e11b81526001600160a01b0385169063150b7a0290610c1c90339089908890889060040161135d565b6020604051808303816000875af1925050508015610c57575060408051601f3d908101601f19168201909252610c549181019061139a565b60015b610cb4573d808015610c85576040519150601f19603f3d011682016040523d82523d6000602084013e610c8a565b606091505b508051600003610cac5760405162461bcd60e51b81526004016104079061130b565b805181602001fd5b6001600160e01b031916630a85bd0160e11b14905061088b565b506001949350505050565b60008072184f03e93ff9f4daa797ed6e38ed64bf6a1f0160401b8310610d185772184f03e93ff9f4daa797ed6e38ed64bf6a1f0160401b830492506040015b6d04ee2d6d415b85acef81000000008310610d44576d04ee2d6d415b85acef8100000000830492506020015b662386f26fc100008310610d6257662386f26fc10000830492506010015b6305f5e1008310610d7a576305f5e100830492506008015b6127108310610d8e57612710830492506004015b60648310610da0576064830492506002015b600a83106102d45760010192915050565b6001600160a01b038216610e075760405162461bcd60e51b815260206004820181905260248201527f4552433732313a206d696e7420746f20746865207a65726f20616464726573736044820152606401610407565b6000818152600260205260409020546001600160a01b031615610e6c5760405162461bcd60e51b815260206004820152601c60248201527f4552433732313a20746f6b656e20616c7265616479206d696e746564000000006044820152606401610407565b6000818152600260205260409020546001600160a01b031615610ed15760405162461bcd60e51b815260206004820152601c60248201527f4552433732313a20746f6b656e20616c7265616479206d696e746564000000006044820152606401610407565b6001600160a01b038216600081815260036020908152604080832080546001019055848352600290915280822080546001600160a01b0319168417905551839291907fddf252ad1be2c89b69c2b068fc378daa952ba7f163c4a11628f55a4df523b3ef908290a45050565b6001600160e01b0319811681146107a357600080fd5b600060208284031215610f6457600080fd5b813561073d81610f3c565b60005b83811015610f8a578181015183820152602001610f72565b50506000910152565b60008151808452610fab816020860160208601610f6f565b601f01601f19169290920160200192915050565b60208152600061073d6020830184610f93565b600060208284031215610fe457600080fd5b5035919050565b80356001600160a01b038116811461100257600080fd5b919050565b6000806040838503121561101a57600080fd5b61102383610feb565b946020939093013593505050565b60008060006060848603121561104657600080fd5b61104f84610feb565b925061105d60208501610feb565b9150604084013590509250925092565b60006020828403121561107f57600080fd5b61073d82610feb565b6000806040838503121561109b57600080fd5b6110a483610feb565b9150602083013580151581146110b957600080fd5b809150509250929050565b634e487b7160e01b600052604160045260246000fd5b600080600080608085870312156110f057600080fd5b6110f985610feb565b935061110760208601610feb565b925060408501359150606085013567ffffffffffffffff8082111561112b57600080fd5b818701915087601f83011261113f57600080fd5b813581811115611151576111516110c4565b604051601f8201601f19908116603f01168101908382118183101715611179576111796110c4565b816040528281528a602084870101111561119257600080fd5b82602086016020830137600060208483010152809550505050505092959194509250565b600080604083850312156111c957600080fd5b6111d283610feb565b91506111e060208401610feb565b90509250929050565b600181811c908216806111fd57607f821691505b60208210810361121d57634e487b7160e01b600052602260045260246000fd5b50919050565b6020808252602d908201527f4552433732313a2063616c6c6572206973206e6f7420746f6b656e206f776e6560408201526c1c881bdc88185c1c1c9bdd9959609a1b606082015260800190565b60006001820161129057634e487b7160e01b600052601160045260246000fd5b5060010190565b600083516112a9818460208801610f6f565b8351908301906112bd818360208801610f6f565b01949350505050565b60208082526025908201527f4552433732313a207472616e736665722066726f6d20696e636f72726563742060408201526437bbb732b960d91b606082015260800190565b60208082526032908201527f4552433732313a207472616e7366657220746f206e6f6e20455243373231526560408201527131b2b4bb32b91034b6b83632b6b2b73a32b960711b606082015260800190565b6001600160a01b038581168252841660208201526040810183905260806060820181905260009061139090830184610f93565b9695505050505050565b6000602082840312156113ac57600080fd5b815161073d81610f3c56fea2646970667358221220792ef1ef1c0107493a279451758162dfeded32f4d9907d44e49803f6f8ca021264736f6c63430008150033",
    "linkReferences": {
      "contracts/libs/MintInfo.sol": {
        "MintInfo": [
          {
            "start": 3310,
            "length": 20
          },
          {
            "start": 6730,
            "length": 20
          },
          {
            "start": 9832,
            "length": 20
          }
        ]
      }
    }
  },
  "methodIdentifiers": {
    "BASE_XEN()": "473284e9",
    "MAX_BPS()": "fd967f47",
    "MAX_PENALTY_PCT()": "0f2e1228",
    "SCALING_FACTOR()": "ef4cadc5",
    "SECONDS_IN_DAY()": "61a52a36",
    "baseDBXeNFTPower(uint256)": "b6ef1346",
    "claimFees(uint256)": "ac68a748",
    "claimXen(uint256)": "45bb28dc",
    "currentCycle()": "bab2f552",
    "currentCycleReward()": "91b30020",
    "currentStartedCycle()": "f1b371e2",
    "cycleAccruedFees(uint256)": "0ece2154",
    "cycleFeesPerPowerSummed(uint256)": "04a8a021",
    "dbxenft()": "6b1d4311",
    "dbxenftAccruedFees(uint256)": "95cc5d49",
    "dbxenftEntryPower(uint256)": "844ba774",
    "dbxenftEntryPowerWithStake(uint256)": "1b9197df",
    "dbxenftFirstStake(uint256)": "dbeffc87",
    "dbxenftPower(uint256)": "eeff8690",
    "dbxenftSecondStake(uint256)": "8fccb3c5",
    "dbxenftStakeCycle(uint256,uint256)": "b284b9d5",
    "dbxenftUnderlyingXENFT(uint256)": "26ab3f49",
    "dbxenftWithdrawableStake(uint256)": "e1012cb5",
    "dxn()": "5afe54d2",
    "getCurrentCycle()": "be26ed7f",
    "i_initialTimestamp()": "8bd95563",
    "i_periodDuration()": "2f7cdab0",
    "lastCycleReward()": "a95f1dac",
    "lastFeeUpdateCycle(uint256)": "13e675be",
    "lastStartedCycle()": "436091c1",
    "mintDBXENFT(uint256)": "e870fcf6",
    "pendingDXN(uint256)": "02d44321",
    "pendingFees()": "224438d1",
    "pendingPower()": "2c1c21b0",
    "pendingStakeWithdrawal()": "68f05769",
    "previousStartedCycle()": "5f5080b4",
    "rewardPerCycle(uint256)": "adc0f686",
    "stake(uint256,uint256)": "7b0472f0",
    "summedCyclePowers(uint256)": "75e04604",
    "tokenEntryCycle(uint256)": "b4784d5a",
    "totalEntryPowerPerCycle(uint256)": "f4838333",
    "totalExtraEntryPower(uint256)": "dd3cc78f",
    "unstake(uint256,uint256)": "9e2c8a5b",
    "xenCrypto()": "71141a58",
    "xenft()": "450ed530"
  },
  "id": 1
}