{
  "abi": [
    {
      "inputs": [
        {
          "internalType": "uint256",
          "name": "info",
          "type": "uint256"
        }
      ],
      "name": "decodeMintInfo",
      "outputs": [
        {
          "internalType": "uint256",
          "name": "term",
          "type": "uint256"
        },
        {
          "internalType": "uint256",
          "name": "maturityTs",
          "type": "uint256"
        },
        {
          "internalType": "uint256",
          "name": "rank",
          "type": "uint256"
        },
        {
          "internalType": "uint256",
          "name": "amp",
          "type": "uint256"
        },
        {
          "internalType": "uint256",
          "name": "eaa",
          "type": "uint256"
        },
        {
          "internalType": "uint256",
          "name": "class",
          "type": "uint256"
        },
        {
          "internalType": "bool",
          "name": "apex",
          "type": "bool"
        },
        {
          "internalType": "bool",
          "name": "limited",
          "type": "bool"
        },
        {
          "internalType": "bool",
          "name": "redeemed",
          "type": "bool"
        }
      ],
      "stateMutability": "pure",
      "type": "function"
    },
    {
      "inputs": [
        {
          "internalType": "uint256",
          "name": "term",
          "type": "uint256"
        },
        {
          "internalType": "uint256",
          "name": "maturityTs",
          "type": "uint256"
        },
        {
          "internalType": "uint256",
          "name": "rank",
          "type": "uint256"
        },
        {
          "internalType": "uint256",
          "name": "amp",
          "type": "uint256"
        },
        {
          "internalType": "uint256",
          "name": "eaa",
          "type": "uint256"
        },
        {
          "internalType": "uint256",
          "name": "class_",
          "type": "uint256"
        },
        {
          "internalType": "bool",
          "name": "redeemed",
          "type": "bool"
        }
      ],
      "name": "encodeMintInfo",
      "outputs": [
        {
          "internalType": "uint256",
          "name": "info",
          "type": "uint256"
        }
      ],
      "stateMutability": "pure",
      "type": "function"
    },
    {
      "inputs": [
        {
          "internalType": "uint256",
          "name": "info",
          "type": "uint256"
        }
      ],
      "name": "getAMP",
      "outputs": [
        {
          "internalType": "uint256",
          "name": "amp",
          "type": "uint256"
        }
      ],
      "stateMutability": "pure",
      "type": "function"
    },
    {
      "inputs": [
        {
          "internalType": "uint256",
          "name": "info",
          "type": "uint256"
        }
      ],
      "name": "getClass",
      "outputs": [
        {
          "internalType": "uint256",
          "name": "class_",
          "type": "uint256"
        },
        {
          "internalType": "bool",
          "name": "apex",
          "type": "bool"
        },
        {
          "internalType": "bool",
          "name": "limited",
          "type": "bool"
        }
      ],
      "stateMutability": "pure",
      "type": "function"
    },
    {
      "inputs": [
        {
          "internalType": "uint256",
          "name": "info",
          "type": "uint256"
        }
      ],
      "name": "getEAA",
      "outputs": [
        {
          "internalType": "uint256",
          "name": "eaa",
          "type": "uint256"
        }
      ],
      "stateMutability": "pure",
      "type": "function"
    },
    {
      "inputs": [
        {
          "internalType": "uint256",
          "name": "info",
          "type": "uint256"
        }
      ],
      "name": "getMaturityTs",
      "outputs": [
        {
          "internalType": "uint256",
          "name": "maturityTs",
          "type": "uint256"
        }
      ],
      "stateMutability": "pure",
      "type": "function"
    },
    {
      "inputs": [
        {
          "internalType": "uint256",
          "name": "info",
          "type": "uint256"
        }
      ],
      "name": "getRank",
      "outputs": [
        {
          "internalType": "uint256",
          "name": "rank",
          "type": "uint256"
        }
      ],
      "stateMutability": "pure",
      "type": "function"
    },
    {
      "inputs": [
        {
          "internalType": "uint256",
          "name": "info",
          "type": "uint256"
        }
      ],
      "name": "getRedeemed",
      "outputs": [
        {
          "internalType": "bool",
          "name": "redeemed",
          "type": "bool"
        }
      ],
      "stateMutability": "pure",
      "type": "function"
    },
    {
      "inputs": [
        {
          "internalType": "uint256",
          "name": "info",
          "type": "uint256"
        }
      ],
      "name": "getTerm",
      "outputs": [
        {
          "internalType": "uint256",
          "name": "term",
          "type": "uint256"
        }
      ],
      "stateMutability": "pure",
      "type": "function"
    }
  ],
  "bytecode": {
    "object": "0x61040c61003a600b82828239805160001a60731461002d57634e487b7160e01b600052600060045260246000fd5b30600052607381538281f3fe730000000000000000000000000000000000000000301460806040526004361061009d5760003560e01c8063512d62df11610070578063512d62df1461010157806388f882e814610131578063906029d91461018e578063a5099bae14610209578063e90cdc891461021c57600080fd5b806315370046146100a2578063243eb2c4146100c857806324bf728e146100db578063346ba941146100ee575b600080fd5b6100b56100b0366004610358565b61023f565b6040519081526020015b60405180910390f35b6100b56100d6366004610358565b610259565b6100b56100e9366004610358565b610273565b6100b56100fc366004610358565b61028d565b61011461010f366004610358565b6102a7565b6040805193845291151560208401521515908201526060016100bf565b61014461013f366004610358565b6102c8565b60408051998a5260208a0198909852968801959095526060870193909352608086019190915260a0850152151560c0840152151560e08301521515610100820152610120016100bf565b6100b561019c366004610371565b60008160ff168117905060088360ff16901b8117905060108461ffff16901b8117905060208561ffff16901b811790506030866001600160801b0316901b8117905060b08767ffffffffffffffff16901b8117905060f08861ffff16901b81179050979650505050505050565b6100b5610217366004610358565b610325565b61022f61022a366004610358565b61033f565b60405190151581526020016100bf565b600061024a826102c8565b50939998505050505050505050565b6000610264826102c8565b50929998505050505050505050565b600061027e826102c8565b50959998505050505050505050565b6000610298826102c8565b50969998505050505050505050565b60008060006102b5846102c8565b50919b909a509098509650505050505050565b60f081901c9160b082901c67ffffffffffffffff1691603081901c6001600160801b03169161ffff602083901c811692601081901c90911691600882901c603f81169260808216151592604090921615159160ff90911660011490565b6000610330826102c8565b50949998505050505050505050565b600061034a826102c8565b9a9950505050505050505050565b60006020828403121561036a57600080fd5b5035919050565b600080600080600080600060e0888a03121561038c57600080fd5b873596506020880135955060408801359450606088013593506080880135925060a0880135915060c088013580151581146103c657600080fd5b809150509295989194975092955056fea2646970667358221220c2aa87803cdacb8eccdbfed0abd20a3c4eda3dcf7671b8ccd048af504bdbcd7564736f6c63430008150033",
    "linkReferences": {}
  },
  "methodIdentifiers": {
    "decodeMintInfo(uint256)": "88f882e8",
    "encodeMintInfo(uint256,uint256,uint256,uint256,uint256,uint256,bool)": "906029d9",
    "getAMP(uint256)": "15370046",
    "getClass(uint256)": "512d62df",
    "getEAA(uint256)": "243eb2c4",
    "getMaturityTs(uint256)": "24bf728e",
    "getRank(uint256)": "a5099bae",
    "getRedeemed(uint256)": "e90cdc89",
    "getTerm(uint256)": "346ba941"
  },
  "id": 21
}